{
  "contractName": "GymSubscription",
  "abi": [
    {
      "inputs": [
        {
          "internalType": "address",
          "name": "gymStoreContract",
          "type": "address"
        }
      ],
      "stateMutability": "nonpayable",
      "type": "constructor"
    },
    {
      "anonymous": false,
      "inputs": [
        {
          "indexed": true,
          "internalType": "address",
          "name": "owner",
          "type": "address"
        },
        {
          "indexed": true,
          "internalType": "address",
          "name": "approved",
          "type": "address"
        },
        {
          "indexed": true,
          "internalType": "uint256",
          "name": "tokenId",
          "type": "uint256"
        }
      ],
      "name": "Approval",
      "type": "event"
    },
    {
      "anonymous": false,
      "inputs": [
        {
          "indexed": true,
          "internalType": "address",
          "name": "owner",
          "type": "address"
        },
        {
          "indexed": true,
          "internalType": "address",
          "name": "operator",
          "type": "address"
        },
        {
          "indexed": false,
          "internalType": "bool",
          "name": "approved",
          "type": "bool"
        }
      ],
      "name": "ApprovalForAll",
      "type": "event"
    },
    {
      "anonymous": false,
      "inputs": [
        {
          "indexed": true,
          "internalType": "address",
          "name": "from",
          "type": "address"
        },
        {
          "indexed": true,
          "internalType": "address",
          "name": "to",
          "type": "address"
        },
        {
          "indexed": true,
          "internalType": "uint256",
          "name": "tokenId",
          "type": "uint256"
        }
      ],
      "name": "Transfer",
      "type": "event"
    },
    {
      "inputs": [
        {
          "internalType": "address",
          "name": "to",
          "type": "address"
        },
        {
          "internalType": "uint256",
          "name": "tokenId",
          "type": "uint256"
        }
      ],
      "name": "approve",
      "outputs": [],
      "stateMutability": "nonpayable",
      "type": "function"
    },
    {
      "inputs": [
        {
          "internalType": "address",
          "name": "owner",
          "type": "address"
        }
      ],
      "name": "balanceOf",
      "outputs": [
        {
          "internalType": "uint256",
          "name": "",
          "type": "uint256"
        }
      ],
      "stateMutability": "view",
      "type": "function",
      "constant": true
    },
    {
      "inputs": [
        {
          "internalType": "uint256",
          "name": "tokenId",
          "type": "uint256"
        }
      ],
      "name": "getApproved",
      "outputs": [
        {
          "internalType": "address",
          "name": "",
          "type": "address"
        }
      ],
      "stateMutability": "view",
      "type": "function",
      "constant": true
    },
    {
      "inputs": [
        {
          "internalType": "address",
          "name": "owner",
          "type": "address"
        },
        {
          "internalType": "address",
          "name": "operator",
          "type": "address"
        }
      ],
      "name": "isApprovedForAll",
      "outputs": [
        {
          "internalType": "bool",
          "name": "",
          "type": "bool"
        }
      ],
      "stateMutability": "view",
      "type": "function",
      "constant": true
    },
    {
      "inputs": [],
      "name": "name",
      "outputs": [
        {
          "internalType": "string",
          "name": "",
          "type": "string"
        }
      ],
      "stateMutability": "view",
      "type": "function",
      "constant": true
    },
    {
      "inputs": [
        {
          "internalType": "uint256",
          "name": "tokenId",
          "type": "uint256"
        }
      ],
      "name": "ownerOf",
      "outputs": [
        {
          "internalType": "address",
          "name": "",
          "type": "address"
        }
      ],
      "stateMutability": "view",
      "type": "function",
      "constant": true
    },
    {
      "inputs": [
        {
          "internalType": "address",
          "name": "from",
          "type": "address"
        },
        {
          "internalType": "address",
          "name": "to",
          "type": "address"
        },
        {
          "internalType": "uint256",
          "name": "tokenId",
          "type": "uint256"
        }
      ],
      "name": "safeTransferFrom",
      "outputs": [],
      "stateMutability": "nonpayable",
      "type": "function"
    },
    {
      "inputs": [
        {
          "internalType": "address",
          "name": "from",
          "type": "address"
        },
        {
          "internalType": "address",
          "name": "to",
          "type": "address"
        },
        {
          "internalType": "uint256",
          "name": "tokenId",
          "type": "uint256"
        },
        {
          "internalType": "bytes",
          "name": "data",
          "type": "bytes"
        }
      ],
      "name": "safeTransferFrom",
      "outputs": [],
      "stateMutability": "nonpayable",
      "type": "function"
    },
    {
      "inputs": [
        {
          "internalType": "address",
          "name": "operator",
          "type": "address"
        },
        {
          "internalType": "bool",
          "name": "approved",
          "type": "bool"
        }
      ],
      "name": "setApprovalForAll",
      "outputs": [],
      "stateMutability": "nonpayable",
      "type": "function"
    },
    {
      "inputs": [
        {
          "internalType": "bytes4",
          "name": "interfaceId",
          "type": "bytes4"
        }
      ],
      "name": "supportsInterface",
      "outputs": [
        {
          "internalType": "bool",
          "name": "",
          "type": "bool"
        }
      ],
      "stateMutability": "view",
      "type": "function",
      "constant": true
    },
    {
      "inputs": [],
      "name": "symbol",
      "outputs": [
        {
          "internalType": "string",
          "name": "",
          "type": "string"
        }
      ],
      "stateMutability": "view",
      "type": "function",
      "constant": true
    },
    {
      "inputs": [
        {
          "internalType": "uint256",
          "name": "tokenId",
          "type": "uint256"
        }
      ],
      "name": "tokenURI",
      "outputs": [
        {
          "internalType": "string",
          "name": "",
          "type": "string"
        }
      ],
      "stateMutability": "view",
      "type": "function",
      "constant": true
    },
    {
      "inputs": [
        {
          "internalType": "address",
          "name": "from",
          "type": "address"
        },
        {
          "internalType": "address",
          "name": "to",
          "type": "address"
        },
        {
          "internalType": "uint256",
          "name": "tokenId",
          "type": "uint256"
        }
      ],
      "name": "transferFrom",
      "outputs": [],
      "stateMutability": "nonpayable",
      "type": "function"
    },
    {
      "inputs": [
        {
          "internalType": "string",
          "name": "ipfsHash",
          "type": "string"
        },
        {
          "internalType": "string",
          "name": "imgUrl",
          "type": "string"
        },
        {
          "internalType": "address",
          "name": "ownerAddress",
          "type": "address"
        },
        {
          "internalType": "uint256",
          "name": "invalidAfter",
          "type": "uint256"
        }
      ],
      "name": "createSubscription",
      "outputs": [],
      "stateMutability": "nonpayable",
      "type": "function"
    },
    {
      "inputs": [
        {
          "internalType": "uint256",
          "name": "val",
          "type": "uint256"
        }
      ],
      "name": "makePaymentToStore",
      "outputs": [],
      "stateMutability": "nonpayable",
      "type": "function"
    },
    {
      "inputs": [
        {
          "internalType": "address",
          "name": "userAddr",
          "type": "address"
        }
      ],
      "name": "hasStoreSubscription",
      "outputs": [
        {
          "internalType": "bool",
          "name": "",
          "type": "bool"
        }
      ],
      "stateMutability": "view",
      "type": "function",
      "constant": true
    },
    {
      "inputs": [],
      "name": "GetStoreIdForSubscription",
      "outputs": [
        {
          "internalType": "uint256",
          "name": "",
          "type": "uint256"
        }
      ],
      "stateMutability": "view",
      "type": "function",
      "constant": true
    },
    {
      "inputs": [
        {
          "internalType": "uint256",
          "name": "_storeId",
          "type": "uint256"
        }
      ],
      "name": "GetStoreAddressForSubscription",
      "outputs": [
        {
          "internalType": "uint256",
          "name": "",
          "type": "uint256"
        },
        {
          "internalType": "string",
          "name": "",
          "type": "string"
        },
        {
          "internalType": "address",
          "name": "",
          "type": "address"
        },
        {
          "internalType": "uint256",
          "name": "",
          "type": "uint256"
        },
        {
          "internalType": "address[]",
          "name": "",
          "type": "address[]"
        }
      ],
      "stateMutability": "view",
      "type": "function",
      "constant": true
    },
    {
      "inputs": [
        {
          "internalType": "uint256",
          "name": "sId",
          "type": "uint256"
        },
        {
          "internalType": "address",
          "name": "transferAddr",
          "type": "address"
        }
      ],
      "name": "transferSubscription",
      "outputs": [
        {
          "internalType": "bool",
          "name": "",
          "type": "bool"
        }
      ],
      "stateMutability": "nonpayable",
      "type": "function"
    }
  ],
  "bytecode": "0x608060405260006008553480156200001657600080fd5b50604051620038c2380380620038c283398181016040528101906200003c919062000180565b6040518060400160405280601281526020017f47796d537562736372697074696f6e4e465400000000000000000000000000008152506040518060400160405280600481526020017f47534654000000000000000000000000000000000000000000000000000000008152508160009081620000b991906200042c565b508060019081620000cb91906200042c565b50505080600760006101000a81548173ffffffffffffffffffffffffffffffffffffffff021916908373ffffffffffffffffffffffffffffffffffffffff1602179055505062000513565b600080fd5b600073ffffffffffffffffffffffffffffffffffffffff82169050919050565b600062000148826200011b565b9050919050565b6200015a816200013b565b81146200016657600080fd5b50565b6000815190506200017a816200014f565b92915050565b60006020828403121562000199576200019862000116565b5b6000620001a98482850162000169565b91505092915050565b600081519050919050565b7f4e487b7100000000000000000000000000000000000000000000000000000000600052604160045260246000fd5b7f4e487b7100000000000000000000000000000000000000000000000000000000600052602260045260246000fd5b600060028204905060018216806200023457607f821691505b6020821081036200024a5762000249620001ec565b5b50919050565b60008190508160005260206000209050919050565b60006020601f8301049050919050565b600082821b905092915050565b600060088302620002b47fffffffffffffffffffffffffffffffffffffffffffffffffffffffffffffffff8262000275565b620002c0868362000275565b95508019841693508086168417925050509392505050565b6000819050919050565b6000819050919050565b60006200030d620003076200030184620002d8565b620002e2565b620002d8565b9050919050565b6000819050919050565b6200032983620002ec565b62000341620003388262000314565b84845462000282565b825550505050565b600090565b6200035862000349565b620003658184846200031e565b505050565b5b818110156200038d57620003816000826200034e565b6001810190506200036b565b5050565b601f821115620003dc57620003a68162000250565b620003b18462000265565b81016020851015620003c1578190505b620003d9620003d08562000265565b8301826200036a565b50505b505050565b600082821c905092915050565b60006200040160001984600802620003e1565b1980831691505092915050565b60006200041c8383620003ee565b9150826002028217905092915050565b6200043782620001b2565b67ffffffffffffffff811115620004535762000452620001bd565b5b6200045f82546200021b565b6200046c82828562000391565b600060209050601f831160018114620004a457600084156200048f578287015190505b6200049b85826200040e565b8655506200050b565b601f198416620004b48662000250565b60005b82811015620004de57848901518255600182019150602085019450602081019050620004b7565b86831015620004fe5784890151620004fa601f891682620003ee565b8355505b6001600288020188555050505b505050505050565b61339f80620005236000396000f3fe608060405234801561001057600080fd5b50600436106101215760003560e01c806370a08231116100ad578063ad2eef0e11610071578063ad2eef0e14610342578063b88d4fde1461035e578063c87b56dd1461037a578063e985e9c5146103aa578063ee1f45f7146103da57610121565b806370a082311461028c57806395d89b41146102bc5780639e339e69146102da578063a0ed6bc6146102f6578063a22cb4651461032657610121565b8063114e2e41116100f4578063114e2e41146101c057806323b872dd146101f457806342842e0e146102105780636195b6571461022c5780636352211e1461025c57610121565b806301ffc9a71461012657806306fdde0314610156578063081812fc14610174578063095ea7b3146101a4575b600080fd5b610140600480360381019061013b9190611d9f565b6103f8565b60405161014d9190611de7565b60405180910390f35b61015e6104da565b60405161016b9190611e92565b60405180910390f35b61018e60048036038101906101899190611eea565b61056c565b60405161019b9190611f58565b60405180910390f35b6101be60048036038101906101b99190611f9f565b6105b2565b005b6101da60048036038101906101d59190611eea565b6106c9565b6040516101eb9594939291906120ac565b60405180910390f35b61020e6004803603810190610209919061210d565b610786565b005b61022a6004803603810190610225919061210d565b6107e6565b005b61024660048036038101906102419190612160565b610806565b6040516102539190611de7565b60405180910390f35b61027660048036038101906102719190611eea565b6108b8565b6040516102839190611f58565b60405180910390f35b6102a660048036038101906102a19190612160565b610969565b6040516102b3919061218d565b60405180910390f35b6102c4610a20565b6040516102d19190611e92565b60405180910390f35b6102f460048036038101906102ef91906122dd565b610ab2565b005b610310600480360381019061030b919061237c565b610c26565b60405161031d9190611de7565b60405180910390f35b610340600480360381019061033b91906123e8565b610cf1565b005b61035c60048036038101906103579190611eea565b610d07565b005b610378600480360381019061037391906124c9565b610e82565b005b610394600480360381019061038f9190611eea565b610ee4565b6040516103a19190611e92565b60405180910390f35b6103c460048036038101906103bf919061254c565b610ff6565b6040516103d19190611de7565b60405180910390f35b6103e261108a565b6040516103ef919061218d565b60405180910390f35b60007f80ac58cd000000000000000000000000000000000000000000000000000000007bffffffffffffffffffffffffffffffffffffffffffffffffffffffff1916827bffffffffffffffffffffffffffffffffffffffffffffffffffffffff191614806104c357507f5b5e139f000000000000000000000000000000000000000000000000000000007bffffffffffffffffffffffffffffffffffffffffffffffffffffffff1916827bffffffffffffffffffffffffffffffffffffffffffffffffffffffff1916145b806104d357506104d282611122565b5b9050919050565b6060600080546104e9906125bb565b80601f0160208091040260200160405190810160405280929190818152602001828054610515906125bb565b80156105625780601f1061053757610100808354040283529160200191610562565b820191906000526020600020905b81548152906001019060200180831161054557829003601f168201915b5050505050905090565b60006105778261118c565b6004600083815260200190815260200160002060009054906101000a900473ffffffffffffffffffffffffffffffffffffffff169050919050565b60006105bd826108b8565b90508073ffffffffffffffffffffffffffffffffffffffff168373ffffffffffffffffffffffffffffffffffffffff160361062d576040517f08c379a00000000000000000000000000000000000000000000000000000000081526004016106249061265e565b60405180910390fd5b8073ffffffffffffffffffffffffffffffffffffffff1661064c6111d7565b73ffffffffffffffffffffffffffffffffffffffff16148061067b575061067a816106756111d7565b610ff6565b5b6106ba576040517f08c379a00000000000000000000000000000000000000000000000000000000081526004016106b1906126f0565b60405180910390fd5b6106c483836111df565b505050565b600060606000806060600760009054906101000a900473ffffffffffffffffffffffffffffffffffffffff1673ffffffffffffffffffffffffffffffffffffffff166383403120876040518263ffffffff1660e01b815260040161072d919061218d565b600060405180830381865afa15801561074a573d6000803e3d6000fd5b505050506040513d6000823e3d601f19601f820116820180604052508101906107739190612872565b9450945094509450945091939590929450565b6107976107916111d7565b82611298565b6107d6576040517f08c379a00000000000000000000000000000000000000000000000000000000081526004016107cd90612997565b60405180910390fd5b6107e183838361132d565b505050565b61080183838360405180602001604052806000815250610e82565b505050565b600080600090505b6008548110156108ad578273ffffffffffffffffffffffffffffffffffffffff1660098281548110610843576108426129b7565b5b906000526020600020906006020160030160009054906101000a900473ffffffffffffffffffffffffffffffffffffffff1673ffffffffffffffffffffffffffffffffffffffff160361089a5760019150506108b3565b80806108a590612a15565b91505061080e565b50600090505b919050565b6000806002600084815260200190815260200160002060009054906101000a900473ffffffffffffffffffffffffffffffffffffffff169050600073ffffffffffffffffffffffffffffffffffffffff168173ffffffffffffffffffffffffffffffffffffffff1603610960576040517f08c379a000000000000000000000000000000000000000000000000000000000815260040161095790612aa9565b60405180910390fd5b80915050919050565b60008073ffffffffffffffffffffffffffffffffffffffff168273ffffffffffffffffffffffffffffffffffffffff16036109d9576040517f08c379a00000000000000000000000000000000000000000000000000000000081526004016109d090612b3b565b60405180910390fd5b600360008373ffffffffffffffffffffffffffffffffffffffff1673ffffffffffffffffffffffffffffffffffffffff168152602001908152602001600020549050919050565b606060018054610a2f906125bb565b80601f0160208091040260200160405190810160405280929190818152602001828054610a5b906125bb565b8015610aa85780601f10610a7d57610100808354040283529160200191610aa8565b820191906000526020600020905b815481529060010190602001808311610a8b57829003601f168201915b5050505050905090565b600073ffffffffffffffffffffffffffffffffffffffff168273ffffffffffffffffffffffffffffffffffffffff1603610aea573391505b6000600980549050905060006040518060c001604052808381526020018781526020018681526020018573ffffffffffffffffffffffffffffffffffffffff1681526020014281526020018481525090506009819080600181540180825580915050600190039060005260206000209060060201600090919091909150600082015181600001556020820151816001019081610b869190612d07565b506040820151816002019081610b9c9190612d07565b5060608201518160030160006101000a81548173ffffffffffffffffffffffffffffffffffffffff021916908373ffffffffffffffffffffffffffffffffffffffff1602179055506080820151816004015560a082015181600501555050610c0633600854611593565b60086000815480929190610c1990612a15565b9190505550505050505050565b600080600090505b600854811015610ce5578360098281548110610c4d57610c4c6129b7565b5b90600052602060002090600602016000015403610cd2578260098281548110610c7957610c786129b7565b5b906000526020600020906006020160030160006101000a81548173ffffffffffffffffffffffffffffffffffffffff021916908373ffffffffffffffffffffffffffffffffffffffff1602179055506001915050610ceb565b8080610cdd90612a15565b915050610c2e565b50600090505b92915050565b610d03610cfc6111d7565b838361176c565b5050565b6000600760009054906101000a900473ffffffffffffffffffffffffffffffffffffffff1673ffffffffffffffffffffffffffffffffffffffff1663603acf10600760009054906101000a900473ffffffffffffffffffffffffffffffffffffffff1673ffffffffffffffffffffffffffffffffffffffff1663b8acdb016040518163ffffffff1660e01b8152600401602060405180830381865afa158015610db4573d6000803e3d6000fd5b505050506040513d601f19601f82011682018060405250810190610dd89190612dd9565b6040518263ffffffff1660e01b8152600401610df4919061218d565b602060405180830381865afa158015610e11573d6000803e3d6000fd5b505050506040513d601f19601f82011682018060405250810190610e359190612e06565b90508073ffffffffffffffffffffffffffffffffffffffff166108fc839081150290604051600060405180830381858888f19350505050158015610e7d573d6000803e3d6000fd5b505050565b610e93610e8d6111d7565b83611298565b610ed2576040517f08c379a0000000000000000000000000000000000000000000000000000000008152600401610ec990612997565b60405180910390fd5b610ede848484846118d8565b50505050565b6060610eef8261118c565b6000600660008481526020019081526020016000208054610f0f906125bb565b80601f0160208091040260200160405190810160405280929190818152602001828054610f3b906125bb565b8015610f885780601f10610f5d57610100808354040283529160200191610f88565b820191906000526020600020905b815481529060010190602001808311610f6b57829003601f168201915b505050505090506000610f99611934565b90506000815103610fae578192505050610ff1565b600082511115610fe3578082604051602001610fcb929190612e6f565b60405160208183030381529060405292505050610ff1565b610fec8461194b565b925050505b919050565b6000600560008473ffffffffffffffffffffffffffffffffffffffff1673ffffffffffffffffffffffffffffffffffffffff16815260200190815260200160002060008373ffffffffffffffffffffffffffffffffffffffff1673ffffffffffffffffffffffffffffffffffffffff16815260200190815260200160002060009054906101000a900460ff16905092915050565b6000600760009054906101000a900473ffffffffffffffffffffffffffffffffffffffff1673ffffffffffffffffffffffffffffffffffffffff1663b8acdb016040518163ffffffff1660e01b8152600401602060405180830381865afa1580156110f9573d6000803e3d6000fd5b505050506040513d601f19601f8201168201806040525081019061111d9190612dd9565b905090565b60007f01ffc9a7000000000000000000000000000000000000000000000000000000007bffffffffffffffffffffffffffffffffffffffffffffffffffffffff1916827bffffffffffffffffffffffffffffffffffffffffffffffffffffffff1916149050919050565b611195816119b3565b6111d4576040517f08c379a00000000000000000000000000000000000000000000000000000000081526004016111cb90612aa9565b60405180910390fd5b50565b600033905090565b816004600083815260200190815260200160002060006101000a81548173ffffffffffffffffffffffffffffffffffffffff021916908373ffffffffffffffffffffffffffffffffffffffff160217905550808273ffffffffffffffffffffffffffffffffffffffff16611252836108b8565b73ffffffffffffffffffffffffffffffffffffffff167f8c5be1e5ebec7d5bd14f71427d1e84f3dd0314c0f7b2291e5b200ac8c7c3b92560405160405180910390a45050565b6000806112a4836108b8565b90508073ffffffffffffffffffffffffffffffffffffffff168473ffffffffffffffffffffffffffffffffffffffff1614806112e657506112e58185610ff6565b5b8061132457508373ffffffffffffffffffffffffffffffffffffffff1661130c8461056c565b73ffffffffffffffffffffffffffffffffffffffff16145b91505092915050565b8273ffffffffffffffffffffffffffffffffffffffff1661134d826108b8565b73ffffffffffffffffffffffffffffffffffffffff16146113a3576040517f08c379a000000000000000000000000000000000000000000000000000000000815260040161139a90612f05565b60405180910390fd5b600073ffffffffffffffffffffffffffffffffffffffff168273ffffffffffffffffffffffffffffffffffffffff1603611412576040517f08c379a000000000000000000000000000000000000000000000000000000000815260040161140990612f97565b60405180910390fd5b61141d838383611a1f565b6114286000826111df565b6001600360008573ffffffffffffffffffffffffffffffffffffffff1673ffffffffffffffffffffffffffffffffffffffff16815260200190815260200160002060008282546114789190612fb7565b925050819055506001600360008473ffffffffffffffffffffffffffffffffffffffff1673ffffffffffffffffffffffffffffffffffffffff16815260200190815260200160002060008282546114cf9190612feb565b92505081905550816002600083815260200190815260200160002060006101000a81548173ffffffffffffffffffffffffffffffffffffffff021916908373ffffffffffffffffffffffffffffffffffffffff160217905550808273ffffffffffffffffffffffffffffffffffffffff168473ffffffffffffffffffffffffffffffffffffffff167fddf252ad1be2c89b69c2b068fc378daa952ba7f163c4a11628f55a4df523b3ef60405160405180910390a461158e838383611a24565b505050565b600073ffffffffffffffffffffffffffffffffffffffff168273ffffffffffffffffffffffffffffffffffffffff1603611602576040517f08c379a00000000000000000000000000000000000000000000000000000000081526004016115f99061306b565b60405180910390fd5b61160b816119b3565b1561164b576040517f08c379a0000000000000000000000000000000000000000000000000000000008152600401611642906130d7565b60405180910390fd5b61165760008383611a1f565b6001600360008473ffffffffffffffffffffffffffffffffffffffff1673ffffffffffffffffffffffffffffffffffffffff16815260200190815260200160002060008282546116a79190612feb565b92505081905550816002600083815260200190815260200160002060006101000a81548173ffffffffffffffffffffffffffffffffffffffff021916908373ffffffffffffffffffffffffffffffffffffffff160217905550808273ffffffffffffffffffffffffffffffffffffffff16600073ffffffffffffffffffffffffffffffffffffffff167fddf252ad1be2c89b69c2b068fc378daa952ba7f163c4a11628f55a4df523b3ef60405160405180910390a461176860008383611a24565b5050565b8173ffffffffffffffffffffffffffffffffffffffff168373ffffffffffffffffffffffffffffffffffffffff16036117da576040517f08c379a00000000000000000000000000000000000000000000000000000000081526004016117d190613143565b60405180910390fd5b80600560008573ffffffffffffffffffffffffffffffffffffffff1673ffffffffffffffffffffffffffffffffffffffff16815260200190815260200160002060008473ffffffffffffffffffffffffffffffffffffffff1673ffffffffffffffffffffffffffffffffffffffff16815260200190815260200160002060006101000a81548160ff0219169083151502179055508173ffffffffffffffffffffffffffffffffffffffff168373ffffffffffffffffffffffffffffffffffffffff167f17307eab39ab6107e8899845ad3d59bd9653f200f220920489ca2b5937696c31836040516118cb9190611de7565b60405180910390a3505050565b6118e384848461132d565b6118ef84848484611a29565b61192e576040517f08c379a0000000000000000000000000000000000000000000000000000000008152600401611925906131d5565b60405180910390fd5b50505050565b606060405180602001604052806000815250905090565b60606119568261118c565b6000611960611934565b9050600081511161198057604051806020016040528060008152506119ab565b8061198a84611bb0565b60405160200161199b929190612e6f565b6040516020818303038152906040525b915050919050565b60008073ffffffffffffffffffffffffffffffffffffffff166002600084815260200190815260200160002060009054906101000a900473ffffffffffffffffffffffffffffffffffffffff1673ffffffffffffffffffffffffffffffffffffffff1614159050919050565b505050565b505050565b6000611a4a8473ffffffffffffffffffffffffffffffffffffffff16611d10565b15611ba3578373ffffffffffffffffffffffffffffffffffffffff1663150b7a02611a736111d7565b8786866040518563ffffffff1660e01b8152600401611a95949392919061324a565b6020604051808303816000875af1925050508015611ad157506040513d601f19601f82011682018060405250810190611ace91906132ab565b60015b611b53573d8060008114611b01576040519150601f19603f3d011682016040523d82523d6000602084013e611b06565b606091505b506000815103611b4b576040517f08c379a0000000000000000000000000000000000000000000000000000000008152600401611b42906131d5565b60405180910390fd5b805181602001fd5b63150b7a0260e01b7bffffffffffffffffffffffffffffffffffffffffffffffffffffffff1916817bffffffffffffffffffffffffffffffffffffffffffffffffffffffff191614915050611ba8565b600190505b949350505050565b606060008203611bf7576040518060400160405280600181526020017f30000000000000000000000000000000000000000000000000000000000000008152509050611d0b565b600082905060005b60008214611c29578080611c1290612a15565b915050600a82611c229190613307565b9150611bff565b60008167ffffffffffffffff811115611c4557611c446121b2565b5b6040519080825280601f01601f191660200182016040528015611c775781602001600182028036833780820191505090505b5090505b60008514611d0457600182611c909190612fb7565b9150600a85611c9f9190613338565b6030611cab9190612feb565b60f81b818381518110611cc157611cc06129b7565b5b60200101907effffffffffffffffffffffffffffffffffffffffffffffffffffffffffffff1916908160001a905350600a85611cfd9190613307565b9450611c7b565b8093505050505b919050565b6000808273ffffffffffffffffffffffffffffffffffffffff163b119050919050565b6000604051905090565b600080fd5b600080fd5b60007fffffffff0000000000000000000000000000000000000000000000000000000082169050919050565b611d7c81611d47565b8114611d8757600080fd5b50565b600081359050611d9981611d73565b92915050565b600060208284031215611db557611db4611d3d565b5b6000611dc384828501611d8a565b91505092915050565b60008115159050919050565b611de181611dcc565b82525050565b6000602082019050611dfc6000830184611dd8565b92915050565b600081519050919050565b600082825260208201905092915050565b60005b83811015611e3c578082015181840152602081019050611e21565b60008484015250505050565b6000601f19601f8301169050919050565b6000611e6482611e02565b611e6e8185611e0d565b9350611e7e818560208601611e1e565b611e8781611e48565b840191505092915050565b60006020820190508181036000830152611eac8184611e59565b905092915050565b6000819050919050565b611ec781611eb4565b8114611ed257600080fd5b50565b600081359050611ee481611ebe565b92915050565b600060208284031215611f0057611eff611d3d565b5b6000611f0e84828501611ed5565b91505092915050565b600073ffffffffffffffffffffffffffffffffffffffff82169050919050565b6000611f4282611f17565b9050919050565b611f5281611f37565b82525050565b6000602082019050611f6d6000830184611f49565b92915050565b611f7c81611f37565b8114611f8757600080fd5b50565b600081359050611f9981611f73565b92915050565b60008060408385031215611fb657611fb5611d3d565b5b6000611fc485828601611f8a565b9250506020611fd585828601611ed5565b9150509250929050565b611fe881611eb4565b82525050565b600081519050919050565b600082825260208201905092915050565b6000819050602082019050919050565b61202381611f37565b82525050565b6000612035838361201a565b60208301905092915050565b6000602082019050919050565b600061205982611fee565b6120638185611ff9565b935061206e8361200a565b8060005b8381101561209f5781516120868882612029565b975061209183612041565b925050600181019050612072565b5085935050505092915050565b600060a0820190506120c16000830188611fdf565b81810360208301526120d38187611e59565b90506120e26040830186611f49565b6120ef6060830185611fdf565b8181036080830152612101818461204e565b90509695505050505050565b60008060006060848603121561212657612125611d3d565b5b600061213486828701611f8a565b935050602061214586828701611f8a565b925050604061215686828701611ed5565b9150509250925092565b60006020828403121561217657612175611d3d565b5b600061218484828501611f8a565b91505092915050565b60006020820190506121a26000830184611fdf565b92915050565b600080fd5b600080fd5b7f4e487b7100000000000000000000000000000000000000000000000000000000600052604160045260246000fd5b6121ea82611e48565b810181811067ffffffffffffffff82111715612209576122086121b2565b5b80604052505050565b600061221c611d33565b905061222882826121e1565b919050565b600067ffffffffffffffff821115612248576122476121b2565b5b61225182611e48565b9050602081019050919050565b82818337600083830152505050565b600061228061227b8461222d565b612212565b90508281526020810184848401111561229c5761229b6121ad565b5b6122a784828561225e565b509392505050565b600082601f8301126122c4576122c36121a8565b5b81356122d484826020860161226d565b91505092915050565b600080600080608085870312156122f7576122f6611d3d565b5b600085013567ffffffffffffffff81111561231557612314611d42565b5b612321878288016122af565b945050602085013567ffffffffffffffff81111561234257612341611d42565b5b61234e878288016122af565b935050604061235f87828801611f8a565b925050606061237087828801611ed5565b91505092959194509250565b6000806040838503121561239357612392611d3d565b5b60006123a185828601611ed5565b92505060206123b285828601611f8a565b9150509250929050565b6123c581611dcc565b81146123d057600080fd5b50565b6000813590506123e2816123bc565b92915050565b600080604083850312156123ff576123fe611d3d565b5b600061240d85828601611f8a565b925050602061241e858286016123d3565b9150509250929050565b600067ffffffffffffffff821115612443576124426121b2565b5b61244c82611e48565b9050602081019050919050565b600061246c61246784612428565b612212565b905082815260208101848484011115612488576124876121ad565b5b61249384828561225e565b509392505050565b600082601f8301126124b0576124af6121a8565b5b81356124c0848260208601612459565b91505092915050565b600080600080608085870312156124e3576124e2611d3d565b5b60006124f187828801611f8a565b945050602061250287828801611f8a565b935050604061251387828801611ed5565b925050606085013567ffffffffffffffff81111561253457612533611d42565b5b6125408782880161249b565b91505092959194509250565b6000806040838503121561256357612562611d3d565b5b600061257185828601611f8a565b925050602061258285828601611f8a565b9150509250929050565b7f4e487b7100000000000000000000000000000000000000000000000000000000600052602260045260246000fd5b600060028204905060018216806125d357607f821691505b6020821081036125e6576125e561258c565b5b50919050565b7f4552433732313a20617070726f76616c20746f2063757272656e74206f776e6560008201527f7200000000000000000000000000000000000000000000000000000000000000602082015250565b6000612648602183611e0d565b9150612653826125ec565b604082019050919050565b600060208201905081810360008301526126778161263b565b9050919050565b7f4552433732313a20617070726f76652063616c6c6572206973206e6f7420746f60008201527f6b656e206f776e6572206e6f7220617070726f76656420666f7220616c6c0000602082015250565b60006126da603e83611e0d565b91506126e58261267e565b604082019050919050565b60006020820190508181036000830152612709816126cd565b9050919050565b60008151905061271f81611ebe565b92915050565b60006127386127338461222d565b612212565b905082815260208101848484011115612754576127536121ad565b5b61275f848285611e1e565b509392505050565b600082601f83011261277c5761277b6121a8565b5b815161278c848260208601612725565b91505092915050565b6000815190506127a481611f73565b92915050565b600067ffffffffffffffff8211156127c5576127c46121b2565b5b602082029050602081019050919050565b600080fd5b60006127ee6127e9846127aa565b612212565b90508083825260208201905060208402830185811115612811576128106127d6565b5b835b8181101561283a57806128268882612795565b845260208401935050602081019050612813565b5050509392505050565b600082601f830112612859576128586121a8565b5b81516128698482602086016127db565b91505092915050565b600080600080600060a0868803121561288e5761288d611d3d565b5b600061289c88828901612710565b955050602086015167ffffffffffffffff8111156128bd576128bc611d42565b5b6128c988828901612767565b94505060406128da88828901612795565b93505060606128eb88828901612710565b925050608086015167ffffffffffffffff81111561290c5761290b611d42565b5b61291888828901612844565b9150509295509295909350565b7f4552433732313a2063616c6c6572206973206e6f7420746f6b656e206f776e6560008201527f72206e6f7220617070726f766564000000000000000000000000000000000000602082015250565b6000612981602e83611e0d565b915061298c82612925565b604082019050919050565b600060208201905081810360008301526129b081612974565b9050919050565b7f4e487b7100000000000000000000000000000000000000000000000000000000600052603260045260246000fd5b7f4e487b7100000000000000000000000000000000000000000000000000000000600052601160045260246000fd5b6000612a2082611eb4565b91507fffffffffffffffffffffffffffffffffffffffffffffffffffffffffffffffff8203612a5257612a516129e6565b5b600182019050919050565b7f4552433732313a20696e76616c696420746f6b656e2049440000000000000000600082015250565b6000612a93601883611e0d565b9150612a9e82612a5d565b602082019050919050565b60006020820190508181036000830152612ac281612a86565b9050919050565b7f4552433732313a2061646472657373207a65726f206973206e6f74206120766160008201527f6c6964206f776e65720000000000000000000000000000000000000000000000602082015250565b6000612b25602983611e0d565b9150612b3082612ac9565b604082019050919050565b60006020820190508181036000830152612b5481612b18565b9050919050565b60008190508160005260206000209050919050565b60006020601f8301049050919050565b600082821b905092915050565b600060088302612bbd7fffffffffffffffffffffffffffffffffffffffffffffffffffffffffffffffff82612b80565b612bc78683612b80565b95508019841693508086168417925050509392505050565b6000819050919050565b6000612c04612bff612bfa84611eb4565b612bdf565b611eb4565b9050919050565b6000819050919050565b612c1e83612be9565b612c32612c2a82612c0b565b848454612b8d565b825550505050565b600090565b612c47612c3a565b612c52818484612c15565b505050565b5b81811015612c7657612c6b600082612c3f565b600181019050612c58565b5050565b601f821115612cbb57612c8c81612b5b565b612c9584612b70565b81016020851015612ca4578190505b612cb8612cb085612b70565b830182612c57565b50505b505050565b600082821c905092915050565b6000612cde60001984600802612cc0565b1980831691505092915050565b6000612cf78383612ccd565b9150826002028217905092915050565b612d1082611e02565b67ffffffffffffffff811115612d2957612d286121b2565b5b612d3382546125bb565b612d3e828285612c7a565b600060209050601f831160018114612d715760008415612d5f578287015190505b612d698582612ceb565b865550612dd1565b601f198416612d7f86612b5b565b60005b82811015612da757848901518255600182019150602085019450602081019050612d82565b86831015612dc45784890151612dc0601f891682612ccd565b8355505b6001600288020188555050505b505050505050565b600060208284031215612def57612dee611d3d565b5b6000612dfd84828501612710565b91505092915050565b600060208284031215612e1c57612e1b611d3d565b5b6000612e2a84828501612795565b91505092915050565b600081905092915050565b6000612e4982611e02565b612e538185612e33565b9350612e63818560208601611e1e565b80840191505092915050565b6000612e7b8285612e3e565b9150612e878284612e3e565b91508190509392505050565b7f4552433732313a207472616e736665722066726f6d20696e636f72726563742060008201527f6f776e6572000000000000000000000000000000000000000000000000000000602082015250565b6000612eef602583611e0d565b9150612efa82612e93565b604082019050919050565b60006020820190508181036000830152612f1e81612ee2565b9050919050565b7f4552433732313a207472616e7366657220746f20746865207a65726f2061646460008201527f7265737300000000000000000000000000000000000000000000000000000000602082015250565b6000612f81602483611e0d565b9150612f8c82612f25565b604082019050919050565b60006020820190508181036000830152612fb081612f74565b9050919050565b6000612fc282611eb4565b9150612fcd83611eb4565b9250828203905081811115612fe557612fe46129e6565b5b92915050565b6000612ff682611eb4565b915061300183611eb4565b9250828201905080821115613019576130186129e6565b5b92915050565b7f4552433732313a206d696e7420746f20746865207a65726f2061646472657373600082015250565b6000613055602083611e0d565b91506130608261301f565b602082019050919050565b6000602082019050818103600083015261308481613048565b9050919050565b7f4552433732313a20746f6b656e20616c7265616479206d696e74656400000000600082015250565b60006130c1601c83611e0d565b91506130cc8261308b565b602082019050919050565b600060208201905081810360008301526130f0816130b4565b9050919050565b7f4552433732313a20617070726f766520746f2063616c6c657200000000000000600082015250565b600061312d601983611e0d565b9150613138826130f7565b602082019050919050565b6000602082019050818103600083015261315c81613120565b9050919050565b7f4552433732313a207472616e7366657220746f206e6f6e20455243373231526560008201527f63656976657220696d706c656d656e7465720000000000000000000000000000602082015250565b60006131bf603283611e0d565b91506131ca82613163565b604082019050919050565b600060208201905081810360008301526131ee816131b2565b9050919050565b600081519050919050565b600082825260208201905092915050565b600061321c826131f5565b6132268185613200565b9350613236818560208601611e1e565b61323f81611e48565b840191505092915050565b600060808201905061325f6000830187611f49565b61326c6020830186611f49565b6132796040830185611fdf565b818103606083015261328b8184613211565b905095945050505050565b6000815190506132a581611d73565b92915050565b6000602082840312156132c1576132c0611d3d565b5b60006132cf84828501613296565b91505092915050565b7f4e487b7100000000000000000000000000000000000000000000000000000000600052601260045260246000fd5b600061331282611eb4565b915061331d83611eb4565b92508261332d5761332c6132d8565b5b828204905092915050565b600061334382611eb4565b915061334e83611eb4565b92508261335e5761335d6132d8565b5b82820690509291505056fea2646970667358221220242c085cb41488e6b8b919af83740bd5ab8f22ec0956d147e2ac7021febf312364736f6c63430008110033",
  "immutableReferences": {},
  "source": "// SPDX-License-Identifier: MIT\npragma solidity ^0.8.4;\n\nimport \"@openzeppelin/contracts/token/ERC721/extensions/ERC721URIStorage.sol\";\nimport \"./GymStore.sol\";\n\ncontract GymSubscription is ERC721URIStorage {\n    GymStore private _gymStore;\n    uint256 serviceId = 0;\n\n    struct storeSubscription {\n        uint256 tokenId;\n        string ipfsHash;\n        string imgUrl;\n        address owner;\n        uint256 createdAt; // timestamp\n        uint256 invalidAfter; // timestamp after which service is invalid\n    }\n\n    storeSubscription[] subscriptions;\n\n    constructor(address gymStoreContract) ERC721(\"GymSubscriptionNFT\", \"GSFT\") {\n        _gymStore = GymStore(gymStoreContract);\n    }\n\n    function createSubscription(\n        string memory ipfsHash,\n        string memory imgUrl,\n        address ownerAddress,\n        uint256 invalidAfter\n    ) public {\n        if (ownerAddress == address(0)) {\n            ownerAddress = msg.sender;\n        }\n\n        uint256 sid = subscriptions.length;\n        storeSubscription memory nextSub = storeSubscription(\n            sid,\n            ipfsHash,\n            imgUrl,\n            ownerAddress,\n            block.timestamp,\n            invalidAfter\n        );\n\n        // _transfer(msg.sender, _gymStore, tokenId);\n        subscriptions.push(nextSub);\n        _mint(msg.sender, serviceId);\n        serviceId++;\n    }\n\n    function makePaymentToStore(uint256 val) public {\n        address storeOwner = _gymStore.getStoreOwner(\n            _gymStore.getStoreNumber()\n        );\n        payable(storeOwner).transfer(val);\n    }\n\n    function hasStoreSubscription(address userAddr) public view returns (bool) {\n        for (uint256 i = 0; i < serviceId; i++) {\n            if (subscriptions[i].owner == userAddr) {\n                return true;\n            }\n        }\n        return false;\n    }\n\n    function GetStoreIdForSubscription() public view returns (uint256) {\n        return _gymStore.getStoreNumber();\n    }\n\n    function GetStoreAddressForSubscription(uint256 _storeId)\n        public\n        view\n        returns (\n            uint256,\n            string memory,\n            address,\n            uint256,\n            address[] memory\n        )\n    {\n        return _gymStore.getStore(_storeId);\n    }\n\n    function transferSubscription(uint256 sId, address transferAddr)\n        public\n        returns (bool)\n    {\n        for (uint256 i = 0; i < serviceId; i++) {\n            if (subscriptions[i].tokenId == sId) {\n                // make the transfer now\n                subscriptions[i].owner = transferAddr;\n                return true;\n            }\n        }\n        return false;\n    }\n}\n",
  "sourcePath": "/Users/sagaranand/Documents/workspace-open/allfit/_backend/contracts/GymSubscription.sol",
  "compiler": {
    "name": "solc",
    "version": "0.8.17+commit.8df45f5f.Emscripten.clang"
  },
  "schemaVersion": "3.4.10",
  "updatedAt": "2022-11-07T16:16:27.187Z",
  "networkType": "ethereum",
  "devdoc": {
    "kind": "dev",
    "methods": {
      "approve(address,uint256)": {
        "details": "See {IERC721-approve}."
      },
      "balanceOf(address)": {
        "details": "See {IERC721-balanceOf}."
      },
      "getApproved(uint256)": {
        "details": "See {IERC721-getApproved}."
      },
      "isApprovedForAll(address,address)": {
        "details": "See {IERC721-isApprovedForAll}."
      },
      "name()": {
        "details": "See {IERC721Metadata-name}."
      },
      "ownerOf(uint256)": {
        "details": "See {IERC721-ownerOf}."
      },
      "safeTransferFrom(address,address,uint256)": {
        "details": "See {IERC721-safeTransferFrom}."
      },
      "safeTransferFrom(address,address,uint256,bytes)": {
        "details": "See {IERC721-safeTransferFrom}."
      },
      "setApprovalForAll(address,bool)": {
        "details": "See {IERC721-setApprovalForAll}."
      },
      "supportsInterface(bytes4)": {
        "details": "See {IERC165-supportsInterface}."
      },
      "symbol()": {
        "details": "See {IERC721Metadata-symbol}."
      },
      "tokenURI(uint256)": {
        "details": "See {IERC721Metadata-tokenURI}."
      },
      "transferFrom(address,address,uint256)": {
        "details": "See {IERC721-transferFrom}."
      }
    },
    "version": 1
  },
  "userdoc": {
    "kind": "user",
    "methods": {},
    "version": 1
  }
}