{
  "contractName": "GymSubscription",
  "abi": [
    {
      "inputs": [
        {
          "internalType": "address",
          "name": "gymStoreContract",
          "type": "address"
        }
      ],
      "stateMutability": "nonpayable",
      "type": "constructor"
    },
    {
      "anonymous": false,
      "inputs": [
        {
          "indexed": true,
          "internalType": "address",
          "name": "owner",
          "type": "address"
        },
        {
          "indexed": true,
          "internalType": "address",
          "name": "approved",
          "type": "address"
        },
        {
          "indexed": true,
          "internalType": "uint256",
          "name": "tokenId",
          "type": "uint256"
        }
      ],
      "name": "Approval",
      "type": "event"
    },
    {
      "anonymous": false,
      "inputs": [
        {
          "indexed": true,
          "internalType": "address",
          "name": "owner",
          "type": "address"
        },
        {
          "indexed": true,
          "internalType": "address",
          "name": "operator",
          "type": "address"
        },
        {
          "indexed": false,
          "internalType": "bool",
          "name": "approved",
          "type": "bool"
        }
      ],
      "name": "ApprovalForAll",
      "type": "event"
    },
    {
      "anonymous": false,
      "inputs": [
        {
          "indexed": true,
          "internalType": "address",
          "name": "from",
          "type": "address"
        },
        {
          "indexed": true,
          "internalType": "address",
          "name": "to",
          "type": "address"
        },
        {
          "indexed": true,
          "internalType": "uint256",
          "name": "tokenId",
          "type": "uint256"
        }
      ],
      "name": "Transfer",
      "type": "event"
    },
    {
      "inputs": [
        {
          "internalType": "address",
          "name": "to",
          "type": "address"
        },
        {
          "internalType": "uint256",
          "name": "tokenId",
          "type": "uint256"
        }
      ],
      "name": "approve",
      "outputs": [],
      "stateMutability": "nonpayable",
      "type": "function"
    },
    {
      "inputs": [
        {
          "internalType": "address",
          "name": "owner",
          "type": "address"
        }
      ],
      "name": "balanceOf",
      "outputs": [
        {
          "internalType": "uint256",
          "name": "",
          "type": "uint256"
        }
      ],
      "stateMutability": "view",
      "type": "function",
      "constant": true
    },
    {
      "inputs": [
        {
          "internalType": "uint256",
          "name": "tokenId",
          "type": "uint256"
        }
      ],
      "name": "getApproved",
      "outputs": [
        {
          "internalType": "address",
          "name": "",
          "type": "address"
        }
      ],
      "stateMutability": "view",
      "type": "function",
      "constant": true
    },
    {
      "inputs": [
        {
          "internalType": "address",
          "name": "owner",
          "type": "address"
        },
        {
          "internalType": "address",
          "name": "operator",
          "type": "address"
        }
      ],
      "name": "isApprovedForAll",
      "outputs": [
        {
          "internalType": "bool",
          "name": "",
          "type": "bool"
        }
      ],
      "stateMutability": "view",
      "type": "function",
      "constant": true
    },
    {
      "inputs": [],
      "name": "name",
      "outputs": [
        {
          "internalType": "string",
          "name": "",
          "type": "string"
        }
      ],
      "stateMutability": "view",
      "type": "function",
      "constant": true
    },
    {
      "inputs": [
        {
          "internalType": "uint256",
          "name": "tokenId",
          "type": "uint256"
        }
      ],
      "name": "ownerOf",
      "outputs": [
        {
          "internalType": "address",
          "name": "",
          "type": "address"
        }
      ],
      "stateMutability": "view",
      "type": "function",
      "constant": true
    },
    {
      "inputs": [
        {
          "internalType": "address",
          "name": "from",
          "type": "address"
        },
        {
          "internalType": "address",
          "name": "to",
          "type": "address"
        },
        {
          "internalType": "uint256",
          "name": "tokenId",
          "type": "uint256"
        }
      ],
      "name": "safeTransferFrom",
      "outputs": [],
      "stateMutability": "nonpayable",
      "type": "function"
    },
    {
      "inputs": [
        {
          "internalType": "address",
          "name": "from",
          "type": "address"
        },
        {
          "internalType": "address",
          "name": "to",
          "type": "address"
        },
        {
          "internalType": "uint256",
          "name": "tokenId",
          "type": "uint256"
        },
        {
          "internalType": "bytes",
          "name": "data",
          "type": "bytes"
        }
      ],
      "name": "safeTransferFrom",
      "outputs": [],
      "stateMutability": "nonpayable",
      "type": "function"
    },
    {
      "inputs": [
        {
          "internalType": "address",
          "name": "operator",
          "type": "address"
        },
        {
          "internalType": "bool",
          "name": "approved",
          "type": "bool"
        }
      ],
      "name": "setApprovalForAll",
      "outputs": [],
      "stateMutability": "nonpayable",
      "type": "function"
    },
    {
      "inputs": [
        {
          "internalType": "bytes4",
          "name": "interfaceId",
          "type": "bytes4"
        }
      ],
      "name": "supportsInterface",
      "outputs": [
        {
          "internalType": "bool",
          "name": "",
          "type": "bool"
        }
      ],
      "stateMutability": "view",
      "type": "function",
      "constant": true
    },
    {
      "inputs": [],
      "name": "symbol",
      "outputs": [
        {
          "internalType": "string",
          "name": "",
          "type": "string"
        }
      ],
      "stateMutability": "view",
      "type": "function",
      "constant": true
    },
    {
      "inputs": [
        {
          "internalType": "uint256",
          "name": "tokenId",
          "type": "uint256"
        }
      ],
      "name": "tokenURI",
      "outputs": [
        {
          "internalType": "string",
          "name": "",
          "type": "string"
        }
      ],
      "stateMutability": "view",
      "type": "function",
      "constant": true
    },
    {
      "inputs": [
        {
          "internalType": "address",
          "name": "from",
          "type": "address"
        },
        {
          "internalType": "address",
          "name": "to",
          "type": "address"
        },
        {
          "internalType": "uint256",
          "name": "tokenId",
          "type": "uint256"
        }
      ],
      "name": "transferFrom",
      "outputs": [],
      "stateMutability": "nonpayable",
      "type": "function"
    },
    {
      "inputs": [
        {
          "internalType": "string",
          "name": "ipfsHash",
          "type": "string"
        },
        {
          "internalType": "string",
          "name": "image",
          "type": "string"
        },
        {
          "internalType": "address",
          "name": "ownerAddress",
          "type": "address"
        },
        {
          "internalType": "uint256",
          "name": "invalidAfter",
          "type": "uint256"
        }
      ],
      "name": "createSubscription",
      "outputs": [],
      "stateMutability": "nonpayable",
      "type": "function"
    },
    {
      "inputs": [
        {
          "internalType": "uint256",
          "name": "_storeId",
          "type": "uint256"
        }
      ],
      "name": "GetSubscriptionData",
      "outputs": [
        {
          "internalType": "uint256",
          "name": "",
          "type": "uint256"
        },
        {
          "internalType": "string",
          "name": "",
          "type": "string"
        },
        {
          "internalType": "string",
          "name": "",
          "type": "string"
        },
        {
          "internalType": "address",
          "name": "",
          "type": "address"
        },
        {
          "internalType": "uint256",
          "name": "",
          "type": "uint256"
        }
      ],
      "stateMutability": "view",
      "type": "function",
      "constant": true
    },
    {
      "inputs": [
        {
          "internalType": "uint256",
          "name": "val",
          "type": "uint256"
        }
      ],
      "name": "makePaymentToStore",
      "outputs": [],
      "stateMutability": "nonpayable",
      "type": "function"
    },
    {
      "inputs": [
        {
          "internalType": "address",
          "name": "userAddr",
          "type": "address"
        }
      ],
      "name": "hasStoreSubscription",
      "outputs": [
        {
          "internalType": "bool",
          "name": "",
          "type": "bool"
        }
      ],
      "stateMutability": "view",
      "type": "function",
      "constant": true
    },
    {
      "inputs": [],
      "name": "GetStoreIdForSubscription",
      "outputs": [
        {
          "internalType": "uint256",
          "name": "",
          "type": "uint256"
        }
      ],
      "stateMutability": "view",
      "type": "function",
      "constant": true
    },
    {
      "inputs": [
        {
          "internalType": "uint256",
          "name": "_storeId",
          "type": "uint256"
        }
      ],
      "name": "GetStoreAddressForSubscription",
      "outputs": [
        {
          "internalType": "uint256",
          "name": "",
          "type": "uint256"
        },
        {
          "internalType": "string",
          "name": "",
          "type": "string"
        },
        {
          "internalType": "address",
          "name": "",
          "type": "address"
        },
        {
          "internalType": "uint256",
          "name": "",
          "type": "uint256"
        },
        {
          "internalType": "address[]",
          "name": "",
          "type": "address[]"
        }
      ],
      "stateMutability": "view",
      "type": "function",
      "constant": true
    },
    {
      "inputs": [
        {
          "internalType": "uint256",
          "name": "sId",
          "type": "uint256"
        },
        {
          "internalType": "address",
          "name": "transferAddr",
          "type": "address"
        }
      ],
      "name": "transferSubscription",
      "outputs": [
        {
          "internalType": "bool",
          "name": "",
          "type": "bool"
        }
      ],
      "stateMutability": "nonpayable",
      "type": "function"
    }
  ],
  "bytecode": "0x608060405260016008553480156200001657600080fd5b5060405162003c7c38038062003c7c83398181016040528101906200003c919062000180565b6040518060400160405280601281526020017f47796d537562736372697074696f6e4e465400000000000000000000000000008152506040518060400160405280600481526020017f47534654000000000000000000000000000000000000000000000000000000008152508160009081620000b991906200042c565b508060019081620000cb91906200042c565b50505080600760006101000a81548173ffffffffffffffffffffffffffffffffffffffff021916908373ffffffffffffffffffffffffffffffffffffffff1602179055505062000513565b600080fd5b600073ffffffffffffffffffffffffffffffffffffffff82169050919050565b600062000148826200011b565b9050919050565b6200015a816200013b565b81146200016657600080fd5b50565b6000815190506200017a816200014f565b92915050565b60006020828403121562000199576200019862000116565b5b6000620001a98482850162000169565b91505092915050565b600081519050919050565b7f4e487b7100000000000000000000000000000000000000000000000000000000600052604160045260246000fd5b7f4e487b7100000000000000000000000000000000000000000000000000000000600052602260045260246000fd5b600060028204905060018216806200023457607f821691505b6020821081036200024a5762000249620001ec565b5b50919050565b60008190508160005260206000209050919050565b60006020601f8301049050919050565b600082821b905092915050565b600060088302620002b47fffffffffffffffffffffffffffffffffffffffffffffffffffffffffffffffff8262000275565b620002c0868362000275565b95508019841693508086168417925050509392505050565b6000819050919050565b6000819050919050565b60006200030d620003076200030184620002d8565b620002e2565b620002d8565b9050919050565b6000819050919050565b6200032983620002ec565b62000341620003388262000314565b84845462000282565b825550505050565b600090565b6200035862000349565b620003658184846200031e565b505050565b5b818110156200038d57620003816000826200034e565b6001810190506200036b565b5050565b601f821115620003dc57620003a68162000250565b620003b18462000265565b81016020851015620003c1578190505b620003d9620003d08562000265565b8301826200036a565b50505b505050565b600082821c905092915050565b60006200040160001984600802620003e1565b1980831691505092915050565b60006200041c8383620003ee565b9150826002028217905092915050565b6200043782620001b2565b67ffffffffffffffff811115620004535762000452620001bd565b5b6200045f82546200021b565b6200046c82828562000391565b600060209050601f831160018114620004a457600084156200048f578287015190505b6200049b85826200040e565b8655506200050b565b601f198416620004b48662000250565b60005b82811015620004de57848901518255600182019150602085019450602081019050620004b7565b86831015620004fe5784890151620004fa601f891682620003ee565b8355505b6001600288020188555050505b505050505050565b61375980620005236000396000f3fe608060405234801561001057600080fd5b506004361061012c5760003560e01c806395d89b41116100ad578063b88d4fde11610071578063b88d4fde14610369578063c87b56dd14610385578063e985e9c5146103b5578063ee1f45f7146103e5578063ef50f6a8146104035761012c565b806395d89b41146102c75780639e339e69146102e5578063a0ed6bc614610301578063a22cb46514610331578063ad2eef0e1461034d5761012c565b806323b872dd116100f457806323b872dd146101ff57806342842e0e1461021b5780636195b657146102375780636352211e1461026757806370a08231146102975761012c565b806301ffc9a71461013157806306fdde0314610161578063081812fc1461017f578063095ea7b3146101af578063114e2e41146101cb575b600080fd5b61014b60048036038101906101469190612066565b610437565b60405161015891906120ae565b60405180910390f35b610169610519565b6040516101769190612159565b60405180910390f35b610199600480360381019061019491906121b1565b6105ab565b6040516101a6919061221f565b60405180910390f35b6101c960048036038101906101c49190612266565b6105f1565b005b6101e560048036038101906101e091906121b1565b610708565b6040516101f6959493929190612373565b60405180910390f35b610219600480360381019061021491906123d4565b6107c5565b005b610235600480360381019061023091906123d4565b610825565b005b610251600480360381019061024c9190612427565b610845565b60405161025e91906120ae565b60405180910390f35b610281600480360381019061027c91906121b1565b6108f7565b60405161028e919061221f565b60405180910390f35b6102b160048036038101906102ac9190612427565b6109a8565b6040516102be9190612454565b60405180910390f35b6102cf610a5f565b6040516102dc9190612159565b60405180910390f35b6102ff60048036038101906102fa91906125a4565b610af1565b005b61031b60048036038101906103169190612643565b610c71565b60405161032891906120ae565b60405180910390f35b61034b600480360381019061034691906126af565b610d3c565b005b610367600480360381019061036291906121b1565b610d52565b005b610383600480360381019061037e9190612790565b610ecd565b005b61039f600480360381019061039a91906121b1565b610f2f565b6040516103ac9190612159565b60405180910390f35b6103cf60048036038101906103ca9190612813565b611041565b6040516103dc91906120ae565b60405180910390f35b6103ed6110d5565b6040516103fa9190612454565b60405180910390f35b61041d600480360381019061041891906121b1565b61116d565b60405161042e959493929190612853565b60405180910390f35b60007f80ac58cd000000000000000000000000000000000000000000000000000000007bffffffffffffffffffffffffffffffffffffffffffffffffffffffff1916827bffffffffffffffffffffffffffffffffffffffffffffffffffffffff1916148061050257507f5b5e139f000000000000000000000000000000000000000000000000000000007bffffffffffffffffffffffffffffffffffffffffffffffffffffffff1916827bffffffffffffffffffffffffffffffffffffffffffffffffffffffff1916145b8061051257506105118261137c565b5b9050919050565b606060008054610528906128e3565b80601f0160208091040260200160405190810160405280929190818152602001828054610554906128e3565b80156105a15780601f10610576576101008083540402835291602001916105a1565b820191906000526020600020905b81548152906001019060200180831161058457829003601f168201915b5050505050905090565b60006105b6826113e6565b6004600083815260200190815260200160002060009054906101000a900473ffffffffffffffffffffffffffffffffffffffff169050919050565b60006105fc826108f7565b90508073ffffffffffffffffffffffffffffffffffffffff168373ffffffffffffffffffffffffffffffffffffffff160361066c576040517f08c379a000000000000000000000000000000000000000000000000000000000815260040161066390612986565b60405180910390fd5b8073ffffffffffffffffffffffffffffffffffffffff1661068b611431565b73ffffffffffffffffffffffffffffffffffffffff1614806106ba57506106b9816106b4611431565b611041565b5b6106f9576040517f08c379a00000000000000000000000000000000000000000000000000000000081526004016106f090612a18565b60405180910390fd5b6107038383611439565b505050565b600060606000806060600760009054906101000a900473ffffffffffffffffffffffffffffffffffffffff1673ffffffffffffffffffffffffffffffffffffffff166383403120876040518263ffffffff1660e01b815260040161076c9190612454565b600060405180830381865afa158015610789573d6000803e3d6000fd5b505050506040513d6000823e3d601f19601f820116820180604052508101906107b29190612b9a565b9450945094509450945091939590929450565b6107d66107d0611431565b826114f2565b610815576040517f08c379a000000000000000000000000000000000000000000000000000000000815260040161080c90612cbf565b60405180910390fd5b610820838383611587565b505050565b61084083838360405180602001604052806000815250610ecd565b505050565b600080600090505b6008548110156108ec578273ffffffffffffffffffffffffffffffffffffffff166009828154811061088257610881612cdf565b5b906000526020600020906006020160030160009054906101000a900473ffffffffffffffffffffffffffffffffffffffff1673ffffffffffffffffffffffffffffffffffffffff16036108d95760019150506108f2565b80806108e490612d3d565b91505061084d565b50600090505b919050565b6000806002600084815260200190815260200160002060009054906101000a900473ffffffffffffffffffffffffffffffffffffffff169050600073ffffffffffffffffffffffffffffffffffffffff168173ffffffffffffffffffffffffffffffffffffffff160361099f576040517f08c379a000000000000000000000000000000000000000000000000000000000815260040161099690612dd1565b60405180910390fd5b80915050919050565b60008073ffffffffffffffffffffffffffffffffffffffff168273ffffffffffffffffffffffffffffffffffffffff1603610a18576040517f08c379a0000000000000000000000000000000000000000000000000000000008152600401610a0f90612e63565b60405180910390fd5b600360008373ffffffffffffffffffffffffffffffffffffffff1673ffffffffffffffffffffffffffffffffffffffff168152602001908152602001600020549050919050565b606060018054610a6e906128e3565b80601f0160208091040260200160405190810160405280929190818152602001828054610a9a906128e3565b8015610ae75780601f10610abc57610100808354040283529160200191610ae7565b820191906000526020600020905b815481529060010190602001808311610aca57829003601f168201915b5050505050905090565b600073ffffffffffffffffffffffffffffffffffffffff168273ffffffffffffffffffffffffffffffffffffffff1603610b29573391505b6000600980549050905060006040518060c001604052808381526020018781526020018681526020018573ffffffffffffffffffffffffffffffffffffffff1681526020014281526020018481525090506009819080600181540180825580915050600190039060005260206000209060060201600090919091909150600082015181600001556020820151816001019081610bc5919061302f565b506040820151816002019081610bdb919061302f565b5060608201518160030160006101000a81548173ffffffffffffffffffffffffffffffffffffffff021916908373ffffffffffffffffffffffffffffffffffffffff1602179055506080820151816004015560a082015181600501555050610c45336008546117ed565b610c51600854876119c6565b60086000815480929190610c6490612d3d565b9190505550505050505050565b600080600090505b600854811015610d30578360098281548110610c9857610c97612cdf565b5b90600052602060002090600602016000015403610d1d578260098281548110610cc457610cc3612cdf565b5b906000526020600020906006020160030160006101000a81548173ffffffffffffffffffffffffffffffffffffffff021916908373ffffffffffffffffffffffffffffffffffffffff1602179055506001915050610d36565b8080610d2890612d3d565b915050610c79565b50600090505b92915050565b610d4e610d47611431565b8383611a33565b5050565b6000600760009054906101000a900473ffffffffffffffffffffffffffffffffffffffff1673ffffffffffffffffffffffffffffffffffffffff1663603acf10600760009054906101000a900473ffffffffffffffffffffffffffffffffffffffff1673ffffffffffffffffffffffffffffffffffffffff1663b8acdb016040518163ffffffff1660e01b8152600401602060405180830381865afa158015610dff573d6000803e3d6000fd5b505050506040513d601f19601f82011682018060405250810190610e239190613101565b6040518263ffffffff1660e01b8152600401610e3f9190612454565b602060405180830381865afa158015610e5c573d6000803e3d6000fd5b505050506040513d601f19601f82011682018060405250810190610e80919061312e565b90508073ffffffffffffffffffffffffffffffffffffffff166108fc839081150290604051600060405180830381858888f19350505050158015610ec8573d6000803e3d6000fd5b505050565b610ede610ed8611431565b836114f2565b610f1d576040517f08c379a0000000000000000000000000000000000000000000000000000000008152600401610f1490612cbf565b60405180910390fd5b610f2984848484611b9f565b50505050565b6060610f3a826113e6565b6000600660008481526020019081526020016000208054610f5a906128e3565b80601f0160208091040260200160405190810160405280929190818152602001828054610f86906128e3565b8015610fd35780601f10610fa857610100808354040283529160200191610fd3565b820191906000526020600020905b815481529060010190602001808311610fb657829003601f168201915b505050505090506000610fe4611bfb565b90506000815103610ff957819250505061103c565b60008251111561102e578082604051602001611016929190613197565b6040516020818303038152906040529250505061103c565b61103784611c12565b925050505b919050565b6000600560008473ffffffffffffffffffffffffffffffffffffffff1673ffffffffffffffffffffffffffffffffffffffff16815260200190815260200160002060008373ffffffffffffffffffffffffffffffffffffffff1673ffffffffffffffffffffffffffffffffffffffff16815260200190815260200160002060009054906101000a900460ff16905092915050565b6000600760009054906101000a900473ffffffffffffffffffffffffffffffffffffffff1673ffffffffffffffffffffffffffffffffffffffff1663b8acdb016040518163ffffffff1660e01b8152600401602060405180830381865afa158015611144573d6000803e3d6000fd5b505050506040513d601f19601f820116820180604052508101906111689190613101565b905090565b60006060806000806009868154811061118957611188612cdf565b5b906000526020600020906006020160000154600987815481106111af576111ae612cdf565b5b9060005260206000209060060201600101600988815481106111d4576111d3612cdf565b5b9060005260206000209060060201600201600989815481106111f9576111f8612cdf565b5b906000526020600020906006020160030160009054906101000a900473ffffffffffffffffffffffffffffffffffffffff1660098a8154811061123f5761123e612cdf565b5b90600052602060002090600602016005015483805461125d906128e3565b80601f0160208091040260200160405190810160405280929190818152602001828054611289906128e3565b80156112d65780601f106112ab576101008083540402835291602001916112d6565b820191906000526020600020905b8154815290600101906020018083116112b957829003601f168201915b505050505093508280546112e9906128e3565b80601f0160208091040260200160405190810160405280929190818152602001828054611315906128e3565b80156113625780601f1061133757610100808354040283529160200191611362565b820191906000526020600020905b81548152906001019060200180831161134557829003601f168201915b505050505092509450945094509450945091939590929450565b60007f01ffc9a7000000000000000000000000000000000000000000000000000000007bffffffffffffffffffffffffffffffffffffffffffffffffffffffff1916827bffffffffffffffffffffffffffffffffffffffffffffffffffffffff1916149050919050565b6113ef81611c7a565b61142e576040517f08c379a000000000000000000000000000000000000000000000000000000000815260040161142590612dd1565b60405180910390fd5b50565b600033905090565b816004600083815260200190815260200160002060006101000a81548173ffffffffffffffffffffffffffffffffffffffff021916908373ffffffffffffffffffffffffffffffffffffffff160217905550808273ffffffffffffffffffffffffffffffffffffffff166114ac836108f7565b73ffffffffffffffffffffffffffffffffffffffff167f8c5be1e5ebec7d5bd14f71427d1e84f3dd0314c0f7b2291e5b200ac8c7c3b92560405160405180910390a45050565b6000806114fe836108f7565b90508073ffffffffffffffffffffffffffffffffffffffff168473ffffffffffffffffffffffffffffffffffffffff161480611540575061153f8185611041565b5b8061157e57508373ffffffffffffffffffffffffffffffffffffffff16611566846105ab565b73ffffffffffffffffffffffffffffffffffffffff16145b91505092915050565b8273ffffffffffffffffffffffffffffffffffffffff166115a7826108f7565b73ffffffffffffffffffffffffffffffffffffffff16146115fd576040517f08c379a00000000000000000000000000000000000000000000000000000000081526004016115f49061322d565b60405180910390fd5b600073ffffffffffffffffffffffffffffffffffffffff168273ffffffffffffffffffffffffffffffffffffffff160361166c576040517f08c379a0000000000000000000000000000000000000000000000000000000008152600401611663906132bf565b60405180910390fd5b611677838383611ce6565b611682600082611439565b6001600360008573ffffffffffffffffffffffffffffffffffffffff1673ffffffffffffffffffffffffffffffffffffffff16815260200190815260200160002060008282546116d291906132df565b925050819055506001600360008473ffffffffffffffffffffffffffffffffffffffff1673ffffffffffffffffffffffffffffffffffffffff16815260200190815260200160002060008282546117299190613313565b92505081905550816002600083815260200190815260200160002060006101000a81548173ffffffffffffffffffffffffffffffffffffffff021916908373ffffffffffffffffffffffffffffffffffffffff160217905550808273ffffffffffffffffffffffffffffffffffffffff168473ffffffffffffffffffffffffffffffffffffffff167fddf252ad1be2c89b69c2b068fc378daa952ba7f163c4a11628f55a4df523b3ef60405160405180910390a46117e8838383611ceb565b505050565b600073ffffffffffffffffffffffffffffffffffffffff168273ffffffffffffffffffffffffffffffffffffffff160361185c576040517f08c379a000000000000000000000000000000000000000000000000000000000815260040161185390613393565b60405180910390fd5b61186581611c7a565b156118a5576040517f08c379a000000000000000000000000000000000000000000000000000000000815260040161189c906133ff565b60405180910390fd5b6118b160008383611ce6565b6001600360008473ffffffffffffffffffffffffffffffffffffffff1673ffffffffffffffffffffffffffffffffffffffff16815260200190815260200160002060008282546119019190613313565b92505081905550816002600083815260200190815260200160002060006101000a81548173ffffffffffffffffffffffffffffffffffffffff021916908373ffffffffffffffffffffffffffffffffffffffff160217905550808273ffffffffffffffffffffffffffffffffffffffff16600073ffffffffffffffffffffffffffffffffffffffff167fddf252ad1be2c89b69c2b068fc378daa952ba7f163c4a11628f55a4df523b3ef60405160405180910390a46119c260008383611ceb565b5050565b6119cf82611c7a565b611a0e576040517f08c379a0000000000000000000000000000000000000000000000000000000008152600401611a0590613491565b60405180910390fd5b80600660008481526020019081526020016000209081611a2e919061302f565b505050565b8173ffffffffffffffffffffffffffffffffffffffff168373ffffffffffffffffffffffffffffffffffffffff1603611aa1576040517f08c379a0000000000000000000000000000000000000000000000000000000008152600401611a98906134fd565b60405180910390fd5b80600560008573ffffffffffffffffffffffffffffffffffffffff1673ffffffffffffffffffffffffffffffffffffffff16815260200190815260200160002060008473ffffffffffffffffffffffffffffffffffffffff1673ffffffffffffffffffffffffffffffffffffffff16815260200190815260200160002060006101000a81548160ff0219169083151502179055508173ffffffffffffffffffffffffffffffffffffffff168373ffffffffffffffffffffffffffffffffffffffff167f17307eab39ab6107e8899845ad3d59bd9653f200f220920489ca2b5937696c3183604051611b9291906120ae565b60405180910390a3505050565b611baa848484611587565b611bb684848484611cf0565b611bf5576040517f08c379a0000000000000000000000000000000000000000000000000000000008152600401611bec9061358f565b60405180910390fd5b50505050565b606060405180602001604052806000815250905090565b6060611c1d826113e6565b6000611c27611bfb565b90506000815111611c475760405180602001604052806000815250611c72565b80611c5184611e77565b604051602001611c62929190613197565b6040516020818303038152906040525b915050919050565b60008073ffffffffffffffffffffffffffffffffffffffff166002600084815260200190815260200160002060009054906101000a900473ffffffffffffffffffffffffffffffffffffffff1673ffffffffffffffffffffffffffffffffffffffff1614159050919050565b505050565b505050565b6000611d118473ffffffffffffffffffffffffffffffffffffffff16611fd7565b15611e6a578373ffffffffffffffffffffffffffffffffffffffff1663150b7a02611d3a611431565b8786866040518563ffffffff1660e01b8152600401611d5c9493929190613604565b6020604051808303816000875af1925050508015611d9857506040513d601f19601f82011682018060405250810190611d959190613665565b60015b611e1a573d8060008114611dc8576040519150601f19603f3d011682016040523d82523d6000602084013e611dcd565b606091505b506000815103611e12576040517f08c379a0000000000000000000000000000000000000000000000000000000008152600401611e099061358f565b60405180910390fd5b805181602001fd5b63150b7a0260e01b7bffffffffffffffffffffffffffffffffffffffffffffffffffffffff1916817bffffffffffffffffffffffffffffffffffffffffffffffffffffffff191614915050611e6f565b600190505b949350505050565b606060008203611ebe576040518060400160405280600181526020017f30000000000000000000000000000000000000000000000000000000000000008152509050611fd2565b600082905060005b60008214611ef0578080611ed990612d3d565b915050600a82611ee991906136c1565b9150611ec6565b60008167ffffffffffffffff811115611f0c57611f0b612479565b5b6040519080825280601f01601f191660200182016040528015611f3e5781602001600182028036833780820191505090505b5090505b60008514611fcb57600182611f5791906132df565b9150600a85611f6691906136f2565b6030611f729190613313565b60f81b818381518110611f8857611f87612cdf565b5b60200101907effffffffffffffffffffffffffffffffffffffffffffffffffffffffffffff1916908160001a905350600a85611fc491906136c1565b9450611f42565b8093505050505b919050565b6000808273ffffffffffffffffffffffffffffffffffffffff163b119050919050565b6000604051905090565b600080fd5b600080fd5b60007fffffffff0000000000000000000000000000000000000000000000000000000082169050919050565b6120438161200e565b811461204e57600080fd5b50565b6000813590506120608161203a565b92915050565b60006020828403121561207c5761207b612004565b5b600061208a84828501612051565b91505092915050565b60008115159050919050565b6120a881612093565b82525050565b60006020820190506120c3600083018461209f565b92915050565b600081519050919050565b600082825260208201905092915050565b60005b838110156121035780820151818401526020810190506120e8565b60008484015250505050565b6000601f19601f8301169050919050565b600061212b826120c9565b61213581856120d4565b93506121458185602086016120e5565b61214e8161210f565b840191505092915050565b600060208201905081810360008301526121738184612120565b905092915050565b6000819050919050565b61218e8161217b565b811461219957600080fd5b50565b6000813590506121ab81612185565b92915050565b6000602082840312156121c7576121c6612004565b5b60006121d58482850161219c565b91505092915050565b600073ffffffffffffffffffffffffffffffffffffffff82169050919050565b6000612209826121de565b9050919050565b612219816121fe565b82525050565b60006020820190506122346000830184612210565b92915050565b612243816121fe565b811461224e57600080fd5b50565b6000813590506122608161223a565b92915050565b6000806040838503121561227d5761227c612004565b5b600061228b85828601612251565b925050602061229c8582860161219c565b9150509250929050565b6122af8161217b565b82525050565b600081519050919050565b600082825260208201905092915050565b6000819050602082019050919050565b6122ea816121fe565b82525050565b60006122fc83836122e1565b60208301905092915050565b6000602082019050919050565b6000612320826122b5565b61232a81856122c0565b9350612335836122d1565b8060005b8381101561236657815161234d88826122f0565b975061235883612308565b925050600181019050612339565b5085935050505092915050565b600060a08201905061238860008301886122a6565b818103602083015261239a8187612120565b90506123a96040830186612210565b6123b660608301856122a6565b81810360808301526123c88184612315565b90509695505050505050565b6000806000606084860312156123ed576123ec612004565b5b60006123fb86828701612251565b935050602061240c86828701612251565b925050604061241d8682870161219c565b9150509250925092565b60006020828403121561243d5761243c612004565b5b600061244b84828501612251565b91505092915050565b600060208201905061246960008301846122a6565b92915050565b600080fd5b600080fd5b7f4e487b7100000000000000000000000000000000000000000000000000000000600052604160045260246000fd5b6124b18261210f565b810181811067ffffffffffffffff821117156124d0576124cf612479565b5b80604052505050565b60006124e3611ffa565b90506124ef82826124a8565b919050565b600067ffffffffffffffff82111561250f5761250e612479565b5b6125188261210f565b9050602081019050919050565b82818337600083830152505050565b6000612547612542846124f4565b6124d9565b90508281526020810184848401111561256357612562612474565b5b61256e848285612525565b509392505050565b600082601f83011261258b5761258a61246f565b5b813561259b848260208601612534565b91505092915050565b600080600080608085870312156125be576125bd612004565b5b600085013567ffffffffffffffff8111156125dc576125db612009565b5b6125e887828801612576565b945050602085013567ffffffffffffffff81111561260957612608612009565b5b61261587828801612576565b935050604061262687828801612251565b92505060606126378782880161219c565b91505092959194509250565b6000806040838503121561265a57612659612004565b5b60006126688582860161219c565b925050602061267985828601612251565b9150509250929050565b61268c81612093565b811461269757600080fd5b50565b6000813590506126a981612683565b92915050565b600080604083850312156126c6576126c5612004565b5b60006126d485828601612251565b92505060206126e58582860161269a565b9150509250929050565b600067ffffffffffffffff82111561270a57612709612479565b5b6127138261210f565b9050602081019050919050565b600061273361272e846126ef565b6124d9565b90508281526020810184848401111561274f5761274e612474565b5b61275a848285612525565b509392505050565b600082601f8301126127775761277661246f565b5b8135612787848260208601612720565b91505092915050565b600080600080608085870312156127aa576127a9612004565b5b60006127b887828801612251565b94505060206127c987828801612251565b93505060406127da8782880161219c565b925050606085013567ffffffffffffffff8111156127fb576127fa612009565b5b61280787828801612762565b91505092959194509250565b6000806040838503121561282a57612829612004565b5b600061283885828601612251565b925050602061284985828601612251565b9150509250929050565b600060a08201905061286860008301886122a6565b818103602083015261287a8187612120565b9050818103604083015261288e8186612120565b905061289d6060830185612210565b6128aa60808301846122a6565b9695505050505050565b7f4e487b7100000000000000000000000000000000000000000000000000000000600052602260045260246000fd5b600060028204905060018216806128fb57607f821691505b60208210810361290e5761290d6128b4565b5b50919050565b7f4552433732313a20617070726f76616c20746f2063757272656e74206f776e6560008201527f7200000000000000000000000000000000000000000000000000000000000000602082015250565b60006129706021836120d4565b915061297b82612914565b604082019050919050565b6000602082019050818103600083015261299f81612963565b9050919050565b7f4552433732313a20617070726f76652063616c6c6572206973206e6f7420746f60008201527f6b656e206f776e6572206e6f7220617070726f76656420666f7220616c6c0000602082015250565b6000612a02603e836120d4565b9150612a0d826129a6565b604082019050919050565b60006020820190508181036000830152612a31816129f5565b9050919050565b600081519050612a4781612185565b92915050565b6000612a60612a5b846124f4565b6124d9565b905082815260208101848484011115612a7c57612a7b612474565b5b612a878482856120e5565b509392505050565b600082601f830112612aa457612aa361246f565b5b8151612ab4848260208601612a4d565b91505092915050565b600081519050612acc8161223a565b92915050565b600067ffffffffffffffff821115612aed57612aec612479565b5b602082029050602081019050919050565b600080fd5b6000612b16612b1184612ad2565b6124d9565b90508083825260208201905060208402830185811115612b3957612b38612afe565b5b835b81811015612b625780612b4e8882612abd565b845260208401935050602081019050612b3b565b5050509392505050565b600082601f830112612b8157612b8061246f565b5b8151612b91848260208601612b03565b91505092915050565b600080600080600060a08688031215612bb657612bb5612004565b5b6000612bc488828901612a38565b955050602086015167ffffffffffffffff811115612be557612be4612009565b5b612bf188828901612a8f565b9450506040612c0288828901612abd565b9350506060612c1388828901612a38565b925050608086015167ffffffffffffffff811115612c3457612c33612009565b5b612c4088828901612b6c565b9150509295509295909350565b7f4552433732313a2063616c6c6572206973206e6f7420746f6b656e206f776e6560008201527f72206e6f7220617070726f766564000000000000000000000000000000000000602082015250565b6000612ca9602e836120d4565b9150612cb482612c4d565b604082019050919050565b60006020820190508181036000830152612cd881612c9c565b9050919050565b7f4e487b7100000000000000000000000000000000000000000000000000000000600052603260045260246000fd5b7f4e487b7100000000000000000000000000000000000000000000000000000000600052601160045260246000fd5b6000612d488261217b565b91507fffffffffffffffffffffffffffffffffffffffffffffffffffffffffffffffff8203612d7a57612d79612d0e565b5b600182019050919050565b7f4552433732313a20696e76616c696420746f6b656e2049440000000000000000600082015250565b6000612dbb6018836120d4565b9150612dc682612d85565b602082019050919050565b60006020820190508181036000830152612dea81612dae565b9050919050565b7f4552433732313a2061646472657373207a65726f206973206e6f74206120766160008201527f6c6964206f776e65720000000000000000000000000000000000000000000000602082015250565b6000612e4d6029836120d4565b9150612e5882612df1565b604082019050919050565b60006020820190508181036000830152612e7c81612e40565b9050919050565b60008190508160005260206000209050919050565b60006020601f8301049050919050565b600082821b905092915050565b600060088302612ee57fffffffffffffffffffffffffffffffffffffffffffffffffffffffffffffffff82612ea8565b612eef8683612ea8565b95508019841693508086168417925050509392505050565b6000819050919050565b6000612f2c612f27612f228461217b565b612f07565b61217b565b9050919050565b6000819050919050565b612f4683612f11565b612f5a612f5282612f33565b848454612eb5565b825550505050565b600090565b612f6f612f62565b612f7a818484612f3d565b505050565b5b81811015612f9e57612f93600082612f67565b600181019050612f80565b5050565b601f821115612fe357612fb481612e83565b612fbd84612e98565b81016020851015612fcc578190505b612fe0612fd885612e98565b830182612f7f565b50505b505050565b600082821c905092915050565b600061300660001984600802612fe8565b1980831691505092915050565b600061301f8383612ff5565b9150826002028217905092915050565b613038826120c9565b67ffffffffffffffff81111561305157613050612479565b5b61305b82546128e3565b613066828285612fa2565b600060209050601f8311600181146130995760008415613087578287015190505b6130918582613013565b8655506130f9565b601f1984166130a786612e83565b60005b828110156130cf578489015182556001820191506020850194506020810190506130aa565b868310156130ec57848901516130e8601f891682612ff5565b8355505b6001600288020188555050505b505050505050565b60006020828403121561311757613116612004565b5b600061312584828501612a38565b91505092915050565b60006020828403121561314457613143612004565b5b600061315284828501612abd565b91505092915050565b600081905092915050565b6000613171826120c9565b61317b818561315b565b935061318b8185602086016120e5565b80840191505092915050565b60006131a38285613166565b91506131af8284613166565b91508190509392505050565b7f4552433732313a207472616e736665722066726f6d20696e636f72726563742060008201527f6f776e6572000000000000000000000000000000000000000000000000000000602082015250565b60006132176025836120d4565b9150613222826131bb565b604082019050919050565b600060208201905081810360008301526132468161320a565b9050919050565b7f4552433732313a207472616e7366657220746f20746865207a65726f2061646460008201527f7265737300000000000000000000000000000000000000000000000000000000602082015250565b60006132a96024836120d4565b91506132b48261324d565b604082019050919050565b600060208201905081810360008301526132d88161329c565b9050919050565b60006132ea8261217b565b91506132f58361217b565b925082820390508181111561330d5761330c612d0e565b5b92915050565b600061331e8261217b565b91506133298361217b565b925082820190508082111561334157613340612d0e565b5b92915050565b7f4552433732313a206d696e7420746f20746865207a65726f2061646472657373600082015250565b600061337d6020836120d4565b915061338882613347565b602082019050919050565b600060208201905081810360008301526133ac81613370565b9050919050565b7f4552433732313a20746f6b656e20616c7265616479206d696e74656400000000600082015250565b60006133e9601c836120d4565b91506133f4826133b3565b602082019050919050565b60006020820190508181036000830152613418816133dc565b9050919050565b7f45524337323155524953746f726167653a2055524920736574206f66206e6f6e60008201527f6578697374656e7420746f6b656e000000000000000000000000000000000000602082015250565b600061347b602e836120d4565b91506134868261341f565b604082019050919050565b600060208201905081810360008301526134aa8161346e565b9050919050565b7f4552433732313a20617070726f766520746f2063616c6c657200000000000000600082015250565b60006134e76019836120d4565b91506134f2826134b1565b602082019050919050565b60006020820190508181036000830152613516816134da565b9050919050565b7f4552433732313a207472616e7366657220746f206e6f6e20455243373231526560008201527f63656976657220696d706c656d656e7465720000000000000000000000000000602082015250565b60006135796032836120d4565b91506135848261351d565b604082019050919050565b600060208201905081810360008301526135a88161356c565b9050919050565b600081519050919050565b600082825260208201905092915050565b60006135d6826135af565b6135e081856135ba565b93506135f08185602086016120e5565b6135f98161210f565b840191505092915050565b60006080820190506136196000830187612210565b6136266020830186612210565b61363360408301856122a6565b818103606083015261364581846135cb565b905095945050505050565b60008151905061365f8161203a565b92915050565b60006020828403121561367b5761367a612004565b5b600061368984828501613650565b91505092915050565b7f4e487b7100000000000000000000000000000000000000000000000000000000600052601260045260246000fd5b60006136cc8261217b565b91506136d78361217b565b9250826136e7576136e6613692565b5b828204905092915050565b60006136fd8261217b565b91506137088361217b565b92508261371857613717613692565b5b82820690509291505056fea264697066735822122018353e7c5572d8bda0920303160451f3125ed4b4c2adf4a3fe9891c71899ae7564736f6c63430008110033",
  "immutableReferences": {},
  "source": "// SPDX-License-Identifier: MIT\npragma solidity ^0.8.4;\n\nimport \"@openzeppelin/contracts/token/ERC721/extensions/ERC721URIStorage.sol\";\nimport \"@openzeppelin/contracts/utils/Strings.sol\";\nimport \"./GymStore.sol\";\n\ncontract GymSubscription is ERC721URIStorage {\n    GymStore private _gymStore;\n    uint256 serviceId = 1;\n\n    struct storeSubscription {\n        uint256 tokenId;\n        string ipfsHash;\n        string image;\n        address owner;\n        uint256 createdAt; // timestamp\n        uint256 invalidAfter; // timestamp after which service is invalid\n    }\n\n    storeSubscription[] subscriptions;\n\n    constructor(address gymStoreContract) ERC721(\"GymSubscriptionNFT\", \"GSFT\") {\n        _gymStore = GymStore(gymStoreContract);\n    }\n\n    function createSubscription(\n        string memory ipfsHash,\n        string memory image,\n        address ownerAddress,\n        uint256 invalidAfter\n    ) public {\n        if (ownerAddress == address(0)) {\n            ownerAddress = msg.sender;\n        }\n\n        uint256 sid = subscriptions.length;\n        storeSubscription memory nextSub = storeSubscription(\n            sid,\n            ipfsHash,\n            image,\n            ownerAddress,\n            block.timestamp,\n            invalidAfter\n        );\n\n        // _transfer(msg.sender, _gymStore, tokenId);\n        subscriptions.push(nextSub);\n        _mint(msg.sender, serviceId);\n        _setTokenURI(serviceId, ipfsHash);\n        serviceId++;\n    }\n\n    function GetSubscriptionData(uint256 _storeId)\n        public\n        view\n        returns (\n            uint256,\n            string memory,\n            string memory,\n            address,\n            uint256\n        )\n    {\n        return (\n            subscriptions[_storeId].tokenId,\n            subscriptions[_storeId].ipfsHash,\n            subscriptions[_storeId].image,\n            subscriptions[_storeId].owner,\n            subscriptions[_storeId].invalidAfter\n        );\n    }\n\n    function makePaymentToStore(uint256 val) public {\n        address storeOwner = _gymStore.getStoreOwner(\n            _gymStore.getStoreNumber()\n        );\n        payable(storeOwner).transfer(val);\n    }\n\n    function hasStoreSubscription(address userAddr) public view returns (bool) {\n        for (uint256 i = 0; i < serviceId; i++) {\n            if (subscriptions[i].owner == userAddr) {\n                return true;\n            }\n        }\n        return false;\n    }\n\n    function GetStoreIdForSubscription() public view returns (uint256) {\n        return _gymStore.getStoreNumber();\n    }\n\n    function GetStoreAddressForSubscription(uint256 _storeId)\n        public\n        view\n        returns (\n            uint256,\n            string memory,\n            address,\n            uint256,\n            address[] memory\n        )\n    {\n        return _gymStore.getStore(_storeId);\n    }\n\n    function transferSubscription(uint256 sId, address transferAddr)\n        public\n        returns (bool)\n    {\n        for (uint256 i = 0; i < serviceId; i++) {\n            if (subscriptions[i].tokenId == sId) {\n                // make the transfer now\n                subscriptions[i].owner = transferAddr;\n                return true;\n            }\n        }\n        return false;\n    }\n}\n",
  "sourcePath": "/Users/sagaranand/Documents/workspace-open/allfit/_backend/contracts/GymSubscription.sol",
  "compiler": {
    "name": "solc",
    "version": "0.8.17+commit.8df45f5f.Emscripten.clang"
  },
  "schemaVersion": "3.4.10",
  "updatedAt": "2022-11-15T06:13:48.919Z",
  "networkType": "ethereum",
  "devdoc": {
    "kind": "dev",
    "methods": {
      "approve(address,uint256)": {
        "details": "See {IERC721-approve}."
      },
      "balanceOf(address)": {
        "details": "See {IERC721-balanceOf}."
      },
      "getApproved(uint256)": {
        "details": "See {IERC721-getApproved}."
      },
      "isApprovedForAll(address,address)": {
        "details": "See {IERC721-isApprovedForAll}."
      },
      "name()": {
        "details": "See {IERC721Metadata-name}."
      },
      "ownerOf(uint256)": {
        "details": "See {IERC721-ownerOf}."
      },
      "safeTransferFrom(address,address,uint256)": {
        "details": "See {IERC721-safeTransferFrom}."
      },
      "safeTransferFrom(address,address,uint256,bytes)": {
        "details": "See {IERC721-safeTransferFrom}."
      },
      "setApprovalForAll(address,bool)": {
        "details": "See {IERC721-setApprovalForAll}."
      },
      "supportsInterface(bytes4)": {
        "details": "See {IERC165-supportsInterface}."
      },
      "symbol()": {
        "details": "See {IERC721Metadata-symbol}."
      },
      "tokenURI(uint256)": {
        "details": "See {IERC721Metadata-tokenURI}."
      },
      "transferFrom(address,address,uint256)": {
        "details": "See {IERC721-transferFrom}."
      }
    },
    "version": 1
  },
  "userdoc": {
    "kind": "user",
    "methods": {},
    "version": 1
  }
}