{
  "contractName": "GymSubscription",
  "abi": [
    {
      "inputs": [
        {
          "internalType": "address",
          "name": "gymStoreContract",
          "type": "address"
        }
      ],
      "stateMutability": "nonpayable",
      "type": "constructor"
    },
    {
      "anonymous": false,
      "inputs": [
        {
          "indexed": true,
          "internalType": "address",
          "name": "owner",
          "type": "address"
        },
        {
          "indexed": true,
          "internalType": "address",
          "name": "approved",
          "type": "address"
        },
        {
          "indexed": true,
          "internalType": "uint256",
          "name": "tokenId",
          "type": "uint256"
        }
      ],
      "name": "Approval",
      "type": "event"
    },
    {
      "anonymous": false,
      "inputs": [
        {
          "indexed": true,
          "internalType": "address",
          "name": "owner",
          "type": "address"
        },
        {
          "indexed": true,
          "internalType": "address",
          "name": "operator",
          "type": "address"
        },
        {
          "indexed": false,
          "internalType": "bool",
          "name": "approved",
          "type": "bool"
        }
      ],
      "name": "ApprovalForAll",
      "type": "event"
    },
    {
      "anonymous": false,
      "inputs": [
        {
          "indexed": true,
          "internalType": "address",
          "name": "from",
          "type": "address"
        },
        {
          "indexed": true,
          "internalType": "address",
          "name": "to",
          "type": "address"
        },
        {
          "indexed": true,
          "internalType": "uint256",
          "name": "tokenId",
          "type": "uint256"
        }
      ],
      "name": "Transfer",
      "type": "event"
    },
    {
      "inputs": [
        {
          "internalType": "address",
          "name": "to",
          "type": "address"
        },
        {
          "internalType": "uint256",
          "name": "tokenId",
          "type": "uint256"
        }
      ],
      "name": "approve",
      "outputs": [],
      "stateMutability": "nonpayable",
      "type": "function"
    },
    {
      "inputs": [
        {
          "internalType": "address",
          "name": "owner",
          "type": "address"
        }
      ],
      "name": "balanceOf",
      "outputs": [
        {
          "internalType": "uint256",
          "name": "",
          "type": "uint256"
        }
      ],
      "stateMutability": "view",
      "type": "function",
      "constant": true
    },
    {
      "inputs": [
        {
          "internalType": "uint256",
          "name": "tokenId",
          "type": "uint256"
        }
      ],
      "name": "getApproved",
      "outputs": [
        {
          "internalType": "address",
          "name": "",
          "type": "address"
        }
      ],
      "stateMutability": "view",
      "type": "function",
      "constant": true
    },
    {
      "inputs": [
        {
          "internalType": "address",
          "name": "owner",
          "type": "address"
        },
        {
          "internalType": "address",
          "name": "operator",
          "type": "address"
        }
      ],
      "name": "isApprovedForAll",
      "outputs": [
        {
          "internalType": "bool",
          "name": "",
          "type": "bool"
        }
      ],
      "stateMutability": "view",
      "type": "function",
      "constant": true
    },
    {
      "inputs": [],
      "name": "name",
      "outputs": [
        {
          "internalType": "string",
          "name": "",
          "type": "string"
        }
      ],
      "stateMutability": "view",
      "type": "function",
      "constant": true
    },
    {
      "inputs": [
        {
          "internalType": "uint256",
          "name": "tokenId",
          "type": "uint256"
        }
      ],
      "name": "ownerOf",
      "outputs": [
        {
          "internalType": "address",
          "name": "",
          "type": "address"
        }
      ],
      "stateMutability": "view",
      "type": "function",
      "constant": true
    },
    {
      "inputs": [
        {
          "internalType": "address",
          "name": "from",
          "type": "address"
        },
        {
          "internalType": "address",
          "name": "to",
          "type": "address"
        },
        {
          "internalType": "uint256",
          "name": "tokenId",
          "type": "uint256"
        }
      ],
      "name": "safeTransferFrom",
      "outputs": [],
      "stateMutability": "nonpayable",
      "type": "function"
    },
    {
      "inputs": [
        {
          "internalType": "address",
          "name": "from",
          "type": "address"
        },
        {
          "internalType": "address",
          "name": "to",
          "type": "address"
        },
        {
          "internalType": "uint256",
          "name": "tokenId",
          "type": "uint256"
        },
        {
          "internalType": "bytes",
          "name": "data",
          "type": "bytes"
        }
      ],
      "name": "safeTransferFrom",
      "outputs": [],
      "stateMutability": "nonpayable",
      "type": "function"
    },
    {
      "inputs": [
        {
          "internalType": "address",
          "name": "operator",
          "type": "address"
        },
        {
          "internalType": "bool",
          "name": "approved",
          "type": "bool"
        }
      ],
      "name": "setApprovalForAll",
      "outputs": [],
      "stateMutability": "nonpayable",
      "type": "function"
    },
    {
      "inputs": [
        {
          "internalType": "bytes4",
          "name": "interfaceId",
          "type": "bytes4"
        }
      ],
      "name": "supportsInterface",
      "outputs": [
        {
          "internalType": "bool",
          "name": "",
          "type": "bool"
        }
      ],
      "stateMutability": "view",
      "type": "function",
      "constant": true
    },
    {
      "inputs": [],
      "name": "symbol",
      "outputs": [
        {
          "internalType": "string",
          "name": "",
          "type": "string"
        }
      ],
      "stateMutability": "view",
      "type": "function",
      "constant": true
    },
    {
      "inputs": [
        {
          "internalType": "uint256",
          "name": "tokenId",
          "type": "uint256"
        }
      ],
      "name": "tokenURI",
      "outputs": [
        {
          "internalType": "string",
          "name": "",
          "type": "string"
        }
      ],
      "stateMutability": "view",
      "type": "function",
      "constant": true
    },
    {
      "inputs": [
        {
          "internalType": "address",
          "name": "from",
          "type": "address"
        },
        {
          "internalType": "address",
          "name": "to",
          "type": "address"
        },
        {
          "internalType": "uint256",
          "name": "tokenId",
          "type": "uint256"
        }
      ],
      "name": "transferFrom",
      "outputs": [],
      "stateMutability": "nonpayable",
      "type": "function"
    },
    {
      "inputs": [
        {
          "internalType": "string",
          "name": "ipfsHash",
          "type": "string"
        },
        {
          "internalType": "string",
          "name": "imgUrl",
          "type": "string"
        },
        {
          "internalType": "address",
          "name": "ownerAddress",
          "type": "address"
        },
        {
          "internalType": "uint256",
          "name": "invalidAfter",
          "type": "uint256"
        },
        {
          "internalType": "uint256",
          "name": "subValue",
          "type": "uint256"
        }
      ],
      "name": "createSubscription",
      "outputs": [],
      "stateMutability": "nonpayable",
      "type": "function"
    },
    {
      "inputs": [
        {
          "internalType": "address",
          "name": "userAddr",
          "type": "address"
        }
      ],
      "name": "hasStoreSubscription",
      "outputs": [
        {
          "internalType": "bool",
          "name": "",
          "type": "bool"
        }
      ],
      "stateMutability": "view",
      "type": "function",
      "constant": true
    },
    {
      "inputs": [
        {
          "internalType": "uint256",
          "name": "sId",
          "type": "uint256"
        },
        {
          "internalType": "address",
          "name": "transferAddr",
          "type": "address"
        }
      ],
      "name": "transferSubscription",
      "outputs": [
        {
          "internalType": "bool",
          "name": "",
          "type": "bool"
        }
      ],
      "stateMutability": "nonpayable",
      "type": "function"
    }
  ],
  "bytecode": "0x608060405260006008553480156200001657600080fd5b50604051620033e6380380620033e683398181016040528101906200003c919062000180565b6040518060400160405280601281526020017f47796d537562736372697074696f6e4e465400000000000000000000000000008152506040518060400160405280600481526020017f47534654000000000000000000000000000000000000000000000000000000008152508160009081620000b991906200042c565b508060019081620000cb91906200042c565b50505080600760006101000a81548173ffffffffffffffffffffffffffffffffffffffff021916908373ffffffffffffffffffffffffffffffffffffffff1602179055505062000513565b600080fd5b600073ffffffffffffffffffffffffffffffffffffffff82169050919050565b600062000148826200011b565b9050919050565b6200015a816200013b565b81146200016657600080fd5b50565b6000815190506200017a816200014f565b92915050565b60006020828403121562000199576200019862000116565b5b6000620001a98482850162000169565b91505092915050565b600081519050919050565b7f4e487b7100000000000000000000000000000000000000000000000000000000600052604160045260246000fd5b7f4e487b7100000000000000000000000000000000000000000000000000000000600052602260045260246000fd5b600060028204905060018216806200023457607f821691505b6020821081036200024a5762000249620001ec565b5b50919050565b60008190508160005260206000209050919050565b60006020601f8301049050919050565b600082821b905092915050565b600060088302620002b47fffffffffffffffffffffffffffffffffffffffffffffffffffffffffffffffff8262000275565b620002c0868362000275565b95508019841693508086168417925050509392505050565b6000819050919050565b6000819050919050565b60006200030d620003076200030184620002d8565b620002e2565b620002d8565b9050919050565b6000819050919050565b6200032983620002ec565b62000341620003388262000314565b84845462000282565b825550505050565b600090565b6200035862000349565b620003658184846200031e565b505050565b5b818110156200038d57620003816000826200034e565b6001810190506200036b565b5050565b601f821115620003dc57620003a68162000250565b620003b18462000265565b81016020851015620003c1578190505b620003d9620003d08562000265565b8301826200036a565b50505b505050565b600082821c905092915050565b60006200040160001984600802620003e1565b1980831691505092915050565b60006200041c8383620003ee565b9150826002028217905092915050565b6200043782620001b2565b67ffffffffffffffff811115620004535762000452620001bd565b5b6200045f82546200021b565b6200046c82828562000391565b600060209050601f831160018114620004a457600084156200048f578287015190505b6200049b85826200040e565b8655506200050b565b601f198416620004b48662000250565b60005b82811015620004de57848901518255600182019150602085019450602081019050620004b7565b86831015620004fe5784890151620004fa601f891682620003ee565b8355505b6001600288020188555050505b505050505050565b612ec380620005236000396000f3fe608060405234801561001057600080fd5b50600436106101005760003560e01c80636765d8a911610097578063a22cb46511610066578063a22cb465146102d1578063b88d4fde146102ed578063c87b56dd14610309578063e985e9c51461033957610100565b80636765d8a91461023757806370a082311461025357806395d89b4114610283578063a0ed6bc6146102a157610100565b806323b872dd116100d357806323b872dd1461019f57806342842e0e146101bb5780636195b657146101d75780636352211e1461020757610100565b806301ffc9a71461010557806306fdde0314610135578063081812fc14610153578063095ea7b314610183575b600080fd5b61011f600480360381019061011a9190611bb9565b610369565b60405161012c9190611c01565b60405180910390f35b61013d61044b565b60405161014a9190611cac565b60405180910390f35b61016d60048036038101906101689190611d04565b6104dd565b60405161017a9190611d72565b60405180910390f35b61019d60048036038101906101989190611db9565b610523565b005b6101b960048036038101906101b49190611df9565b61063a565b005b6101d560048036038101906101d09190611df9565b61069a565b005b6101f160048036038101906101ec9190611e4c565b6106ba565b6040516101fe9190611c01565b60405180910390f35b610221600480360381019061021c9190611d04565b61076c565b60405161022e9190611d72565b60405180910390f35b610251600480360381019061024c9190611fae565b61081d565b005b61026d60048036038101906102689190611e4c565b610b0a565b60405161027a9190612070565b60405180910390f35b61028b610bc1565b6040516102989190611cac565b60405180910390f35b6102bb60048036038101906102b6919061208b565b610c53565b6040516102c89190611c01565b60405180910390f35b6102eb60048036038101906102e691906120f7565b610d1e565b005b610307600480360381019061030291906121d8565b610d34565b005b610323600480360381019061031e9190611d04565b610d96565b6040516103309190611cac565b60405180910390f35b610353600480360381019061034e919061225b565b610ea8565b6040516103609190611c01565b60405180910390f35b60007f80ac58cd000000000000000000000000000000000000000000000000000000007bffffffffffffffffffffffffffffffffffffffffffffffffffffffff1916827bffffffffffffffffffffffffffffffffffffffffffffffffffffffff1916148061043457507f5b5e139f000000000000000000000000000000000000000000000000000000007bffffffffffffffffffffffffffffffffffffffffffffffffffffffff1916827bffffffffffffffffffffffffffffffffffffffffffffffffffffffff1916145b80610444575061044382610f3c565b5b9050919050565b60606000805461045a906122ca565b80601f0160208091040260200160405190810160405280929190818152602001828054610486906122ca565b80156104d35780601f106104a8576101008083540402835291602001916104d3565b820191906000526020600020905b8154815290600101906020018083116104b657829003601f168201915b5050505050905090565b60006104e882610fa6565b6004600083815260200190815260200160002060009054906101000a900473ffffffffffffffffffffffffffffffffffffffff169050919050565b600061052e8261076c565b90508073ffffffffffffffffffffffffffffffffffffffff168373ffffffffffffffffffffffffffffffffffffffff160361059e576040517f08c379a00000000000000000000000000000000000000000000000000000000081526004016105959061236d565b60405180910390fd5b8073ffffffffffffffffffffffffffffffffffffffff166105bd610ff1565b73ffffffffffffffffffffffffffffffffffffffff1614806105ec57506105eb816105e6610ff1565b610ea8565b5b61062b576040517f08c379a0000000000000000000000000000000000000000000000000000000008152600401610622906123ff565b60405180910390fd5b6106358383610ff9565b505050565b61064b610645610ff1565b826110b2565b61068a576040517f08c379a000000000000000000000000000000000000000000000000000000000815260040161068190612491565b60405180910390fd5b610695838383611147565b505050565b6106b583838360405180602001604052806000815250610d34565b505050565b600080600090505b600854811015610761578273ffffffffffffffffffffffffffffffffffffffff16600982815481106106f7576106f66124b1565b5b906000526020600020906006020160030160009054906101000a900473ffffffffffffffffffffffffffffffffffffffff1673ffffffffffffffffffffffffffffffffffffffff160361074e576001915050610767565b80806107599061250f565b9150506106c2565b50600090505b919050565b6000806002600084815260200190815260200160002060009054906101000a900473ffffffffffffffffffffffffffffffffffffffff169050600073ffffffffffffffffffffffffffffffffffffffff168173ffffffffffffffffffffffffffffffffffffffff1603610814576040517f08c379a000000000000000000000000000000000000000000000000000000000815260040161080b906125a3565b60405180910390fd5b80915050919050565b600073ffffffffffffffffffffffffffffffffffffffff168373ffffffffffffffffffffffffffffffffffffffff1603610855573392505b6000600980549050905060006040518060c001604052808381526020018881526020018781526020018673ffffffffffffffffffffffffffffffffffffffff16815260200142815260200185815250905060098190806001815401808255809150506001900390600052602060002090600602016000909190919091506000820151816000015560208201518160010190816108f1919061276f565b506040820151816002019081610907919061276f565b5060608201518160030160006101000a81548173ffffffffffffffffffffffffffffffffffffffff021916908373ffffffffffffffffffffffffffffffffffffffff1602179055506080820151816004015560a082015181600501555050610971336008546113ad565b600860008154809291906109849061250f565b91905055506000600760009054906101000a900473ffffffffffffffffffffffffffffffffffffffff1673ffffffffffffffffffffffffffffffffffffffff1663603acf10600760009054906101000a900473ffffffffffffffffffffffffffffffffffffffff1673ffffffffffffffffffffffffffffffffffffffff1663b8acdb016040518163ffffffff1660e01b8152600401602060405180830381865afa158015610a36573d6000803e3d6000fd5b505050506040513d601f19601f82011682018060405250810190610a5a9190612856565b6040518263ffffffff1660e01b8152600401610a769190612070565b602060405180830381865afa158015610a93573d6000803e3d6000fd5b505050506040513d601f19601f82011682018060405250810190610ab79190612898565b90508073ffffffffffffffffffffffffffffffffffffffff166108fc859081150290604051600060405180830381858888f19350505050158015610aff573d6000803e3d6000fd5b505050505050505050565b60008073ffffffffffffffffffffffffffffffffffffffff168273ffffffffffffffffffffffffffffffffffffffff1603610b7a576040517f08c379a0000000000000000000000000000000000000000000000000000000008152600401610b7190612937565b60405180910390fd5b600360008373ffffffffffffffffffffffffffffffffffffffff1673ffffffffffffffffffffffffffffffffffffffff168152602001908152602001600020549050919050565b606060018054610bd0906122ca565b80601f0160208091040260200160405190810160405280929190818152602001828054610bfc906122ca565b8015610c495780601f10610c1e57610100808354040283529160200191610c49565b820191906000526020600020905b815481529060010190602001808311610c2c57829003601f168201915b5050505050905090565b600080600090505b600854811015610d12578360098281548110610c7a57610c796124b1565b5b90600052602060002090600602016000015403610cff578260098281548110610ca657610ca56124b1565b5b906000526020600020906006020160030160006101000a81548173ffffffffffffffffffffffffffffffffffffffff021916908373ffffffffffffffffffffffffffffffffffffffff1602179055506001915050610d18565b8080610d0a9061250f565b915050610c5b565b50600090505b92915050565b610d30610d29610ff1565b8383611586565b5050565b610d45610d3f610ff1565b836110b2565b610d84576040517f08c379a0000000000000000000000000000000000000000000000000000000008152600401610d7b90612491565b60405180910390fd5b610d90848484846116f2565b50505050565b6060610da182610fa6565b6000600660008481526020019081526020016000208054610dc1906122ca565b80601f0160208091040260200160405190810160405280929190818152602001828054610ded906122ca565b8015610e3a5780601f10610e0f57610100808354040283529160200191610e3a565b820191906000526020600020905b815481529060010190602001808311610e1d57829003601f168201915b505050505090506000610e4b61174e565b90506000815103610e60578192505050610ea3565b600082511115610e95578082604051602001610e7d929190612993565b60405160208183030381529060405292505050610ea3565b610e9e84611765565b925050505b919050565b6000600560008473ffffffffffffffffffffffffffffffffffffffff1673ffffffffffffffffffffffffffffffffffffffff16815260200190815260200160002060008373ffffffffffffffffffffffffffffffffffffffff1673ffffffffffffffffffffffffffffffffffffffff16815260200190815260200160002060009054906101000a900460ff16905092915050565b60007f01ffc9a7000000000000000000000000000000000000000000000000000000007bffffffffffffffffffffffffffffffffffffffffffffffffffffffff1916827bffffffffffffffffffffffffffffffffffffffffffffffffffffffff1916149050919050565b610faf816117cd565b610fee576040517f08c379a0000000000000000000000000000000000000000000000000000000008152600401610fe5906125a3565b60405180910390fd5b50565b600033905090565b816004600083815260200190815260200160002060006101000a81548173ffffffffffffffffffffffffffffffffffffffff021916908373ffffffffffffffffffffffffffffffffffffffff160217905550808273ffffffffffffffffffffffffffffffffffffffff1661106c8361076c565b73ffffffffffffffffffffffffffffffffffffffff167f8c5be1e5ebec7d5bd14f71427d1e84f3dd0314c0f7b2291e5b200ac8c7c3b92560405160405180910390a45050565b6000806110be8361076c565b90508073ffffffffffffffffffffffffffffffffffffffff168473ffffffffffffffffffffffffffffffffffffffff16148061110057506110ff8185610ea8565b5b8061113e57508373ffffffffffffffffffffffffffffffffffffffff16611126846104dd565b73ffffffffffffffffffffffffffffffffffffffff16145b91505092915050565b8273ffffffffffffffffffffffffffffffffffffffff166111678261076c565b73ffffffffffffffffffffffffffffffffffffffff16146111bd576040517f08c379a00000000000000000000000000000000000000000000000000000000081526004016111b490612a29565b60405180910390fd5b600073ffffffffffffffffffffffffffffffffffffffff168273ffffffffffffffffffffffffffffffffffffffff160361122c576040517f08c379a000000000000000000000000000000000000000000000000000000000815260040161122390612abb565b60405180910390fd5b611237838383611839565b611242600082610ff9565b6001600360008573ffffffffffffffffffffffffffffffffffffffff1673ffffffffffffffffffffffffffffffffffffffff16815260200190815260200160002060008282546112929190612adb565b925050819055506001600360008473ffffffffffffffffffffffffffffffffffffffff1673ffffffffffffffffffffffffffffffffffffffff16815260200190815260200160002060008282546112e99190612b0f565b92505081905550816002600083815260200190815260200160002060006101000a81548173ffffffffffffffffffffffffffffffffffffffff021916908373ffffffffffffffffffffffffffffffffffffffff160217905550808273ffffffffffffffffffffffffffffffffffffffff168473ffffffffffffffffffffffffffffffffffffffff167fddf252ad1be2c89b69c2b068fc378daa952ba7f163c4a11628f55a4df523b3ef60405160405180910390a46113a883838361183e565b505050565b600073ffffffffffffffffffffffffffffffffffffffff168273ffffffffffffffffffffffffffffffffffffffff160361141c576040517f08c379a000000000000000000000000000000000000000000000000000000000815260040161141390612b8f565b60405180910390fd5b611425816117cd565b15611465576040517f08c379a000000000000000000000000000000000000000000000000000000000815260040161145c90612bfb565b60405180910390fd5b61147160008383611839565b6001600360008473ffffffffffffffffffffffffffffffffffffffff1673ffffffffffffffffffffffffffffffffffffffff16815260200190815260200160002060008282546114c19190612b0f565b92505081905550816002600083815260200190815260200160002060006101000a81548173ffffffffffffffffffffffffffffffffffffffff021916908373ffffffffffffffffffffffffffffffffffffffff160217905550808273ffffffffffffffffffffffffffffffffffffffff16600073ffffffffffffffffffffffffffffffffffffffff167fddf252ad1be2c89b69c2b068fc378daa952ba7f163c4a11628f55a4df523b3ef60405160405180910390a46115826000838361183e565b5050565b8173ffffffffffffffffffffffffffffffffffffffff168373ffffffffffffffffffffffffffffffffffffffff16036115f4576040517f08c379a00000000000000000000000000000000000000000000000000000000081526004016115eb90612c67565b60405180910390fd5b80600560008573ffffffffffffffffffffffffffffffffffffffff1673ffffffffffffffffffffffffffffffffffffffff16815260200190815260200160002060008473ffffffffffffffffffffffffffffffffffffffff1673ffffffffffffffffffffffffffffffffffffffff16815260200190815260200160002060006101000a81548160ff0219169083151502179055508173ffffffffffffffffffffffffffffffffffffffff168373ffffffffffffffffffffffffffffffffffffffff167f17307eab39ab6107e8899845ad3d59bd9653f200f220920489ca2b5937696c31836040516116e59190611c01565b60405180910390a3505050565b6116fd848484611147565b61170984848484611843565b611748576040517f08c379a000000000000000000000000000000000000000000000000000000000815260040161173f90612cf9565b60405180910390fd5b50505050565b606060405180602001604052806000815250905090565b606061177082610fa6565b600061177a61174e565b9050600081511161179a57604051806020016040528060008152506117c5565b806117a4846119ca565b6040516020016117b5929190612993565b6040516020818303038152906040525b915050919050565b60008073ffffffffffffffffffffffffffffffffffffffff166002600084815260200190815260200160002060009054906101000a900473ffffffffffffffffffffffffffffffffffffffff1673ffffffffffffffffffffffffffffffffffffffff1614159050919050565b505050565b505050565b60006118648473ffffffffffffffffffffffffffffffffffffffff16611b2a565b156119bd578373ffffffffffffffffffffffffffffffffffffffff1663150b7a0261188d610ff1565b8786866040518563ffffffff1660e01b81526004016118af9493929190612d6e565b6020604051808303816000875af19250505080156118eb57506040513d601f19601f820116820180604052508101906118e89190612dcf565b60015b61196d573d806000811461191b576040519150601f19603f3d011682016040523d82523d6000602084013e611920565b606091505b506000815103611965576040517f08c379a000000000000000000000000000000000000000000000000000000000815260040161195c90612cf9565b60405180910390fd5b805181602001fd5b63150b7a0260e01b7bffffffffffffffffffffffffffffffffffffffffffffffffffffffff1916817bffffffffffffffffffffffffffffffffffffffffffffffffffffffff1916149150506119c2565b600190505b949350505050565b606060008203611a11576040518060400160405280600181526020017f30000000000000000000000000000000000000000000000000000000000000008152509050611b25565b600082905060005b60008214611a43578080611a2c9061250f565b915050600a82611a3c9190612e2b565b9150611a19565b60008167ffffffffffffffff811115611a5f57611a5e611e83565b5b6040519080825280601f01601f191660200182016040528015611a915781602001600182028036833780820191505090505b5090505b60008514611b1e57600182611aaa9190612adb565b9150600a85611ab99190612e5c565b6030611ac59190612b0f565b60f81b818381518110611adb57611ada6124b1565b5b60200101907effffffffffffffffffffffffffffffffffffffffffffffffffffffffffffff1916908160001a905350600a85611b179190612e2b565b9450611a95565b8093505050505b919050565b6000808273ffffffffffffffffffffffffffffffffffffffff163b119050919050565b6000604051905090565b600080fd5b600080fd5b60007fffffffff0000000000000000000000000000000000000000000000000000000082169050919050565b611b9681611b61565b8114611ba157600080fd5b50565b600081359050611bb381611b8d565b92915050565b600060208284031215611bcf57611bce611b57565b5b6000611bdd84828501611ba4565b91505092915050565b60008115159050919050565b611bfb81611be6565b82525050565b6000602082019050611c166000830184611bf2565b92915050565b600081519050919050565b600082825260208201905092915050565b60005b83811015611c56578082015181840152602081019050611c3b565b60008484015250505050565b6000601f19601f8301169050919050565b6000611c7e82611c1c565b611c888185611c27565b9350611c98818560208601611c38565b611ca181611c62565b840191505092915050565b60006020820190508181036000830152611cc68184611c73565b905092915050565b6000819050919050565b611ce181611cce565b8114611cec57600080fd5b50565b600081359050611cfe81611cd8565b92915050565b600060208284031215611d1a57611d19611b57565b5b6000611d2884828501611cef565b91505092915050565b600073ffffffffffffffffffffffffffffffffffffffff82169050919050565b6000611d5c82611d31565b9050919050565b611d6c81611d51565b82525050565b6000602082019050611d876000830184611d63565b92915050565b611d9681611d51565b8114611da157600080fd5b50565b600081359050611db381611d8d565b92915050565b60008060408385031215611dd057611dcf611b57565b5b6000611dde85828601611da4565b9250506020611def85828601611cef565b9150509250929050565b600080600060608486031215611e1257611e11611b57565b5b6000611e2086828701611da4565b9350506020611e3186828701611da4565b9250506040611e4286828701611cef565b9150509250925092565b600060208284031215611e6257611e61611b57565b5b6000611e7084828501611da4565b91505092915050565b600080fd5b600080fd5b7f4e487b7100000000000000000000000000000000000000000000000000000000600052604160045260246000fd5b611ebb82611c62565b810181811067ffffffffffffffff82111715611eda57611ed9611e83565b5b80604052505050565b6000611eed611b4d565b9050611ef98282611eb2565b919050565b600067ffffffffffffffff821115611f1957611f18611e83565b5b611f2282611c62565b9050602081019050919050565b82818337600083830152505050565b6000611f51611f4c84611efe565b611ee3565b905082815260208101848484011115611f6d57611f6c611e7e565b5b611f78848285611f2f565b509392505050565b600082601f830112611f9557611f94611e79565b5b8135611fa5848260208601611f3e565b91505092915050565b600080600080600060a08688031215611fca57611fc9611b57565b5b600086013567ffffffffffffffff811115611fe857611fe7611b5c565b5b611ff488828901611f80565b955050602086013567ffffffffffffffff81111561201557612014611b5c565b5b61202188828901611f80565b945050604061203288828901611da4565b935050606061204388828901611cef565b925050608061205488828901611cef565b9150509295509295909350565b61206a81611cce565b82525050565b60006020820190506120856000830184612061565b92915050565b600080604083850312156120a2576120a1611b57565b5b60006120b085828601611cef565b92505060206120c185828601611da4565b9150509250929050565b6120d481611be6565b81146120df57600080fd5b50565b6000813590506120f1816120cb565b92915050565b6000806040838503121561210e5761210d611b57565b5b600061211c85828601611da4565b925050602061212d858286016120e2565b9150509250929050565b600067ffffffffffffffff82111561215257612151611e83565b5b61215b82611c62565b9050602081019050919050565b600061217b61217684612137565b611ee3565b90508281526020810184848401111561219757612196611e7e565b5b6121a2848285611f2f565b509392505050565b600082601f8301126121bf576121be611e79565b5b81356121cf848260208601612168565b91505092915050565b600080600080608085870312156121f2576121f1611b57565b5b600061220087828801611da4565b945050602061221187828801611da4565b935050604061222287828801611cef565b925050606085013567ffffffffffffffff81111561224357612242611b5c565b5b61224f878288016121aa565b91505092959194509250565b6000806040838503121561227257612271611b57565b5b600061228085828601611da4565b925050602061229185828601611da4565b9150509250929050565b7f4e487b7100000000000000000000000000000000000000000000000000000000600052602260045260246000fd5b600060028204905060018216806122e257607f821691505b6020821081036122f5576122f461229b565b5b50919050565b7f4552433732313a20617070726f76616c20746f2063757272656e74206f776e6560008201527f7200000000000000000000000000000000000000000000000000000000000000602082015250565b6000612357602183611c27565b9150612362826122fb565b604082019050919050565b600060208201905081810360008301526123868161234a565b9050919050565b7f4552433732313a20617070726f76652063616c6c6572206973206e6f7420746f60008201527f6b656e206f776e6572206e6f7220617070726f76656420666f7220616c6c0000602082015250565b60006123e9603e83611c27565b91506123f48261238d565b604082019050919050565b60006020820190508181036000830152612418816123dc565b9050919050565b7f4552433732313a2063616c6c6572206973206e6f7420746f6b656e206f776e6560008201527f72206e6f7220617070726f766564000000000000000000000000000000000000602082015250565b600061247b602e83611c27565b91506124868261241f565b604082019050919050565b600060208201905081810360008301526124aa8161246e565b9050919050565b7f4e487b7100000000000000000000000000000000000000000000000000000000600052603260045260246000fd5b7f4e487b7100000000000000000000000000000000000000000000000000000000600052601160045260246000fd5b600061251a82611cce565b91507fffffffffffffffffffffffffffffffffffffffffffffffffffffffffffffffff820361254c5761254b6124e0565b5b600182019050919050565b7f4552433732313a20696e76616c696420746f6b656e2049440000000000000000600082015250565b600061258d601883611c27565b915061259882612557565b602082019050919050565b600060208201905081810360008301526125bc81612580565b9050919050565b60008190508160005260206000209050919050565b60006020601f8301049050919050565b600082821b905092915050565b6000600883026126257fffffffffffffffffffffffffffffffffffffffffffffffffffffffffffffffff826125e8565b61262f86836125e8565b95508019841693508086168417925050509392505050565b6000819050919050565b600061266c61266761266284611cce565b612647565b611cce565b9050919050565b6000819050919050565b61268683612651565b61269a61269282612673565b8484546125f5565b825550505050565b600090565b6126af6126a2565b6126ba81848461267d565b505050565b5b818110156126de576126d36000826126a7565b6001810190506126c0565b5050565b601f821115612723576126f4816125c3565b6126fd846125d8565b8101602085101561270c578190505b612720612718856125d8565b8301826126bf565b50505b505050565b600082821c905092915050565b600061274660001984600802612728565b1980831691505092915050565b600061275f8383612735565b9150826002028217905092915050565b61277882611c1c565b67ffffffffffffffff81111561279157612790611e83565b5b61279b82546122ca565b6127a68282856126e2565b600060209050601f8311600181146127d957600084156127c7578287015190505b6127d18582612753565b865550612839565b601f1984166127e7866125c3565b60005b8281101561280f578489015182556001820191506020850194506020810190506127ea565b8683101561282c5784890151612828601f891682612735565b8355505b6001600288020188555050505b505050505050565b60008151905061285081611cd8565b92915050565b60006020828403121561286c5761286b611b57565b5b600061287a84828501612841565b91505092915050565b60008151905061289281611d8d565b92915050565b6000602082840312156128ae576128ad611b57565b5b60006128bc84828501612883565b91505092915050565b7f4552433732313a2061646472657373207a65726f206973206e6f74206120766160008201527f6c6964206f776e65720000000000000000000000000000000000000000000000602082015250565b6000612921602983611c27565b915061292c826128c5565b604082019050919050565b6000602082019050818103600083015261295081612914565b9050919050565b600081905092915050565b600061296d82611c1c565b6129778185612957565b9350612987818560208601611c38565b80840191505092915050565b600061299f8285612962565b91506129ab8284612962565b91508190509392505050565b7f4552433732313a207472616e736665722066726f6d20696e636f72726563742060008201527f6f776e6572000000000000000000000000000000000000000000000000000000602082015250565b6000612a13602583611c27565b9150612a1e826129b7565b604082019050919050565b60006020820190508181036000830152612a4281612a06565b9050919050565b7f4552433732313a207472616e7366657220746f20746865207a65726f2061646460008201527f7265737300000000000000000000000000000000000000000000000000000000602082015250565b6000612aa5602483611c27565b9150612ab082612a49565b604082019050919050565b60006020820190508181036000830152612ad481612a98565b9050919050565b6000612ae682611cce565b9150612af183611cce565b9250828203905081811115612b0957612b086124e0565b5b92915050565b6000612b1a82611cce565b9150612b2583611cce565b9250828201905080821115612b3d57612b3c6124e0565b5b92915050565b7f4552433732313a206d696e7420746f20746865207a65726f2061646472657373600082015250565b6000612b79602083611c27565b9150612b8482612b43565b602082019050919050565b60006020820190508181036000830152612ba881612b6c565b9050919050565b7f4552433732313a20746f6b656e20616c7265616479206d696e74656400000000600082015250565b6000612be5601c83611c27565b9150612bf082612baf565b602082019050919050565b60006020820190508181036000830152612c1481612bd8565b9050919050565b7f4552433732313a20617070726f766520746f2063616c6c657200000000000000600082015250565b6000612c51601983611c27565b9150612c5c82612c1b565b602082019050919050565b60006020820190508181036000830152612c8081612c44565b9050919050565b7f4552433732313a207472616e7366657220746f206e6f6e20455243373231526560008201527f63656976657220696d706c656d656e7465720000000000000000000000000000602082015250565b6000612ce3603283611c27565b9150612cee82612c87565b604082019050919050565b60006020820190508181036000830152612d1281612cd6565b9050919050565b600081519050919050565b600082825260208201905092915050565b6000612d4082612d19565b612d4a8185612d24565b9350612d5a818560208601611c38565b612d6381611c62565b840191505092915050565b6000608082019050612d836000830187611d63565b612d906020830186611d63565b612d9d6040830185612061565b8181036060830152612daf8184612d35565b905095945050505050565b600081519050612dc981611b8d565b92915050565b600060208284031215612de557612de4611b57565b5b6000612df384828501612dba565b91505092915050565b7f4e487b7100000000000000000000000000000000000000000000000000000000600052601260045260246000fd5b6000612e3682611cce565b9150612e4183611cce565b925082612e5157612e50612dfc565b5b828204905092915050565b6000612e6782611cce565b9150612e7283611cce565b925082612e8257612e81612dfc565b5b82820690509291505056fea2646970667358221220cb263e875fd8b500f9821a61beade0e67ee18e5a8716492ae789e040f06dab3564736f6c63430008110033",
  "immutableReferences": {},
  "source": "// SPDX-License-Identifier: MIT\npragma solidity ^0.8.4;\n\nimport \"@openzeppelin/contracts/token/ERC721/extensions/ERC721URIStorage.sol\";\nimport \"./GymStore.sol\";\n\ncontract GymSubscription is ERC721URIStorage {\n    GymStore private _gymStore;\n    uint256 serviceId = 0;\n\n    struct storeSubscription {\n        uint256 tokenId;\n        string ipfsHash;\n        string imgUrl;\n        address owner; // == None -> Akshit\n        uint256 createdAt; // timestamp\n        uint256 invalidAfter; // timestamp after which service is invalid\n    }\n\n    storeSubscription[] subscriptions;\n\n    constructor(address gymStoreContract) ERC721(\"GymSubscriptionNFT\", \"GSFT\") {\n        _gymStore = GymStore(gymStoreContract);\n    }\n\n    function createSubscription(\n        string memory ipfsHash,\n        string memory imgUrl,\n        address ownerAddress,\n        uint256 invalidAfter,\n        uint256 subValue\n    ) public {\n        if (ownerAddress == address(0)) {\n            ownerAddress = msg.sender;\n        }\n\n        uint256 sid = subscriptions.length;\n        storeSubscription memory nextSub = storeSubscription(\n            sid,\n            ipfsHash,\n            imgUrl,\n            ownerAddress,\n            block.timestamp,\n            invalidAfter\n        );\n\n        // _transfer(msg.sender, _gymStore, tokenId);\n        subscriptions.push(nextSub);\n        _mint(msg.sender, serviceId);\n        serviceId++;\n\n        address storeOwner = _gymStore.getStoreOwner(\n            _gymStore.getStoreNumber()\n        );\n        payable(storeOwner).transfer(subValue);\n    }\n\n    function hasStoreSubscription(address userAddr) public view returns (bool) {\n        for (uint256 i = 0; i < serviceId; i++) {\n            if (subscriptions[i].owner == userAddr) {\n                return true;\n            }\n        }\n        return false;\n    }\n\n    function transferSubscription(uint256 sId, address transferAddr)\n        public\n        returns (bool)\n    {\n        for (uint256 i = 0; i < serviceId; i++) {\n            if (subscriptions[i].tokenId == sId) {\n                // make the transfer now\n                subscriptions[i].owner = transferAddr;\n                return true;\n            }\n        }\n        return false;\n    }\n}\n",
  "sourcePath": "/Users/sagaranand/Documents/workspace-open/allfit/_backend/contracts/GymSubscription.sol",
  "compiler": {
    "name": "solc",
    "version": "0.8.17+commit.8df45f5f.Emscripten.clang"
  },
  "schemaVersion": "3.4.10",
  "updatedAt": "2022-11-07T11:23:19.395Z",
  "networkType": "ethereum",
  "devdoc": {
    "kind": "dev",
    "methods": {
      "approve(address,uint256)": {
        "details": "See {IERC721-approve}."
      },
      "balanceOf(address)": {
        "details": "See {IERC721-balanceOf}."
      },
      "getApproved(uint256)": {
        "details": "See {IERC721-getApproved}."
      },
      "isApprovedForAll(address,address)": {
        "details": "See {IERC721-isApprovedForAll}."
      },
      "name()": {
        "details": "See {IERC721Metadata-name}."
      },
      "ownerOf(uint256)": {
        "details": "See {IERC721-ownerOf}."
      },
      "safeTransferFrom(address,address,uint256)": {
        "details": "See {IERC721-safeTransferFrom}."
      },
      "safeTransferFrom(address,address,uint256,bytes)": {
        "details": "See {IERC721-safeTransferFrom}."
      },
      "setApprovalForAll(address,bool)": {
        "details": "See {IERC721-setApprovalForAll}."
      },
      "supportsInterface(bytes4)": {
        "details": "See {IERC165-supportsInterface}."
      },
      "symbol()": {
        "details": "See {IERC721Metadata-symbol}."
      },
      "tokenURI(uint256)": {
        "details": "See {IERC721Metadata-tokenURI}."
      },
      "transferFrom(address,address,uint256)": {
        "details": "See {IERC721-transferFrom}."
      }
    },
    "version": 1
  },
  "userdoc": {
    "kind": "user",
    "methods": {},
    "version": 1
  }
}