{
  "contractName": "GymSubscription",
  "abi": [
    {
      "inputs": [
        {
          "internalType": "address",
          "name": "gymStoreContract",
          "type": "address"
        }
      ],
      "stateMutability": "nonpayable",
      "type": "constructor"
    },
    {
      "anonymous": false,
      "inputs": [
        {
          "indexed": true,
          "internalType": "address",
          "name": "owner",
          "type": "address"
        },
        {
          "indexed": true,
          "internalType": "address",
          "name": "approved",
          "type": "address"
        },
        {
          "indexed": true,
          "internalType": "uint256",
          "name": "tokenId",
          "type": "uint256"
        }
      ],
      "name": "Approval",
      "type": "event"
    },
    {
      "anonymous": false,
      "inputs": [
        {
          "indexed": true,
          "internalType": "address",
          "name": "owner",
          "type": "address"
        },
        {
          "indexed": true,
          "internalType": "address",
          "name": "operator",
          "type": "address"
        },
        {
          "indexed": false,
          "internalType": "bool",
          "name": "approved",
          "type": "bool"
        }
      ],
      "name": "ApprovalForAll",
      "type": "event"
    },
    {
      "anonymous": false,
      "inputs": [
        {
          "indexed": true,
          "internalType": "address",
          "name": "from",
          "type": "address"
        },
        {
          "indexed": true,
          "internalType": "address",
          "name": "to",
          "type": "address"
        },
        {
          "indexed": true,
          "internalType": "uint256",
          "name": "tokenId",
          "type": "uint256"
        }
      ],
      "name": "Transfer",
      "type": "event"
    },
    {
      "inputs": [
        {
          "internalType": "address",
          "name": "to",
          "type": "address"
        },
        {
          "internalType": "uint256",
          "name": "tokenId",
          "type": "uint256"
        }
      ],
      "name": "approve",
      "outputs": [],
      "stateMutability": "nonpayable",
      "type": "function"
    },
    {
      "inputs": [
        {
          "internalType": "address",
          "name": "owner",
          "type": "address"
        }
      ],
      "name": "balanceOf",
      "outputs": [
        {
          "internalType": "uint256",
          "name": "",
          "type": "uint256"
        }
      ],
      "stateMutability": "view",
      "type": "function",
      "constant": true
    },
    {
      "inputs": [
        {
          "internalType": "uint256",
          "name": "tokenId",
          "type": "uint256"
        }
      ],
      "name": "getApproved",
      "outputs": [
        {
          "internalType": "address",
          "name": "",
          "type": "address"
        }
      ],
      "stateMutability": "view",
      "type": "function",
      "constant": true
    },
    {
      "inputs": [
        {
          "internalType": "address",
          "name": "owner",
          "type": "address"
        },
        {
          "internalType": "address",
          "name": "operator",
          "type": "address"
        }
      ],
      "name": "isApprovedForAll",
      "outputs": [
        {
          "internalType": "bool",
          "name": "",
          "type": "bool"
        }
      ],
      "stateMutability": "view",
      "type": "function",
      "constant": true
    },
    {
      "inputs": [],
      "name": "name",
      "outputs": [
        {
          "internalType": "string",
          "name": "",
          "type": "string"
        }
      ],
      "stateMutability": "view",
      "type": "function",
      "constant": true
    },
    {
      "inputs": [
        {
          "internalType": "uint256",
          "name": "tokenId",
          "type": "uint256"
        }
      ],
      "name": "ownerOf",
      "outputs": [
        {
          "internalType": "address",
          "name": "",
          "type": "address"
        }
      ],
      "stateMutability": "view",
      "type": "function",
      "constant": true
    },
    {
      "inputs": [
        {
          "internalType": "address",
          "name": "from",
          "type": "address"
        },
        {
          "internalType": "address",
          "name": "to",
          "type": "address"
        },
        {
          "internalType": "uint256",
          "name": "tokenId",
          "type": "uint256"
        }
      ],
      "name": "safeTransferFrom",
      "outputs": [],
      "stateMutability": "nonpayable",
      "type": "function"
    },
    {
      "inputs": [
        {
          "internalType": "address",
          "name": "from",
          "type": "address"
        },
        {
          "internalType": "address",
          "name": "to",
          "type": "address"
        },
        {
          "internalType": "uint256",
          "name": "tokenId",
          "type": "uint256"
        },
        {
          "internalType": "bytes",
          "name": "data",
          "type": "bytes"
        }
      ],
      "name": "safeTransferFrom",
      "outputs": [],
      "stateMutability": "nonpayable",
      "type": "function"
    },
    {
      "inputs": [
        {
          "internalType": "address",
          "name": "operator",
          "type": "address"
        },
        {
          "internalType": "bool",
          "name": "approved",
          "type": "bool"
        }
      ],
      "name": "setApprovalForAll",
      "outputs": [],
      "stateMutability": "nonpayable",
      "type": "function"
    },
    {
      "inputs": [
        {
          "internalType": "bytes4",
          "name": "interfaceId",
          "type": "bytes4"
        }
      ],
      "name": "supportsInterface",
      "outputs": [
        {
          "internalType": "bool",
          "name": "",
          "type": "bool"
        }
      ],
      "stateMutability": "view",
      "type": "function",
      "constant": true
    },
    {
      "inputs": [],
      "name": "symbol",
      "outputs": [
        {
          "internalType": "string",
          "name": "",
          "type": "string"
        }
      ],
      "stateMutability": "view",
      "type": "function",
      "constant": true
    },
    {
      "inputs": [
        {
          "internalType": "uint256",
          "name": "tokenId",
          "type": "uint256"
        }
      ],
      "name": "tokenURI",
      "outputs": [
        {
          "internalType": "string",
          "name": "",
          "type": "string"
        }
      ],
      "stateMutability": "view",
      "type": "function",
      "constant": true
    },
    {
      "inputs": [
        {
          "internalType": "address",
          "name": "from",
          "type": "address"
        },
        {
          "internalType": "address",
          "name": "to",
          "type": "address"
        },
        {
          "internalType": "uint256",
          "name": "tokenId",
          "type": "uint256"
        }
      ],
      "name": "transferFrom",
      "outputs": [],
      "stateMutability": "nonpayable",
      "type": "function"
    },
    {
      "inputs": [
        {
          "internalType": "string",
          "name": "ipfsHash",
          "type": "string"
        },
        {
          "internalType": "address",
          "name": "ownerAddress",
          "type": "address"
        },
        {
          "internalType": "uint256",
          "name": "invalidAfter",
          "type": "uint256"
        }
      ],
      "name": "createSubscription",
      "outputs": [],
      "stateMutability": "nonpayable",
      "type": "function"
    },
    {
      "inputs": [
        {
          "internalType": "address",
          "name": "userAddr",
          "type": "address"
        }
      ],
      "name": "hasStoreSubscription",
      "outputs": [
        {
          "internalType": "bool",
          "name": "",
          "type": "bool"
        }
      ],
      "stateMutability": "view",
      "type": "function",
      "constant": true
    },
    {
      "inputs": [
        {
          "internalType": "uint256",
          "name": "sId",
          "type": "uint256"
        },
        {
          "internalType": "address",
          "name": "transferAddr",
          "type": "address"
        }
      ],
      "name": "transferSubscription",
      "outputs": [
        {
          "internalType": "bool",
          "name": "",
          "type": "bool"
        }
      ],
      "stateMutability": "nonpayable",
      "type": "function"
    }
  ],
  "bytecode": "0x608060405260006008553480156200001657600080fd5b50604051620031883803806200318883398181016040528101906200003c919062000180565b6040518060400160405280601281526020017f47796d537562736372697074696f6e4e465400000000000000000000000000008152506040518060400160405280600481526020017f47534654000000000000000000000000000000000000000000000000000000008152508160009081620000b991906200042c565b508060019081620000cb91906200042c565b50505080600760006101000a81548173ffffffffffffffffffffffffffffffffffffffff021916908373ffffffffffffffffffffffffffffffffffffffff1602179055505062000513565b600080fd5b600073ffffffffffffffffffffffffffffffffffffffff82169050919050565b600062000148826200011b565b9050919050565b6200015a816200013b565b81146200016657600080fd5b50565b6000815190506200017a816200014f565b92915050565b60006020828403121562000199576200019862000116565b5b6000620001a98482850162000169565b91505092915050565b600081519050919050565b7f4e487b7100000000000000000000000000000000000000000000000000000000600052604160045260246000fd5b7f4e487b7100000000000000000000000000000000000000000000000000000000600052602260045260246000fd5b600060028204905060018216806200023457607f821691505b6020821081036200024a5762000249620001ec565b5b50919050565b60008190508160005260206000209050919050565b60006020601f8301049050919050565b600082821b905092915050565b600060088302620002b47fffffffffffffffffffffffffffffffffffffffffffffffffffffffffffffffff8262000275565b620002c0868362000275565b95508019841693508086168417925050509392505050565b6000819050919050565b6000819050919050565b60006200030d620003076200030184620002d8565b620002e2565b620002d8565b9050919050565b6000819050919050565b6200032983620002ec565b62000341620003388262000314565b84845462000282565b825550505050565b600090565b6200035862000349565b620003658184846200031e565b505050565b5b818110156200038d57620003816000826200034e565b6001810190506200036b565b5050565b601f821115620003dc57620003a68162000250565b620003b18462000265565b81016020851015620003c1578190505b620003d9620003d08562000265565b8301826200036a565b50505b505050565b600082821c905092915050565b60006200040160001984600802620003e1565b1980831691505092915050565b60006200041c8383620003ee565b9150826002028217905092915050565b6200043782620001b2565b67ffffffffffffffff811115620004535762000452620001bd565b5b6200045f82546200021b565b6200046c82828562000391565b600060209050601f831160018114620004a457600084156200048f578287015190505b6200049b85826200040e565b8655506200050b565b601f198416620004b48662000250565b60005b82811015620004de57848901518255600182019150602085019450602081019050620004b7565b86831015620004fe5784890151620004fa601f891682620003ee565b8355505b6001600288020188555050505b505050505050565b612c6580620005236000396000f3fe608060405234801561001057600080fd5b50600436106101005760003560e01c806370a0823111610097578063b88d4fde11610066578063b88d4fde146102d1578063c330be7d146102ed578063c87b56dd14610309578063e985e9c51461033957610100565b806370a082311461023757806395d89b4114610267578063a0ed6bc614610285578063a22cb465146102b557610100565b806323b872dd116100d357806323b872dd1461019f57806342842e0e146101bb5780636195b657146101d75780636352211e1461020757610100565b806301ffc9a71461010557806306fdde0314610135578063081812fc14610153578063095ea7b314610183575b600080fd5b61011f600480360381019061011a9190611a23565b610369565b60405161012c9190611a6b565b60405180910390f35b61013d61044b565b60405161014a9190611b16565b60405180910390f35b61016d60048036038101906101689190611b6e565b6104dd565b60405161017a9190611bdc565b60405180910390f35b61019d60048036038101906101989190611c23565b610523565b005b6101b960048036038101906101b49190611c63565b61063a565b005b6101d560048036038101906101d09190611c63565b61069a565b005b6101f160048036038101906101ec9190611cb6565b6106ba565b6040516101fe9190611a6b565b60405180910390f35b610221600480360381019061021c9190611b6e565b61076c565b60405161022e9190611bdc565b60405180910390f35b610251600480360381019061024c9190611cb6565b61081d565b60405161025e9190611cf2565b60405180910390f35b61026f6108d4565b60405161027c9190611b16565b60405180910390f35b61029f600480360381019061029a9190611d0d565b610966565b6040516102ac9190611a6b565b60405180910390f35b6102cf60048036038101906102ca9190611d79565b610a31565b005b6102eb60048036038101906102e69190611eee565b610a47565b005b61030760048036038101906103029190612012565b610aa9565b005b610323600480360381019061031e9190611b6e565b610c00565b6040516103309190611b16565b60405180910390f35b610353600480360381019061034e9190612081565b610d12565b6040516103609190611a6b565b60405180910390f35b60007f80ac58cd000000000000000000000000000000000000000000000000000000007bffffffffffffffffffffffffffffffffffffffffffffffffffffffff1916827bffffffffffffffffffffffffffffffffffffffffffffffffffffffff1916148061043457507f5b5e139f000000000000000000000000000000000000000000000000000000007bffffffffffffffffffffffffffffffffffffffffffffffffffffffff1916827bffffffffffffffffffffffffffffffffffffffffffffffffffffffff1916145b80610444575061044382610da6565b5b9050919050565b60606000805461045a906120f0565b80601f0160208091040260200160405190810160405280929190818152602001828054610486906120f0565b80156104d35780601f106104a8576101008083540402835291602001916104d3565b820191906000526020600020905b8154815290600101906020018083116104b657829003601f168201915b5050505050905090565b60006104e882610e10565b6004600083815260200190815260200160002060009054906101000a900473ffffffffffffffffffffffffffffffffffffffff169050919050565b600061052e8261076c565b90508073ffffffffffffffffffffffffffffffffffffffff168373ffffffffffffffffffffffffffffffffffffffff160361059e576040517f08c379a000000000000000000000000000000000000000000000000000000000815260040161059590612193565b60405180910390fd5b8073ffffffffffffffffffffffffffffffffffffffff166105bd610e5b565b73ffffffffffffffffffffffffffffffffffffffff1614806105ec57506105eb816105e6610e5b565b610d12565b5b61062b576040517f08c379a000000000000000000000000000000000000000000000000000000000815260040161062290612225565b60405180910390fd5b6106358383610e63565b505050565b61064b610645610e5b565b82610f1c565b61068a576040517f08c379a0000000000000000000000000000000000000000000000000000000008152600401610681906122b7565b60405180910390fd5b610695838383610fb1565b505050565b6106b583838360405180602001604052806000815250610a47565b505050565b600080600090505b600854811015610761578273ffffffffffffffffffffffffffffffffffffffff16600982815481106106f7576106f66122d7565b5b906000526020600020906005020160020160009054906101000a900473ffffffffffffffffffffffffffffffffffffffff1673ffffffffffffffffffffffffffffffffffffffff160361074e576001915050610767565b808061075990612335565b9150506106c2565b50600090505b919050565b6000806002600084815260200190815260200160002060009054906101000a900473ffffffffffffffffffffffffffffffffffffffff169050600073ffffffffffffffffffffffffffffffffffffffff168173ffffffffffffffffffffffffffffffffffffffff1603610814576040517f08c379a000000000000000000000000000000000000000000000000000000000815260040161080b906123c9565b60405180910390fd5b80915050919050565b60008073ffffffffffffffffffffffffffffffffffffffff168273ffffffffffffffffffffffffffffffffffffffff160361088d576040517f08c379a00000000000000000000000000000000000000000000000000000000081526004016108849061245b565b60405180910390fd5b600360008373ffffffffffffffffffffffffffffffffffffffff1673ffffffffffffffffffffffffffffffffffffffff168152602001908152602001600020549050919050565b6060600180546108e3906120f0565b80601f016020809104026020016040519081016040528092919081815260200182805461090f906120f0565b801561095c5780601f106109315761010080835404028352916020019161095c565b820191906000526020600020905b81548152906001019060200180831161093f57829003601f168201915b5050505050905090565b600080600090505b600854811015610a2557836009828154811061098d5761098c6122d7565b5b90600052602060002090600502016000015403610a125782600982815481106109b9576109b86122d7565b5b906000526020600020906005020160020160006101000a81548173ffffffffffffffffffffffffffffffffffffffff021916908373ffffffffffffffffffffffffffffffffffffffff1602179055506001915050610a2b565b8080610a1d90612335565b91505061096e565b50600090505b92915050565b610a43610a3c610e5b565b8383611217565b5050565b610a58610a52610e5b565b83610f1c565b610a97576040517f08c379a0000000000000000000000000000000000000000000000000000000008152600401610a8e906122b7565b60405180910390fd5b610aa384848484611383565b50505050565b600073ffffffffffffffffffffffffffffffffffffffff168273ffffffffffffffffffffffffffffffffffffffff1603610ae1573391505b6000600980549050905060006040518060a001604052808381526020018681526020018573ffffffffffffffffffffffffffffffffffffffff1681526020014281526020018481525090506009819080600181540180825580915050600190039060005260206000209060050201600090919091909150600082015181600001556020820151816001019081610b779190612627565b5060408201518160020160006101000a81548173ffffffffffffffffffffffffffffffffffffffff021916908373ffffffffffffffffffffffffffffffffffffffff16021790555060608201518160030155608082015181600401555050610be1336008546113df565b60086000815480929190610bf490612335565b91905055505050505050565b6060610c0b82610e10565b6000600660008481526020019081526020016000208054610c2b906120f0565b80601f0160208091040260200160405190810160405280929190818152602001828054610c57906120f0565b8015610ca45780601f10610c7957610100808354040283529160200191610ca4565b820191906000526020600020905b815481529060010190602001808311610c8757829003601f168201915b505050505090506000610cb56115b8565b90506000815103610cca578192505050610d0d565b600082511115610cff578082604051602001610ce7929190612735565b60405160208183030381529060405292505050610d0d565b610d08846115cf565b925050505b919050565b6000600560008473ffffffffffffffffffffffffffffffffffffffff1673ffffffffffffffffffffffffffffffffffffffff16815260200190815260200160002060008373ffffffffffffffffffffffffffffffffffffffff1673ffffffffffffffffffffffffffffffffffffffff16815260200190815260200160002060009054906101000a900460ff16905092915050565b60007f01ffc9a7000000000000000000000000000000000000000000000000000000007bffffffffffffffffffffffffffffffffffffffffffffffffffffffff1916827bffffffffffffffffffffffffffffffffffffffffffffffffffffffff1916149050919050565b610e1981611637565b610e58576040517f08c379a0000000000000000000000000000000000000000000000000000000008152600401610e4f906123c9565b60405180910390fd5b50565b600033905090565b816004600083815260200190815260200160002060006101000a81548173ffffffffffffffffffffffffffffffffffffffff021916908373ffffffffffffffffffffffffffffffffffffffff160217905550808273ffffffffffffffffffffffffffffffffffffffff16610ed68361076c565b73ffffffffffffffffffffffffffffffffffffffff167f8c5be1e5ebec7d5bd14f71427d1e84f3dd0314c0f7b2291e5b200ac8c7c3b92560405160405180910390a45050565b600080610f288361076c565b90508073ffffffffffffffffffffffffffffffffffffffff168473ffffffffffffffffffffffffffffffffffffffff161480610f6a5750610f698185610d12565b5b80610fa857508373ffffffffffffffffffffffffffffffffffffffff16610f90846104dd565b73ffffffffffffffffffffffffffffffffffffffff16145b91505092915050565b8273ffffffffffffffffffffffffffffffffffffffff16610fd18261076c565b73ffffffffffffffffffffffffffffffffffffffff1614611027576040517f08c379a000000000000000000000000000000000000000000000000000000000815260040161101e906127cb565b60405180910390fd5b600073ffffffffffffffffffffffffffffffffffffffff168273ffffffffffffffffffffffffffffffffffffffff1603611096576040517f08c379a000000000000000000000000000000000000000000000000000000000815260040161108d9061285d565b60405180910390fd5b6110a18383836116a3565b6110ac600082610e63565b6001600360008573ffffffffffffffffffffffffffffffffffffffff1673ffffffffffffffffffffffffffffffffffffffff16815260200190815260200160002060008282546110fc919061287d565b925050819055506001600360008473ffffffffffffffffffffffffffffffffffffffff1673ffffffffffffffffffffffffffffffffffffffff168152602001908152602001600020600082825461115391906128b1565b92505081905550816002600083815260200190815260200160002060006101000a81548173ffffffffffffffffffffffffffffffffffffffff021916908373ffffffffffffffffffffffffffffffffffffffff160217905550808273ffffffffffffffffffffffffffffffffffffffff168473ffffffffffffffffffffffffffffffffffffffff167fddf252ad1be2c89b69c2b068fc378daa952ba7f163c4a11628f55a4df523b3ef60405160405180910390a46112128383836116a8565b505050565b8173ffffffffffffffffffffffffffffffffffffffff168373ffffffffffffffffffffffffffffffffffffffff1603611285576040517f08c379a000000000000000000000000000000000000000000000000000000000815260040161127c90612931565b60405180910390fd5b80600560008573ffffffffffffffffffffffffffffffffffffffff1673ffffffffffffffffffffffffffffffffffffffff16815260200190815260200160002060008473ffffffffffffffffffffffffffffffffffffffff1673ffffffffffffffffffffffffffffffffffffffff16815260200190815260200160002060006101000a81548160ff0219169083151502179055508173ffffffffffffffffffffffffffffffffffffffff168373ffffffffffffffffffffffffffffffffffffffff167f17307eab39ab6107e8899845ad3d59bd9653f200f220920489ca2b5937696c31836040516113769190611a6b565b60405180910390a3505050565b61138e848484610fb1565b61139a848484846116ad565b6113d9576040517f08c379a00000000000000000000000000000000000000000000000000000000081526004016113d0906129c3565b60405180910390fd5b50505050565b600073ffffffffffffffffffffffffffffffffffffffff168273ffffffffffffffffffffffffffffffffffffffff160361144e576040517f08c379a000000000000000000000000000000000000000000000000000000000815260040161144590612a2f565b60405180910390fd5b61145781611637565b15611497576040517f08c379a000000000000000000000000000000000000000000000000000000000815260040161148e90612a9b565b60405180910390fd5b6114a3600083836116a3565b6001600360008473ffffffffffffffffffffffffffffffffffffffff1673ffffffffffffffffffffffffffffffffffffffff16815260200190815260200160002060008282546114f391906128b1565b92505081905550816002600083815260200190815260200160002060006101000a81548173ffffffffffffffffffffffffffffffffffffffff021916908373ffffffffffffffffffffffffffffffffffffffff160217905550808273ffffffffffffffffffffffffffffffffffffffff16600073ffffffffffffffffffffffffffffffffffffffff167fddf252ad1be2c89b69c2b068fc378daa952ba7f163c4a11628f55a4df523b3ef60405160405180910390a46115b4600083836116a8565b5050565b606060405180602001604052806000815250905090565b60606115da82610e10565b60006115e46115b8565b90506000815111611604576040518060200160405280600081525061162f565b8061160e84611834565b60405160200161161f929190612735565b6040516020818303038152906040525b915050919050565b60008073ffffffffffffffffffffffffffffffffffffffff166002600084815260200190815260200160002060009054906101000a900473ffffffffffffffffffffffffffffffffffffffff1673ffffffffffffffffffffffffffffffffffffffff1614159050919050565b505050565b505050565b60006116ce8473ffffffffffffffffffffffffffffffffffffffff16611994565b15611827578373ffffffffffffffffffffffffffffffffffffffff1663150b7a026116f7610e5b565b8786866040518563ffffffff1660e01b81526004016117199493929190612b10565b6020604051808303816000875af192505050801561175557506040513d601f19601f820116820180604052508101906117529190612b71565b60015b6117d7573d8060008114611785576040519150601f19603f3d011682016040523d82523d6000602084013e61178a565b606091505b5060008151036117cf576040517f08c379a00000000000000000000000000000000000000000000000000000000081526004016117c6906129c3565b60405180910390fd5b805181602001fd5b63150b7a0260e01b7bffffffffffffffffffffffffffffffffffffffffffffffffffffffff1916817bffffffffffffffffffffffffffffffffffffffffffffffffffffffff19161491505061182c565b600190505b949350505050565b60606000820361187b576040518060400160405280600181526020017f3000000000000000000000000000000000000000000000000000000000000000815250905061198f565b600082905060005b600082146118ad57808061189690612335565b915050600a826118a69190612bcd565b9150611883565b60008167ffffffffffffffff8111156118c9576118c8611dc3565b5b6040519080825280601f01601f1916602001820160405280156118fb5781602001600182028036833780820191505090505b5090505b6000851461198857600182611914919061287d565b9150600a856119239190612bfe565b603061192f91906128b1565b60f81b818381518110611945576119446122d7565b5b60200101907effffffffffffffffffffffffffffffffffffffffffffffffffffffffffffff1916908160001a905350600a856119819190612bcd565b94506118ff565b8093505050505b919050565b6000808273ffffffffffffffffffffffffffffffffffffffff163b119050919050565b6000604051905090565b600080fd5b600080fd5b60007fffffffff0000000000000000000000000000000000000000000000000000000082169050919050565b611a00816119cb565b8114611a0b57600080fd5b50565b600081359050611a1d816119f7565b92915050565b600060208284031215611a3957611a386119c1565b5b6000611a4784828501611a0e565b91505092915050565b60008115159050919050565b611a6581611a50565b82525050565b6000602082019050611a806000830184611a5c565b92915050565b600081519050919050565b600082825260208201905092915050565b60005b83811015611ac0578082015181840152602081019050611aa5565b60008484015250505050565b6000601f19601f8301169050919050565b6000611ae882611a86565b611af28185611a91565b9350611b02818560208601611aa2565b611b0b81611acc565b840191505092915050565b60006020820190508181036000830152611b308184611add565b905092915050565b6000819050919050565b611b4b81611b38565b8114611b5657600080fd5b50565b600081359050611b6881611b42565b92915050565b600060208284031215611b8457611b836119c1565b5b6000611b9284828501611b59565b91505092915050565b600073ffffffffffffffffffffffffffffffffffffffff82169050919050565b6000611bc682611b9b565b9050919050565b611bd681611bbb565b82525050565b6000602082019050611bf16000830184611bcd565b92915050565b611c0081611bbb565b8114611c0b57600080fd5b50565b600081359050611c1d81611bf7565b92915050565b60008060408385031215611c3a57611c396119c1565b5b6000611c4885828601611c0e565b9250506020611c5985828601611b59565b9150509250929050565b600080600060608486031215611c7c57611c7b6119c1565b5b6000611c8a86828701611c0e565b9350506020611c9b86828701611c0e565b9250506040611cac86828701611b59565b9150509250925092565b600060208284031215611ccc57611ccb6119c1565b5b6000611cda84828501611c0e565b91505092915050565b611cec81611b38565b82525050565b6000602082019050611d076000830184611ce3565b92915050565b60008060408385031215611d2457611d236119c1565b5b6000611d3285828601611b59565b9250506020611d4385828601611c0e565b9150509250929050565b611d5681611a50565b8114611d6157600080fd5b50565b600081359050611d7381611d4d565b92915050565b60008060408385031215611d9057611d8f6119c1565b5b6000611d9e85828601611c0e565b9250506020611daf85828601611d64565b9150509250929050565b600080fd5b600080fd5b7f4e487b7100000000000000000000000000000000000000000000000000000000600052604160045260246000fd5b611dfb82611acc565b810181811067ffffffffffffffff82111715611e1a57611e19611dc3565b5b80604052505050565b6000611e2d6119b7565b9050611e398282611df2565b919050565b600067ffffffffffffffff821115611e5957611e58611dc3565b5b611e6282611acc565b9050602081019050919050565b82818337600083830152505050565b6000611e91611e8c84611e3e565b611e23565b905082815260208101848484011115611ead57611eac611dbe565b5b611eb8848285611e6f565b509392505050565b600082601f830112611ed557611ed4611db9565b5b8135611ee5848260208601611e7e565b91505092915050565b60008060008060808587031215611f0857611f076119c1565b5b6000611f1687828801611c0e565b9450506020611f2787828801611c0e565b9350506040611f3887828801611b59565b925050606085013567ffffffffffffffff811115611f5957611f586119c6565b5b611f6587828801611ec0565b91505092959194509250565b600067ffffffffffffffff821115611f8c57611f8b611dc3565b5b611f9582611acc565b9050602081019050919050565b6000611fb5611fb084611f71565b611e23565b905082815260208101848484011115611fd157611fd0611dbe565b5b611fdc848285611e6f565b509392505050565b600082601f830112611ff957611ff8611db9565b5b8135612009848260208601611fa2565b91505092915050565b60008060006060848603121561202b5761202a6119c1565b5b600084013567ffffffffffffffff811115612049576120486119c6565b5b61205586828701611fe4565b935050602061206686828701611c0e565b925050604061207786828701611b59565b9150509250925092565b60008060408385031215612098576120976119c1565b5b60006120a685828601611c0e565b92505060206120b785828601611c0e565b9150509250929050565b7f4e487b7100000000000000000000000000000000000000000000000000000000600052602260045260246000fd5b6000600282049050600182168061210857607f821691505b60208210810361211b5761211a6120c1565b5b50919050565b7f4552433732313a20617070726f76616c20746f2063757272656e74206f776e6560008201527f7200000000000000000000000000000000000000000000000000000000000000602082015250565b600061217d602183611a91565b915061218882612121565b604082019050919050565b600060208201905081810360008301526121ac81612170565b9050919050565b7f4552433732313a20617070726f76652063616c6c6572206973206e6f7420746f60008201527f6b656e206f776e6572206e6f7220617070726f76656420666f7220616c6c0000602082015250565b600061220f603e83611a91565b915061221a826121b3565b604082019050919050565b6000602082019050818103600083015261223e81612202565b9050919050565b7f4552433732313a2063616c6c6572206973206e6f7420746f6b656e206f776e6560008201527f72206e6f7220617070726f766564000000000000000000000000000000000000602082015250565b60006122a1602e83611a91565b91506122ac82612245565b604082019050919050565b600060208201905081810360008301526122d081612294565b9050919050565b7f4e487b7100000000000000000000000000000000000000000000000000000000600052603260045260246000fd5b7f4e487b7100000000000000000000000000000000000000000000000000000000600052601160045260246000fd5b600061234082611b38565b91507fffffffffffffffffffffffffffffffffffffffffffffffffffffffffffffffff820361237257612371612306565b5b600182019050919050565b7f4552433732313a20696e76616c696420746f6b656e2049440000000000000000600082015250565b60006123b3601883611a91565b91506123be8261237d565b602082019050919050565b600060208201905081810360008301526123e2816123a6565b9050919050565b7f4552433732313a2061646472657373207a65726f206973206e6f74206120766160008201527f6c6964206f776e65720000000000000000000000000000000000000000000000602082015250565b6000612445602983611a91565b9150612450826123e9565b604082019050919050565b6000602082019050818103600083015261247481612438565b9050919050565b60008190508160005260206000209050919050565b60006020601f8301049050919050565b600082821b905092915050565b6000600883026124dd7fffffffffffffffffffffffffffffffffffffffffffffffffffffffffffffffff826124a0565b6124e786836124a0565b95508019841693508086168417925050509392505050565b6000819050919050565b600061252461251f61251a84611b38565b6124ff565b611b38565b9050919050565b6000819050919050565b61253e83612509565b61255261254a8261252b565b8484546124ad565b825550505050565b600090565b61256761255a565b612572818484612535565b505050565b5b818110156125965761258b60008261255f565b600181019050612578565b5050565b601f8211156125db576125ac8161247b565b6125b584612490565b810160208510156125c4578190505b6125d86125d085612490565b830182612577565b50505b505050565b600082821c905092915050565b60006125fe600019846008026125e0565b1980831691505092915050565b600061261783836125ed565b9150826002028217905092915050565b61263082611a86565b67ffffffffffffffff81111561264957612648611dc3565b5b61265382546120f0565b61265e82828561259a565b600060209050601f831160018114612691576000841561267f578287015190505b612689858261260b565b8655506126f1565b601f19841661269f8661247b565b60005b828110156126c7578489015182556001820191506020850194506020810190506126a2565b868310156126e457848901516126e0601f8916826125ed565b8355505b6001600288020188555050505b505050505050565b600081905092915050565b600061270f82611a86565b61271981856126f9565b9350612729818560208601611aa2565b80840191505092915050565b60006127418285612704565b915061274d8284612704565b91508190509392505050565b7f4552433732313a207472616e736665722066726f6d20696e636f72726563742060008201527f6f776e6572000000000000000000000000000000000000000000000000000000602082015250565b60006127b5602583611a91565b91506127c082612759565b604082019050919050565b600060208201905081810360008301526127e4816127a8565b9050919050565b7f4552433732313a207472616e7366657220746f20746865207a65726f2061646460008201527f7265737300000000000000000000000000000000000000000000000000000000602082015250565b6000612847602483611a91565b9150612852826127eb565b604082019050919050565b600060208201905081810360008301526128768161283a565b9050919050565b600061288882611b38565b915061289383611b38565b92508282039050818111156128ab576128aa612306565b5b92915050565b60006128bc82611b38565b91506128c783611b38565b92508282019050808211156128df576128de612306565b5b92915050565b7f4552433732313a20617070726f766520746f2063616c6c657200000000000000600082015250565b600061291b601983611a91565b9150612926826128e5565b602082019050919050565b6000602082019050818103600083015261294a8161290e565b9050919050565b7f4552433732313a207472616e7366657220746f206e6f6e20455243373231526560008201527f63656976657220696d706c656d656e7465720000000000000000000000000000602082015250565b60006129ad603283611a91565b91506129b882612951565b604082019050919050565b600060208201905081810360008301526129dc816129a0565b9050919050565b7f4552433732313a206d696e7420746f20746865207a65726f2061646472657373600082015250565b6000612a19602083611a91565b9150612a24826129e3565b602082019050919050565b60006020820190508181036000830152612a4881612a0c565b9050919050565b7f4552433732313a20746f6b656e20616c7265616479206d696e74656400000000600082015250565b6000612a85601c83611a91565b9150612a9082612a4f565b602082019050919050565b60006020820190508181036000830152612ab481612a78565b9050919050565b600081519050919050565b600082825260208201905092915050565b6000612ae282612abb565b612aec8185612ac6565b9350612afc818560208601611aa2565b612b0581611acc565b840191505092915050565b6000608082019050612b256000830187611bcd565b612b326020830186611bcd565b612b3f6040830185611ce3565b8181036060830152612b518184612ad7565b905095945050505050565b600081519050612b6b816119f7565b92915050565b600060208284031215612b8757612b866119c1565b5b6000612b9584828501612b5c565b91505092915050565b7f4e487b7100000000000000000000000000000000000000000000000000000000600052601260045260246000fd5b6000612bd882611b38565b9150612be383611b38565b925082612bf357612bf2612b9e565b5b828204905092915050565b6000612c0982611b38565b9150612c1483611b38565b925082612c2457612c23612b9e565b5b82820690509291505056fea264697066735822122053694b0c2323aac4b5dd84c03c6a6e3bf0b1aac37df9056f928f2af40311485b64736f6c63430008110033",
  "immutableReferences": {},
  "source": "// SPDX-License-Identifier: MIT\npragma solidity ^0.8.4;\n\nimport \"@openzeppelin/contracts/token/ERC721/extensions/ERC721URIStorage.sol\";\nimport \"./GymStore.sol\";\n\ncontract GymSubscription is ERC721URIStorage {\n    GymStore private _gymStore;\n    uint256 serviceId = 0;\n\n    struct storeSubscription {\n        uint256 tokenId;\n        string ipfsHash;\n        address owner;\n        uint256 createdAt; // timestamp\n        uint256 invalidAfter; // timestamp after which service is invalid\n    }\n\n    storeSubscription[] subscriptions;\n\n    constructor(address gymStoreContract) ERC721(\"GymSubscriptionNFT\", \"GSFT\") {\n        _gymStore = GymStore(gymStoreContract);\n    }\n\n    function createSubscription(\n        string memory ipfsHash,\n        address ownerAddress,\n        uint256 invalidAfter\n    ) public {\n        if (ownerAddress == address(0)) {\n            ownerAddress = msg.sender;\n        }\n\n        uint256 sid = subscriptions.length;\n        storeSubscription memory nextSub = storeSubscription(\n            sid,\n            ipfsHash,\n            ownerAddress,\n            block.timestamp,\n            invalidAfter\n        );\n        subscriptions.push(nextSub);\n        _mint(msg.sender, serviceId);\n        serviceId++;\n    }\n\n    function hasStoreSubscription(address userAddr) public view returns (bool) {\n        for (uint256 i = 0; i < serviceId; i++) {\n            if (subscriptions[i].owner == userAddr) {\n                return true;\n            }\n        }\n        return false;\n    }\n\n    function transferSubscription(uint256 sId, address transferAddr)\n        public\n        returns (bool)\n    {\n        for (uint256 i = 0; i < serviceId; i++) {\n            if (subscriptions[i].tokenId == sId) {\n                // make the transfer now\n                subscriptions[i].owner = transferAddr;\n                return true;\n            }\n        }\n        return false;\n    }\n}\n",
  "sourcePath": "/Users/sagaranand/Documents/workspace-open/allfit/_backend/contracts/GymSubscription.sol",
  "compiler": {
    "name": "solc",
    "version": "0.8.17+commit.8df45f5f.Emscripten.clang"
  },
  "schemaVersion": "3.4.10",
  "updatedAt": "2022-10-12T11:33:40.535Z",
  "networkType": "ethereum",
  "devdoc": {
    "kind": "dev",
    "methods": {
      "approve(address,uint256)": {
        "details": "See {IERC721-approve}."
      },
      "balanceOf(address)": {
        "details": "See {IERC721-balanceOf}."
      },
      "getApproved(uint256)": {
        "details": "See {IERC721-getApproved}."
      },
      "isApprovedForAll(address,address)": {
        "details": "See {IERC721-isApprovedForAll}."
      },
      "name()": {
        "details": "See {IERC721Metadata-name}."
      },
      "ownerOf(uint256)": {
        "details": "See {IERC721-ownerOf}."
      },
      "safeTransferFrom(address,address,uint256)": {
        "details": "See {IERC721-safeTransferFrom}."
      },
      "safeTransferFrom(address,address,uint256,bytes)": {
        "details": "See {IERC721-safeTransferFrom}."
      },
      "setApprovalForAll(address,bool)": {
        "details": "See {IERC721-setApprovalForAll}."
      },
      "supportsInterface(bytes4)": {
        "details": "See {IERC165-supportsInterface}."
      },
      "symbol()": {
        "details": "See {IERC721Metadata-symbol}."
      },
      "tokenURI(uint256)": {
        "details": "See {IERC721Metadata-tokenURI}."
      },
      "transferFrom(address,address,uint256)": {
        "details": "See {IERC721-transferFrom}."
      }
    },
    "version": 1
  },
  "userdoc": {
    "kind": "user",
    "methods": {},
    "version": 1
  }
}