{
  "contractName": "GymStore",
  "abi": [
    {
      "inputs": [],
      "stateMutability": "nonpayable",
      "type": "constructor"
    },
    {
      "anonymous": false,
      "inputs": [
        {
          "indexed": true,
          "internalType": "address",
          "name": "owner",
          "type": "address"
        },
        {
          "indexed": true,
          "internalType": "address",
          "name": "approved",
          "type": "address"
        },
        {
          "indexed": true,
          "internalType": "uint256",
          "name": "tokenId",
          "type": "uint256"
        }
      ],
      "name": "Approval",
      "type": "event"
    },
    {
      "anonymous": false,
      "inputs": [
        {
          "indexed": true,
          "internalType": "address",
          "name": "owner",
          "type": "address"
        },
        {
          "indexed": true,
          "internalType": "address",
          "name": "operator",
          "type": "address"
        },
        {
          "indexed": false,
          "internalType": "bool",
          "name": "approved",
          "type": "bool"
        }
      ],
      "name": "ApprovalForAll",
      "type": "event"
    },
    {
      "anonymous": false,
      "inputs": [
        {
          "indexed": true,
          "internalType": "address",
          "name": "from",
          "type": "address"
        },
        {
          "indexed": true,
          "internalType": "address",
          "name": "to",
          "type": "address"
        },
        {
          "indexed": true,
          "internalType": "uint256",
          "name": "tokenId",
          "type": "uint256"
        }
      ],
      "name": "Transfer",
      "type": "event"
    },
    {
      "inputs": [
        {
          "internalType": "address",
          "name": "to",
          "type": "address"
        },
        {
          "internalType": "uint256",
          "name": "tokenId",
          "type": "uint256"
        }
      ],
      "name": "approve",
      "outputs": [],
      "stateMutability": "nonpayable",
      "type": "function"
    },
    {
      "inputs": [
        {
          "internalType": "address",
          "name": "owner",
          "type": "address"
        }
      ],
      "name": "balanceOf",
      "outputs": [
        {
          "internalType": "uint256",
          "name": "",
          "type": "uint256"
        }
      ],
      "stateMutability": "view",
      "type": "function",
      "constant": true
    },
    {
      "inputs": [
        {
          "internalType": "uint256",
          "name": "tokenId",
          "type": "uint256"
        }
      ],
      "name": "getApproved",
      "outputs": [
        {
          "internalType": "address",
          "name": "",
          "type": "address"
        }
      ],
      "stateMutability": "view",
      "type": "function",
      "constant": true
    },
    {
      "inputs": [
        {
          "internalType": "address",
          "name": "owner",
          "type": "address"
        },
        {
          "internalType": "address",
          "name": "operator",
          "type": "address"
        }
      ],
      "name": "isApprovedForAll",
      "outputs": [
        {
          "internalType": "bool",
          "name": "",
          "type": "bool"
        }
      ],
      "stateMutability": "view",
      "type": "function",
      "constant": true
    },
    {
      "inputs": [],
      "name": "name",
      "outputs": [
        {
          "internalType": "string",
          "name": "",
          "type": "string"
        }
      ],
      "stateMutability": "view",
      "type": "function",
      "constant": true
    },
    {
      "inputs": [
        {
          "internalType": "uint256",
          "name": "tokenId",
          "type": "uint256"
        }
      ],
      "name": "ownerOf",
      "outputs": [
        {
          "internalType": "address",
          "name": "",
          "type": "address"
        }
      ],
      "stateMutability": "view",
      "type": "function",
      "constant": true
    },
    {
      "inputs": [
        {
          "internalType": "address",
          "name": "from",
          "type": "address"
        },
        {
          "internalType": "address",
          "name": "to",
          "type": "address"
        },
        {
          "internalType": "uint256",
          "name": "tokenId",
          "type": "uint256"
        }
      ],
      "name": "safeTransferFrom",
      "outputs": [],
      "stateMutability": "nonpayable",
      "type": "function"
    },
    {
      "inputs": [
        {
          "internalType": "address",
          "name": "from",
          "type": "address"
        },
        {
          "internalType": "address",
          "name": "to",
          "type": "address"
        },
        {
          "internalType": "uint256",
          "name": "tokenId",
          "type": "uint256"
        },
        {
          "internalType": "bytes",
          "name": "data",
          "type": "bytes"
        }
      ],
      "name": "safeTransferFrom",
      "outputs": [],
      "stateMutability": "nonpayable",
      "type": "function"
    },
    {
      "inputs": [
        {
          "internalType": "address",
          "name": "operator",
          "type": "address"
        },
        {
          "internalType": "bool",
          "name": "approved",
          "type": "bool"
        }
      ],
      "name": "setApprovalForAll",
      "outputs": [],
      "stateMutability": "nonpayable",
      "type": "function"
    },
    {
      "inputs": [
        {
          "internalType": "bytes4",
          "name": "interfaceId",
          "type": "bytes4"
        }
      ],
      "name": "supportsInterface",
      "outputs": [
        {
          "internalType": "bool",
          "name": "",
          "type": "bool"
        }
      ],
      "stateMutability": "view",
      "type": "function",
      "constant": true
    },
    {
      "inputs": [],
      "name": "symbol",
      "outputs": [
        {
          "internalType": "string",
          "name": "",
          "type": "string"
        }
      ],
      "stateMutability": "view",
      "type": "function",
      "constant": true
    },
    {
      "inputs": [
        {
          "internalType": "uint256",
          "name": "tokenId",
          "type": "uint256"
        }
      ],
      "name": "tokenURI",
      "outputs": [
        {
          "internalType": "string",
          "name": "",
          "type": "string"
        }
      ],
      "stateMutability": "view",
      "type": "function",
      "constant": true
    },
    {
      "inputs": [
        {
          "internalType": "address",
          "name": "from",
          "type": "address"
        },
        {
          "internalType": "address",
          "name": "to",
          "type": "address"
        },
        {
          "internalType": "uint256",
          "name": "tokenId",
          "type": "uint256"
        }
      ],
      "name": "transferFrom",
      "outputs": [],
      "stateMutability": "nonpayable",
      "type": "function"
    },
    {
      "inputs": [
        {
          "internalType": "string",
          "name": "ipfsHash",
          "type": "string"
        },
        {
          "internalType": "address[]",
          "name": "_subscriptions",
          "type": "address[]"
        }
      ],
      "name": "createStore",
      "outputs": [],
      "stateMutability": "nonpayable",
      "type": "function"
    },
    {
      "inputs": [
        {
          "internalType": "uint256",
          "name": "_storeId",
          "type": "uint256"
        }
      ],
      "name": "getStore",
      "outputs": [
        {
          "internalType": "uint256",
          "name": "",
          "type": "uint256"
        },
        {
          "internalType": "string",
          "name": "",
          "type": "string"
        },
        {
          "internalType": "address",
          "name": "",
          "type": "address"
        },
        {
          "internalType": "uint256",
          "name": "",
          "type": "uint256"
        },
        {
          "internalType": "address[]",
          "name": "",
          "type": "address[]"
        }
      ],
      "stateMutability": "view",
      "type": "function",
      "constant": true
    },
    {
      "inputs": [
        {
          "internalType": "address",
          "name": "ownerAddress",
          "type": "address"
        }
      ],
      "name": "getOwnerStore",
      "outputs": [
        {
          "internalType": "uint256",
          "name": "",
          "type": "uint256"
        },
        {
          "internalType": "string",
          "name": "",
          "type": "string"
        },
        {
          "internalType": "address",
          "name": "",
          "type": "address"
        },
        {
          "internalType": "uint256",
          "name": "",
          "type": "uint256"
        },
        {
          "internalType": "address[]",
          "name": "",
          "type": "address[]"
        }
      ],
      "stateMutability": "view",
      "type": "function",
      "constant": true
    },
    {
      "inputs": [
        {
          "internalType": "uint256",
          "name": "_storeId",
          "type": "uint256"
        }
      ],
      "name": "deleteStore",
      "outputs": [],
      "stateMutability": "nonpayable",
      "type": "function"
    },
    {
      "inputs": [
        {
          "internalType": "uint256",
          "name": "storeId",
          "type": "uint256"
        }
      ],
      "name": "getStoreOwner",
      "outputs": [
        {
          "internalType": "address",
          "name": "",
          "type": "address"
        }
      ],
      "stateMutability": "view",
      "type": "function",
      "constant": true
    },
    {
      "inputs": [],
      "name": "getStoreNumber",
      "outputs": [
        {
          "internalType": "uint256",
          "name": "",
          "type": "uint256"
        }
      ],
      "stateMutability": "view",
      "type": "function",
      "constant": true
    },
    {
      "inputs": [
        {
          "internalType": "address",
          "name": "_address",
          "type": "address"
        }
      ],
      "name": "getStoreId",
      "outputs": [
        {
          "internalType": "uint256",
          "name": "",
          "type": "uint256"
        }
      ],
      "stateMutability": "view",
      "type": "function",
      "constant": true
    },
    {
      "inputs": [
        {
          "internalType": "address",
          "name": "_storeOWner",
          "type": "address"
        }
      ],
      "name": "ownsAStore",
      "outputs": [
        {
          "internalType": "bool",
          "name": "",
          "type": "bool"
        }
      ],
      "stateMutability": "view",
      "type": "function",
      "constant": true
    }
  ],
  "bytecode": "0x608060405260006007553480156200001657600080fd5b506040518060400160405280600b81526020017f47796d53746f72654e46540000000000000000000000000000000000000000008152506040518060400160405280600381526020017f4753540000000000000000000000000000000000000000000000000000000000815250816000908162000094919062000329565b508060019081620000a6919062000329565b50505062000410565b600081519050919050565b7f4e487b7100000000000000000000000000000000000000000000000000000000600052604160045260246000fd5b7f4e487b7100000000000000000000000000000000000000000000000000000000600052602260045260246000fd5b600060028204905060018216806200013157607f821691505b602082108103620001475762000146620000e9565b5b50919050565b60008190508160005260206000209050919050565b60006020601f8301049050919050565b600082821b905092915050565b600060088302620001b17fffffffffffffffffffffffffffffffffffffffffffffffffffffffffffffffff8262000172565b620001bd868362000172565b95508019841693508086168417925050509392505050565b6000819050919050565b6000819050919050565b60006200020a62000204620001fe84620001d5565b620001df565b620001d5565b9050919050565b6000819050919050565b6200022683620001e9565b6200023e620002358262000211565b8484546200017f565b825550505050565b600090565b6200025562000246565b620002628184846200021b565b505050565b5b818110156200028a576200027e6000826200024b565b60018101905062000268565b5050565b601f821115620002d957620002a3816200014d565b620002ae8462000162565b81016020851015620002be578190505b620002d6620002cd8562000162565b83018262000267565b50505b505050565b600082821c905092915050565b6000620002fe60001984600802620002de565b1980831691505092915050565b6000620003198383620002eb565b9150826002028217905092915050565b6200033482620000af565b67ffffffffffffffff81111562000350576200034f620000ba565b5b6200035c825462000118565b620003698282856200028e565b600060209050601f831160018114620003a157600084156200038c578287015190505b6200039885826200030b565b86555062000408565b601f198416620003b1866200014d565b60005b82811015620003db57848901518255600182019150602085019450602081019050620003b4565b86831015620003fb5784890151620003f7601f891682620002eb565b8355505b6001600288020188555050505b505050505050565b61361e80620004206000396000f3fe608060405234801561001057600080fd5b50600436106101375760003560e01c80636baf8408116100b8578063a22cb4651161007c578063a22cb465146103a0578063b88d4fde146103bc578063b8acdb01146103d8578063c87b56dd146103f6578063de5cf9f414610426578063e985e9c51461044257610137565b80636baf8408146102d257806370a08231146103025780637cc6932514610332578063834031201461034e57806395d89b411461038257610137565b806342842e0e116100ff57806342842e0e146101f2578063451bf3531461020e5780635c96e75114610242578063603acf10146102725780636352211e146102a257610137565b806301ffc9a71461013c57806306fdde031461016c578063081812fc1461018a578063095ea7b3146101ba57806323b872dd146101d6575b600080fd5b6101566004803603810190610151919061219a565b610472565b60405161016391906121e2565b60405180910390f35b610174610554565b604051610181919061228d565b60405180910390f35b6101a4600480360381019061019f91906122e5565b6105e6565b6040516101b19190612353565b60405180910390f35b6101d460048036038101906101cf919061239a565b61062c565b005b6101f060048036038101906101eb91906123da565b610743565b005b61020c600480360381019061020791906123da565b6107a3565b005b6102286004803603810190610223919061242d565b6107c3565b604051610239959493929190612527565b60405180910390f35b61025c6004803603810190610257919061242d565b610a14565b6040516102699190612588565b60405180910390f35b61028c600480360381019061028791906122e5565b610a5d565b6040516102999190612353565b60405180910390f35b6102bc60048036038101906102b791906122e5565b610a9a565b6040516102c99190612353565b60405180910390f35b6102ec60048036038101906102e7919061242d565b610b4b565b6040516102f991906121e2565b60405180910390f35b61031c6004803603810190610317919061242d565b610ba1565b6040516103299190612588565b60405180910390f35b61034c600480360381019061034791906122e5565b610c58565b005b610368600480360381019061036391906122e5565b610cfc565b604051610379959493929190612527565b60405180910390f35b61038a610f08565b604051610397919061228d565b60405180910390f35b6103ba60048036038101906103b591906125cf565b610f9a565b005b6103d660048036038101906103d19190612744565b610fb0565b005b6103e0611012565b6040516103ed9190612588565b60405180910390f35b610410600480360381019061040b91906122e5565b61101c565b60405161041d919061228d565b60405180910390f35b610440600480360381019061043b9190612930565b61112e565b005b61045c600480360381019061045791906129a8565b6113e2565b60405161046991906121e2565b60405180910390f35b60007f80ac58cd000000000000000000000000000000000000000000000000000000007bffffffffffffffffffffffffffffffffffffffffffffffffffffffff1916827bffffffffffffffffffffffffffffffffffffffffffffffffffffffff1916148061053d57507f5b5e139f000000000000000000000000000000000000000000000000000000007bffffffffffffffffffffffffffffffffffffffffffffffffffffffff1916827bffffffffffffffffffffffffffffffffffffffffffffffffffffffff1916145b8061054d575061054c82611476565b5b9050919050565b60606000805461056390612a17565b80601f016020809104026020016040519081016040528092919081815260200182805461058f90612a17565b80156105dc5780601f106105b1576101008083540402835291602001916105dc565b820191906000526020600020905b8154815290600101906020018083116105bf57829003601f168201915b5050505050905090565b60006105f1826114e0565b6004600083815260200190815260200160002060009054906101000a900473ffffffffffffffffffffffffffffffffffffffff169050919050565b600061063782610a9a565b90508073ffffffffffffffffffffffffffffffffffffffff168373ffffffffffffffffffffffffffffffffffffffff16036106a7576040517f08c379a000000000000000000000000000000000000000000000000000000000815260040161069e90612aba565b60405180910390fd5b8073ffffffffffffffffffffffffffffffffffffffff166106c661152b565b73ffffffffffffffffffffffffffffffffffffffff1614806106f557506106f4816106ef61152b565b6113e2565b5b610734576040517f08c379a000000000000000000000000000000000000000000000000000000000815260040161072b90612b4c565b60405180910390fd5b61073e8383611533565b505050565b61075461074e61152b565b826115ec565b610793576040517f08c379a000000000000000000000000000000000000000000000000000000000815260040161078a90612bde565b60405180910390fd5b61079e838383611681565b505050565b6107be83838360405180602001604052806000815250610fb0565b505050565b6000606060008060606000600b60008873ffffffffffffffffffffffffffffffffffffffff1673ffffffffffffffffffffffffffffffffffffffff1681526020019081526020016000205490506008818154811061082457610823612bfe565b5b9060005260206000209060050201600001546008828154811061084a57610849612bfe565b5b90600052602060002090600502016002016008838154811061086f5761086e612bfe565b5b906000526020600020906005020160010160009054906101000a900473ffffffffffffffffffffffffffffffffffffffff16600884815481106108b5576108b4612bfe565b5b906000526020600020906005020160030154600885815481106108db576108da612bfe565b5b90600052602060002090600502016004018380546108f890612a17565b80601f016020809104026020016040519081016040528092919081815260200182805461092490612a17565b80156109715780601f1061094657610100808354040283529160200191610971565b820191906000526020600020905b81548152906001019060200180831161095457829003601f168201915b50505050509350808054806020026020016040519081016040528092919081815260200182805480156109f957602002820191906000526020600020905b8160009054906101000a900473ffffffffffffffffffffffffffffffffffffffff1673ffffffffffffffffffffffffffffffffffffffff16815260200190600101908083116109af575b50505050509050955095509550955095505091939590929450565b6000600b60008373ffffffffffffffffffffffffffffffffffffffff1673ffffffffffffffffffffffffffffffffffffffff168152602001908152602001600020549050919050565b6000600a600083815260200190815260200160002060009054906101000a900473ffffffffffffffffffffffffffffffffffffffff169050919050565b6000806002600084815260200190815260200160002060009054906101000a900473ffffffffffffffffffffffffffffffffffffffff169050600073ffffffffffffffffffffffffffffffffffffffff168173ffffffffffffffffffffffffffffffffffffffff1603610b42576040517f08c379a0000000000000000000000000000000000000000000000000000000008152600401610b3990612c79565b60405180910390fd5b80915050919050565b6000600c60008373ffffffffffffffffffffffffffffffffffffffff1673ffffffffffffffffffffffffffffffffffffffff16815260200190815260200160002060009054906101000a900460ff169050919050565b60008073ffffffffffffffffffffffffffffffffffffffff168273ffffffffffffffffffffffffffffffffffffffff1603610c11576040517f08c379a0000000000000000000000000000000000000000000000000000000008152600401610c0890612d0b565b60405180910390fd5b600360008373ffffffffffffffffffffffffffffffffffffffff1673ffffffffffffffffffffffffffffffffffffffff168152602001908152602001600020549050919050565b3373ffffffffffffffffffffffffffffffffffffffff16600a600083815260200190815260200160002060009054906101000a900473ffffffffffffffffffffffffffffffffffffffff1673ffffffffffffffffffffffffffffffffffffffff1614610cc357600080fd5b600a600082815260200190815260200160002060006101000a81549073ffffffffffffffffffffffffffffffffffffffff021916905550565b60006060600080606060088681548110610d1957610d18612bfe565b5b90600052602060002090600502016000015460088781548110610d3f57610d3e612bfe565b5b906000526020600020906005020160020160088881548110610d6457610d63612bfe565b5b906000526020600020906005020160010160009054906101000a900473ffffffffffffffffffffffffffffffffffffffff1660088981548110610daa57610da9612bfe565b5b90600052602060002090600502016003015460088a81548110610dd057610dcf612bfe565b5b9060005260206000209060050201600401838054610ded90612a17565b80601f0160208091040260200160405190810160405280929190818152602001828054610e1990612a17565b8015610e665780601f10610e3b57610100808354040283529160200191610e66565b820191906000526020600020905b815481529060010190602001808311610e4957829003601f168201915b5050505050935080805480602002602001604051908101604052809291908181526020018280548015610eee57602002820191906000526020600020905b8160009054906101000a900473ffffffffffffffffffffffffffffffffffffffff1673ffffffffffffffffffffffffffffffffffffffff1681526020019060010190808311610ea4575b505050505090509450945094509450945091939590929450565b606060018054610f1790612a17565b80601f0160208091040260200160405190810160405280929190818152602001828054610f4390612a17565b8015610f905780601f10610f6557610100808354040283529160200191610f90565b820191906000526020600020905b815481529060010190602001808311610f7357829003601f168201915b5050505050905090565b610fac610fa561152b565b83836118e7565b5050565b610fc1610fbb61152b565b836115ec565b611000576040517f08c379a0000000000000000000000000000000000000000000000000000000008152600401610ff790612bde565b60405180910390fd5b61100c84848484611a53565b50505050565b6000600754905090565b6060611027826114e0565b600060066000848152602001908152602001600020805461104790612a17565b80601f016020809104026020016040519081016040528092919081815260200182805461107390612a17565b80156110c05780601f10611095576101008083540402835291602001916110c0565b820191906000526020600020905b8154815290600101906020018083116110a357829003601f168201915b5050505050905060006110d1611aaf565b905060008151036110e6578192505050611129565b60008251111561111b578082604051602001611103929190612d67565b60405160208183030381529060405292505050611129565b61112484611ac6565b925050505b919050565b60001515600c60003373ffffffffffffffffffffffffffffffffffffffff1673ffffffffffffffffffffffffffffffffffffffff16815260200190815260200160002060009054906101000a900460ff161515146111c1576040517f08c379a00000000000000000000000000000000000000000000000000000000081526004016111b890612dfd565b60405180910390fd5b6000600880549050905060006040518060a001604052808381526020013373ffffffffffffffffffffffffffffffffffffffff16815260200185815260200142815260200184815250905060088190806001815401808255809150506001900390600052602060002090600502016000909190919091506000820151816000015560208201518160010160006101000a81548173ffffffffffffffffffffffffffffffffffffffff021916908373ffffffffffffffffffffffffffffffffffffffff160217905550604082015181600201908161129e9190612fc9565b506060820151816003015560808201518160040190805190602001906112c5929190612087565b5050506112d433600754611b2e565b6001600c60003373ffffffffffffffffffffffffffffffffffffffff1673ffffffffffffffffffffffffffffffffffffffff16815260200190815260200160002060006101000a81548160ff021916908315150217905550600754600b60003373ffffffffffffffffffffffffffffffffffffffff1673ffffffffffffffffffffffffffffffffffffffff1681526020019081526020016000208190555033600a600084815260200190815260200160002060006101000a81548173ffffffffffffffffffffffffffffffffffffffff021916908373ffffffffffffffffffffffffffffffffffffffff160217905550600760008154809291906113d7906130ca565b919050555050505050565b6000600560008473ffffffffffffffffffffffffffffffffffffffff1673ffffffffffffffffffffffffffffffffffffffff16815260200190815260200160002060008373ffffffffffffffffffffffffffffffffffffffff1673ffffffffffffffffffffffffffffffffffffffff16815260200190815260200160002060009054906101000a900460ff16905092915050565b60007f01ffc9a7000000000000000000000000000000000000000000000000000000007bffffffffffffffffffffffffffffffffffffffffffffffffffffffff1916827bffffffffffffffffffffffffffffffffffffffffffffffffffffffff1916149050919050565b6114e981611d07565b611528576040517f08c379a000000000000000000000000000000000000000000000000000000000815260040161151f90612c79565b60405180910390fd5b50565b600033905090565b816004600083815260200190815260200160002060006101000a81548173ffffffffffffffffffffffffffffffffffffffff021916908373ffffffffffffffffffffffffffffffffffffffff160217905550808273ffffffffffffffffffffffffffffffffffffffff166115a683610a9a565b73ffffffffffffffffffffffffffffffffffffffff167f8c5be1e5ebec7d5bd14f71427d1e84f3dd0314c0f7b2291e5b200ac8c7c3b92560405160405180910390a45050565b6000806115f883610a9a565b90508073ffffffffffffffffffffffffffffffffffffffff168473ffffffffffffffffffffffffffffffffffffffff16148061163a575061163981856113e2565b5b8061167857508373ffffffffffffffffffffffffffffffffffffffff16611660846105e6565b73ffffffffffffffffffffffffffffffffffffffff16145b91505092915050565b8273ffffffffffffffffffffffffffffffffffffffff166116a182610a9a565b73ffffffffffffffffffffffffffffffffffffffff16146116f7576040517f08c379a00000000000000000000000000000000000000000000000000000000081526004016116ee90613184565b60405180910390fd5b600073ffffffffffffffffffffffffffffffffffffffff168273ffffffffffffffffffffffffffffffffffffffff1603611766576040517f08c379a000000000000000000000000000000000000000000000000000000000815260040161175d90613216565b60405180910390fd5b611771838383611d73565b61177c600082611533565b6001600360008573ffffffffffffffffffffffffffffffffffffffff1673ffffffffffffffffffffffffffffffffffffffff16815260200190815260200160002060008282546117cc9190613236565b925050819055506001600360008473ffffffffffffffffffffffffffffffffffffffff1673ffffffffffffffffffffffffffffffffffffffff1681526020019081526020016000206000828254611823919061326a565b92505081905550816002600083815260200190815260200160002060006101000a81548173ffffffffffffffffffffffffffffffffffffffff021916908373ffffffffffffffffffffffffffffffffffffffff160217905550808273ffffffffffffffffffffffffffffffffffffffff168473ffffffffffffffffffffffffffffffffffffffff167fddf252ad1be2c89b69c2b068fc378daa952ba7f163c4a11628f55a4df523b3ef60405160405180910390a46118e2838383611d78565b505050565b8173ffffffffffffffffffffffffffffffffffffffff168373ffffffffffffffffffffffffffffffffffffffff1603611955576040517f08c379a000000000000000000000000000000000000000000000000000000000815260040161194c906132ea565b60405180910390fd5b80600560008573ffffffffffffffffffffffffffffffffffffffff1673ffffffffffffffffffffffffffffffffffffffff16815260200190815260200160002060008473ffffffffffffffffffffffffffffffffffffffff1673ffffffffffffffffffffffffffffffffffffffff16815260200190815260200160002060006101000a81548160ff0219169083151502179055508173ffffffffffffffffffffffffffffffffffffffff168373ffffffffffffffffffffffffffffffffffffffff167f17307eab39ab6107e8899845ad3d59bd9653f200f220920489ca2b5937696c3183604051611a4691906121e2565b60405180910390a3505050565b611a5e848484611681565b611a6a84848484611d7d565b611aa9576040517f08c379a0000000000000000000000000000000000000000000000000000000008152600401611aa09061337c565b60405180910390fd5b50505050565b606060405180602001604052806000815250905090565b6060611ad1826114e0565b6000611adb611aaf565b90506000815111611afb5760405180602001604052806000815250611b26565b80611b0584611f04565b604051602001611b16929190612d67565b6040516020818303038152906040525b915050919050565b600073ffffffffffffffffffffffffffffffffffffffff168273ffffffffffffffffffffffffffffffffffffffff1603611b9d576040517f08c379a0000000000000000000000000000000000000000000000000000000008152600401611b94906133e8565b60405180910390fd5b611ba681611d07565b15611be6576040517f08c379a0000000000000000000000000000000000000000000000000000000008152600401611bdd90613454565b60405180910390fd5b611bf260008383611d73565b6001600360008473ffffffffffffffffffffffffffffffffffffffff1673ffffffffffffffffffffffffffffffffffffffff1681526020019081526020016000206000828254611c42919061326a565b92505081905550816002600083815260200190815260200160002060006101000a81548173ffffffffffffffffffffffffffffffffffffffff021916908373ffffffffffffffffffffffffffffffffffffffff160217905550808273ffffffffffffffffffffffffffffffffffffffff16600073ffffffffffffffffffffffffffffffffffffffff167fddf252ad1be2c89b69c2b068fc378daa952ba7f163c4a11628f55a4df523b3ef60405160405180910390a4611d0360008383611d78565b5050565b60008073ffffffffffffffffffffffffffffffffffffffff166002600084815260200190815260200160002060009054906101000a900473ffffffffffffffffffffffffffffffffffffffff1673ffffffffffffffffffffffffffffffffffffffff1614159050919050565b505050565b505050565b6000611d9e8473ffffffffffffffffffffffffffffffffffffffff16612064565b15611ef7578373ffffffffffffffffffffffffffffffffffffffff1663150b7a02611dc761152b565b8786866040518563ffffffff1660e01b8152600401611de994939291906134c9565b6020604051808303816000875af1925050508015611e2557506040513d601f19601f82011682018060405250810190611e22919061352a565b60015b611ea7573d8060008114611e55576040519150601f19603f3d011682016040523d82523d6000602084013e611e5a565b606091505b506000815103611e9f576040517f08c379a0000000000000000000000000000000000000000000000000000000008152600401611e969061337c565b60405180910390fd5b805181602001fd5b63150b7a0260e01b7bffffffffffffffffffffffffffffffffffffffffffffffffffffffff1916817bffffffffffffffffffffffffffffffffffffffffffffffffffffffff191614915050611efc565b600190505b949350505050565b606060008203611f4b576040518060400160405280600181526020017f3000000000000000000000000000000000000000000000000000000000000000815250905061205f565b600082905060005b60008214611f7d578080611f66906130ca565b915050600a82611f769190613586565b9150611f53565b60008167ffffffffffffffff811115611f9957611f98612619565b5b6040519080825280601f01601f191660200182016040528015611fcb5781602001600182028036833780820191505090505b5090505b6000851461205857600182611fe49190613236565b9150600a85611ff391906135b7565b6030611fff919061326a565b60f81b81838151811061201557612014612bfe565b5b60200101907effffffffffffffffffffffffffffffffffffffffffffffffffffffffffffff1916908160001a905350600a856120519190613586565b9450611fcf565b8093505050505b919050565b6000808273ffffffffffffffffffffffffffffffffffffffff163b119050919050565b828054828255906000526020600020908101928215612100579160200282015b828111156120ff5782518260006101000a81548173ffffffffffffffffffffffffffffffffffffffff021916908373ffffffffffffffffffffffffffffffffffffffff160217905550916020019190600101906120a7565b5b50905061210d9190612111565b5090565b5b8082111561212a576000816000905550600101612112565b5090565b6000604051905090565b600080fd5b600080fd5b60007fffffffff0000000000000000000000000000000000000000000000000000000082169050919050565b61217781612142565b811461218257600080fd5b50565b6000813590506121948161216e565b92915050565b6000602082840312156121b0576121af612138565b5b60006121be84828501612185565b91505092915050565b60008115159050919050565b6121dc816121c7565b82525050565b60006020820190506121f760008301846121d3565b92915050565b600081519050919050565b600082825260208201905092915050565b60005b8381101561223757808201518184015260208101905061221c565b60008484015250505050565b6000601f19601f8301169050919050565b600061225f826121fd565b6122698185612208565b9350612279818560208601612219565b61228281612243565b840191505092915050565b600060208201905081810360008301526122a78184612254565b905092915050565b6000819050919050565b6122c2816122af565b81146122cd57600080fd5b50565b6000813590506122df816122b9565b92915050565b6000602082840312156122fb576122fa612138565b5b6000612309848285016122d0565b91505092915050565b600073ffffffffffffffffffffffffffffffffffffffff82169050919050565b600061233d82612312565b9050919050565b61234d81612332565b82525050565b60006020820190506123686000830184612344565b92915050565b61237781612332565b811461238257600080fd5b50565b6000813590506123948161236e565b92915050565b600080604083850312156123b1576123b0612138565b5b60006123bf85828601612385565b92505060206123d0858286016122d0565b9150509250929050565b6000806000606084860312156123f3576123f2612138565b5b600061240186828701612385565b935050602061241286828701612385565b9250506040612423868287016122d0565b9150509250925092565b60006020828403121561244357612442612138565b5b600061245184828501612385565b91505092915050565b612463816122af565b82525050565b600081519050919050565b600082825260208201905092915050565b6000819050602082019050919050565b61249e81612332565b82525050565b60006124b08383612495565b60208301905092915050565b6000602082019050919050565b60006124d482612469565b6124de8185612474565b93506124e983612485565b8060005b8381101561251a57815161250188826124a4565b975061250c836124bc565b9250506001810190506124ed565b5085935050505092915050565b600060a08201905061253c600083018861245a565b818103602083015261254e8187612254565b905061255d6040830186612344565b61256a606083018561245a565b818103608083015261257c81846124c9565b90509695505050505050565b600060208201905061259d600083018461245a565b92915050565b6125ac816121c7565b81146125b757600080fd5b50565b6000813590506125c9816125a3565b92915050565b600080604083850312156125e6576125e5612138565b5b60006125f485828601612385565b9250506020612605858286016125ba565b9150509250929050565b600080fd5b600080fd5b7f4e487b7100000000000000000000000000000000000000000000000000000000600052604160045260246000fd5b61265182612243565b810181811067ffffffffffffffff821117156126705761266f612619565b5b80604052505050565b600061268361212e565b905061268f8282612648565b919050565b600067ffffffffffffffff8211156126af576126ae612619565b5b6126b882612243565b9050602081019050919050565b82818337600083830152505050565b60006126e76126e284612694565b612679565b90508281526020810184848401111561270357612702612614565b5b61270e8482856126c5565b509392505050565b600082601f83011261272b5761272a61260f565b5b813561273b8482602086016126d4565b91505092915050565b6000806000806080858703121561275e5761275d612138565b5b600061276c87828801612385565b945050602061277d87828801612385565b935050604061278e878288016122d0565b925050606085013567ffffffffffffffff8111156127af576127ae61213d565b5b6127bb87828801612716565b91505092959194509250565b600067ffffffffffffffff8211156127e2576127e1612619565b5b6127eb82612243565b9050602081019050919050565b600061280b612806846127c7565b612679565b90508281526020810184848401111561282757612826612614565b5b6128328482856126c5565b509392505050565b600082601f83011261284f5761284e61260f565b5b813561285f8482602086016127f8565b91505092915050565b600067ffffffffffffffff82111561288357612882612619565b5b602082029050602081019050919050565b600080fd5b60006128ac6128a784612868565b612679565b905080838252602082019050602084028301858111156128cf576128ce612894565b5b835b818110156128f857806128e48882612385565b8452602084019350506020810190506128d1565b5050509392505050565b600082601f8301126129175761291661260f565b5b8135612927848260208601612899565b91505092915050565b6000806040838503121561294757612946612138565b5b600083013567ffffffffffffffff8111156129655761296461213d565b5b6129718582860161283a565b925050602083013567ffffffffffffffff8111156129925761299161213d565b5b61299e85828601612902565b9150509250929050565b600080604083850312156129bf576129be612138565b5b60006129cd85828601612385565b92505060206129de85828601612385565b9150509250929050565b7f4e487b7100000000000000000000000000000000000000000000000000000000600052602260045260246000fd5b60006002820490506001821680612a2f57607f821691505b602082108103612a4257612a416129e8565b5b50919050565b7f4552433732313a20617070726f76616c20746f2063757272656e74206f776e6560008201527f7200000000000000000000000000000000000000000000000000000000000000602082015250565b6000612aa4602183612208565b9150612aaf82612a48565b604082019050919050565b60006020820190508181036000830152612ad381612a97565b9050919050565b7f4552433732313a20617070726f76652063616c6c6572206973206e6f7420746f60008201527f6b656e206f776e6572206e6f7220617070726f76656420666f7220616c6c0000602082015250565b6000612b36603e83612208565b9150612b4182612ada565b604082019050919050565b60006020820190508181036000830152612b6581612b29565b9050919050565b7f4552433732313a2063616c6c6572206973206e6f7420746f6b656e206f776e6560008201527f72206e6f7220617070726f766564000000000000000000000000000000000000602082015250565b6000612bc8602e83612208565b9150612bd382612b6c565b604082019050919050565b60006020820190508181036000830152612bf781612bbb565b9050919050565b7f4e487b7100000000000000000000000000000000000000000000000000000000600052603260045260246000fd5b7f4552433732313a20696e76616c696420746f6b656e2049440000000000000000600082015250565b6000612c63601883612208565b9150612c6e82612c2d565b602082019050919050565b60006020820190508181036000830152612c9281612c56565b9050919050565b7f4552433732313a2061646472657373207a65726f206973206e6f74206120766160008201527f6c6964206f776e65720000000000000000000000000000000000000000000000602082015250565b6000612cf5602983612208565b9150612d0082612c99565b604082019050919050565b60006020820190508181036000830152612d2481612ce8565b9050919050565b600081905092915050565b6000612d41826121fd565b612d4b8185612d2b565b9350612d5b818560208601612219565b80840191505092915050565b6000612d738285612d36565b9150612d7f8284612d36565b91508190509392505050565b7f596f7520616c7265616479206861766520612073746f726520696e20706c616360008201527f6500000000000000000000000000000000000000000000000000000000000000602082015250565b6000612de7602183612208565b9150612df282612d8b565b604082019050919050565b60006020820190508181036000830152612e1681612dda565b9050919050565b60008190508160005260206000209050919050565b60006020601f8301049050919050565b600082821b905092915050565b600060088302612e7f7fffffffffffffffffffffffffffffffffffffffffffffffffffffffffffffffff82612e42565b612e898683612e42565b95508019841693508086168417925050509392505050565b6000819050919050565b6000612ec6612ec1612ebc846122af565b612ea1565b6122af565b9050919050565b6000819050919050565b612ee083612eab565b612ef4612eec82612ecd565b848454612e4f565b825550505050565b600090565b612f09612efc565b612f14818484612ed7565b505050565b5b81811015612f3857612f2d600082612f01565b600181019050612f1a565b5050565b601f821115612f7d57612f4e81612e1d565b612f5784612e32565b81016020851015612f66578190505b612f7a612f7285612e32565b830182612f19565b50505b505050565b600082821c905092915050565b6000612fa060001984600802612f82565b1980831691505092915050565b6000612fb98383612f8f565b9150826002028217905092915050565b612fd2826121fd565b67ffffffffffffffff811115612feb57612fea612619565b5b612ff58254612a17565b613000828285612f3c565b600060209050601f8311600181146130335760008415613021578287015190505b61302b8582612fad565b865550613093565b601f19841661304186612e1d565b60005b8281101561306957848901518255600182019150602085019450602081019050613044565b868310156130865784890151613082601f891682612f8f565b8355505b6001600288020188555050505b505050505050565b7f4e487b7100000000000000000000000000000000000000000000000000000000600052601160045260246000fd5b60006130d5826122af565b91507fffffffffffffffffffffffffffffffffffffffffffffffffffffffffffffffff82036131075761310661309b565b5b600182019050919050565b7f4552433732313a207472616e736665722066726f6d20696e636f72726563742060008201527f6f776e6572000000000000000000000000000000000000000000000000000000602082015250565b600061316e602583612208565b915061317982613112565b604082019050919050565b6000602082019050818103600083015261319d81613161565b9050919050565b7f4552433732313a207472616e7366657220746f20746865207a65726f2061646460008201527f7265737300000000000000000000000000000000000000000000000000000000602082015250565b6000613200602483612208565b915061320b826131a4565b604082019050919050565b6000602082019050818103600083015261322f816131f3565b9050919050565b6000613241826122af565b915061324c836122af565b92508282039050818111156132645761326361309b565b5b92915050565b6000613275826122af565b9150613280836122af565b92508282019050808211156132985761329761309b565b5b92915050565b7f4552433732313a20617070726f766520746f2063616c6c657200000000000000600082015250565b60006132d4601983612208565b91506132df8261329e565b602082019050919050565b60006020820190508181036000830152613303816132c7565b9050919050565b7f4552433732313a207472616e7366657220746f206e6f6e20455243373231526560008201527f63656976657220696d706c656d656e7465720000000000000000000000000000602082015250565b6000613366603283612208565b91506133718261330a565b604082019050919050565b6000602082019050818103600083015261339581613359565b9050919050565b7f4552433732313a206d696e7420746f20746865207a65726f2061646472657373600082015250565b60006133d2602083612208565b91506133dd8261339c565b602082019050919050565b60006020820190508181036000830152613401816133c5565b9050919050565b7f4552433732313a20746f6b656e20616c7265616479206d696e74656400000000600082015250565b600061343e601c83612208565b915061344982613408565b602082019050919050565b6000602082019050818103600083015261346d81613431565b9050919050565b600081519050919050565b600082825260208201905092915050565b600061349b82613474565b6134a5818561347f565b93506134b5818560208601612219565b6134be81612243565b840191505092915050565b60006080820190506134de6000830187612344565b6134eb6020830186612344565b6134f8604083018561245a565b818103606083015261350a8184613490565b905095945050505050565b6000815190506135248161216e565b92915050565b6000602082840312156135405761353f612138565b5b600061354e84828501613515565b91505092915050565b7f4e487b7100000000000000000000000000000000000000000000000000000000600052601260045260246000fd5b6000613591826122af565b915061359c836122af565b9250826135ac576135ab613557565b5b828204905092915050565b60006135c2826122af565b91506135cd836122af565b9250826135dd576135dc613557565b5b82820690509291505056fea2646970667358221220219bad24cc62f4581c31ea5f428da3a22db1b44851f39532e2434aa22f6c6be364736f6c63430008110033",
  "immutableReferences": {},
  "source": "// SPDX-License-Identifier: MIT\n// pragma solidity >=0.4.22 <0.9.0;\npragma solidity ^0.8.4;\n\nimport \"@openzeppelin/contracts/token/ERC721/ERC721.sol\";\nimport \"@openzeppelin/contracts/token/ERC721/extensions/ERC721URIStorage.sol\";\n\ncontract GymStore is ERC721URIStorage {\n    uint256 storeNumber = 0;\n\n    struct storeDetails {\n        uint256 tokenId;\n        address ownerAddress;\n        string ipfsHash;\n        uint256 createdAt; // timestamp\n        address[] subscriptions; // services\n    }\n\n    storeDetails[] stores;\n\n    mapping(uint256 => storeDetails) storeMappings;\n    mapping(uint256 => address) storeOwner;\n    mapping(address => uint256) storeNumberMapping;\n    mapping(address => bool) registeredAStore;\n\n    constructor() ERC721(\"GymStoreNFT\", \"GST\") {\n        // create the token here. Nothing to do for now, might add something later\n    }\n\n    function createStore(\n        string memory ipfsHash,\n        address[] memory _subscriptions\n    ) public {\n        require(\n            registeredAStore[msg.sender] == false,\n            \"You already have a store in place\"\n        );\n        // Does one member can have only one business, or can have more?\n        // Going with only 1 store per account for now\n        uint256 sid = stores.length;\n        storeDetails memory nextStore = storeDetails(\n            sid,\n            msg.sender,\n            ipfsHash,\n            block.timestamp,\n            _subscriptions\n        );\n        stores.push(nextStore);\n        _mint(msg.sender, storeNumber);\n\n        registeredAStore[msg.sender] = true;\n        storeNumberMapping[msg.sender] = storeNumber;\n        storeOwner[sid] = msg.sender;\n\n        storeNumber++;\n    }\n\n    function getStore(uint256 _storeId)\n        public\n        view\n        returns (\n            uint256,\n            string memory,\n            address,\n            uint256,\n            address[] memory\n        )\n    {\n        return (\n            stores[_storeId].tokenId,\n            stores[_storeId].ipfsHash,\n            stores[_storeId].ownerAddress,\n            stores[_storeId].createdAt,\n            stores[_storeId].subscriptions\n        );\n    }\n\n    function getOwnerStore(address ownerAddress)\n        public\n        view\n        returns (\n            uint256,\n            string memory,\n            address,\n            uint256,\n            address[] memory\n        )\n    {\n        uint256 storeNum = storeNumberMapping[ownerAddress];\n        return (\n            stores[storeNum].tokenId,\n            stores[storeNum].ipfsHash,\n            stores[storeNum].ownerAddress,\n            stores[storeNum].createdAt,\n            stores[storeNum].subscriptions\n        );\n    }\n\n    function deleteStore(uint256 _storeId) public {\n        require(storeOwner[_storeId] == msg.sender);\n        delete storeOwner[_storeId];\n    }\n\n    function getStoreOwner(uint256 storeId) public view returns (address) {\n        return (storeOwner[storeId]);\n    }\n\n    function getStoreNumber() public view returns (uint256) {\n        return storeNumber;\n    }\n\n    function getStoreId(address _address) public view returns (uint256) {\n        return storeNumberMapping[_address];\n    }\n\n    function ownsAStore(address _storeOWner) public view returns (bool) {\n        return registeredAStore[_storeOWner];\n    }\n}\n",
  "sourcePath": "/Users/sagaranand/Documents/workspace-open/allfit/_backend/contracts/GymStore.sol",
  "compiler": {
    "name": "solc",
    "version": "0.8.17+commit.8df45f5f.Emscripten.clang"
  },
  "schemaVersion": "3.4.10",
  "updatedAt": "2022-11-07T17:15:25.438Z",
  "networkType": "ethereum",
  "devdoc": {
    "kind": "dev",
    "methods": {
      "approve(address,uint256)": {
        "details": "See {IERC721-approve}."
      },
      "balanceOf(address)": {
        "details": "See {IERC721-balanceOf}."
      },
      "getApproved(uint256)": {
        "details": "See {IERC721-getApproved}."
      },
      "isApprovedForAll(address,address)": {
        "details": "See {IERC721-isApprovedForAll}."
      },
      "name()": {
        "details": "See {IERC721Metadata-name}."
      },
      "ownerOf(uint256)": {
        "details": "See {IERC721-ownerOf}."
      },
      "safeTransferFrom(address,address,uint256)": {
        "details": "See {IERC721-safeTransferFrom}."
      },
      "safeTransferFrom(address,address,uint256,bytes)": {
        "details": "See {IERC721-safeTransferFrom}."
      },
      "setApprovalForAll(address,bool)": {
        "details": "See {IERC721-setApprovalForAll}."
      },
      "supportsInterface(bytes4)": {
        "details": "See {IERC165-supportsInterface}."
      },
      "symbol()": {
        "details": "See {IERC721Metadata-symbol}."
      },
      "tokenURI(uint256)": {
        "details": "See {IERC721Metadata-tokenURI}."
      },
      "transferFrom(address,address,uint256)": {
        "details": "See {IERC721-transferFrom}."
      }
    },
    "version": 1
  },
  "userdoc": {
    "kind": "user",
    "methods": {},
    "version": 1
  }
}